{"abi":[{"type":"constructor","inputs":[{"name":"_ccipTokenTranferor","type":"address","internalType":"address"},{"name":"_bnmToken","type":"address","internalType":"address"}],"stateMutability":"nonpayable"},{"type":"function","name":"addEmployee","inputs":[{"name":"_employeeAddress","type":"address","internalType":"address"},{"name":"_isSalary","type":"bool","internalType":"bool"},{"name":"_payRate","type":"uint256","internalType":"uint256"}],"outputs":[],"stateMutability":"nonpayable"},{"type":"function","name":"automationAddress","inputs":[],"outputs":[{"name":"","type":"address","internalType":"address"}],"stateMutability":"view"},{"type":"function","name":"bnmToken","inputs":[],"outputs":[{"name":"","type":"address","internalType":"contract IERC20"}],"stateMutability":"view"},{"type":"function","name":"ccip","inputs":[],"outputs":[{"name":"","type":"address","internalType":"contract ITokenTransferor"}],"stateMutability":"view"},{"type":"function","name":"changePrimaryWalletAddress","inputs":[{"name":"_oldAddress","type":"address","internalType":"address"},{"name":"_newAddress","type":"address","internalType":"address"}],"outputs":[],"stateMutability":"nonpayable"},{"type":"function","name":"employeeIds","inputs":[{"name":"","type":"bytes32","internalType":"bytes32"}],"outputs":[{"name":"employeeId","type":"bytes32","internalType":"bytes32"},{"name":"primaryWallet","type":"address","internalType":"address"},{"name":"isSalary","type":"bool","internalType":"bool"},{"name":"payRate","type":"uint256","internalType":"uint256"},{"name":"weeklyPay","type":"uint256","internalType":"uint256"},{"name":"paymentSplits","type":"tuple","internalType":"struct PayrollGas.PaymentSplit","components":[{"name":"paySplitPercentageNative","type":"uint8","internalType":"uint8"},{"name":"paySplitPercentage1","type":"uint8","internalType":"uint8"},{"name":"paySplitPercentage2","type":"uint8","internalType":"uint8"},{"name":"paySplitPercentage3","type":"uint8","internalType":"uint8"},{"name":"paySplitPercentage4","type":"uint8","internalType":"uint8"}]}],"stateMutability":"view"},{"type":"function","name":"employees","inputs":[{"name":"","type":"address","internalType":"address"}],"outputs":[{"name":"employeeId","type":"bytes32","internalType":"bytes32"},{"name":"primaryWallet","type":"address","internalType":"address"},{"name":"isSalary","type":"bool","internalType":"bool"},{"name":"payRate","type":"uint256","internalType":"uint256"},{"name":"weeklyPay","type":"uint256","internalType":"uint256"},{"name":"paymentSplits","type":"tuple","internalType":"struct PayrollGas.PaymentSplit","components":[{"name":"paySplitPercentageNative","type":"uint8","internalType":"uint8"},{"name":"paySplitPercentage1","type":"uint8","internalType":"uint8"},{"name":"paySplitPercentage2","type":"uint8","internalType":"uint8"},{"name":"paySplitPercentage3","type":"uint8","internalType":"uint8"},{"name":"paySplitPercentage4","type":"uint8","internalType":"uint8"}]}],"stateMutability":"view"},{"type":"function","name":"gas_payAllSallaryEmployees","inputs":[],"outputs":[],"stateMutability":"nonpayable"},{"type":"function","name":"getAutomationAddress","inputs":[],"outputs":[{"name":"","type":"address","internalType":"address"}],"stateMutability":"view"},{"type":"function","name":"getEmployee","inputs":[{"name":"_employeeAddress","type":"address","internalType":"address"}],"outputs":[{"name":"","type":"tuple","internalType":"struct PayrollGas.Employee","components":[{"name":"employeeId","type":"bytes32","internalType":"bytes32"},{"name":"primaryWallet","type":"address","internalType":"address"},{"name":"isSalary","type":"bool","internalType":"bool"},{"name":"payRate","type":"uint256","internalType":"uint256"},{"name":"weeklyPay","type":"uint256","internalType":"uint256"},{"name":"paymentSplits","type":"tuple","internalType":"struct PayrollGas.PaymentSplit","components":[{"name":"paySplitPercentageNative","type":"uint8","internalType":"uint8"},{"name":"paySplitPercentage1","type":"uint8","internalType":"uint8"},{"name":"paySplitPercentage2","type":"uint8","internalType":"uint8"},{"name":"paySplitPercentage3","type":"uint8","internalType":"uint8"},{"name":"paySplitPercentage4","type":"uint8","internalType":"uint8"}]}]}],"stateMutability":"view"},{"type":"function","name":"getEmployeePaymentSplits","inputs":[{"name":"_employeeAddress","type":"address","internalType":"address"}],"outputs":[{"name":"","type":"tuple","internalType":"struct PayrollGas.PaymentSplit","components":[{"name":"paySplitPercentageNative","type":"uint8","internalType":"uint8"},{"name":"paySplitPercentage1","type":"uint8","internalType":"uint8"},{"name":"paySplitPercentage2","type":"uint8","internalType":"uint8"},{"name":"paySplitPercentage3","type":"uint8","internalType":"uint8"},{"name":"paySplitPercentage4","type":"uint8","internalType":"uint8"}]}],"stateMutability":"view"},{"type":"function","name":"getHourlyEmployees","inputs":[],"outputs":[{"name":"","type":"address[]","internalType":"address[]"}],"stateMutability":"view"},{"type":"function","name":"getSalariedEmployees","inputs":[],"outputs":[{"name":"","type":"address[]","internalType":"address[]"}],"stateMutability":"view"},{"type":"function","name":"hourlyEmployeeIndex","inputs":[{"name":"","type":"address","internalType":"address"}],"outputs":[{"name":"","type":"uint256","internalType":"uint256"}],"stateMutability":"view"},{"type":"function","name":"hourlyEmployees","inputs":[{"name":"","type":"uint256","internalType":"uint256"}],"outputs":[{"name":"","type":"address","internalType":"address"}],"stateMutability":"view"},{"type":"function","name":"i_destinationChainIDdOP","inputs":[],"outputs":[{"name":"","type":"uint64","internalType":"uint64"}],"stateMutability":"view"},{"type":"function","name":"i_destinationChainIdAvax","inputs":[],"outputs":[{"name":"","type":"uint64","internalType":"uint64"}],"stateMutability":"view"},{"type":"function","name":"i_destinationChainIdBnb","inputs":[],"outputs":[{"name":"","type":"uint64","internalType":"uint64"}],"stateMutability":"view"},{"type":"function","name":"i_destinationChainIdEth","inputs":[],"outputs":[{"name":"","type":"uint64","internalType":"uint64"}],"stateMutability":"view"},{"type":"function","name":"owner","inputs":[],"outputs":[{"name":"","type":"address","internalType":"address"}],"stateMutability":"view"},{"type":"function","name":"pay","inputs":[{"name":"_destinationChainSelector","type":"uint64","internalType":"uint64"},{"name":"_employeeAddress","type":"address","internalType":"address"},{"name":"_token","type":"address","internalType":"address"},{"name":"_amount","type":"uint256","internalType":"uint256"}],"outputs":[{"name":"messageId","type":"bytes32","internalType":"bytes32"}],"stateMutability":"nonpayable"},{"type":"function","name":"payAllEmployees","inputs":[{"name":"_hoursWorked","type":"uint8[]","internalType":"uint8[]"}],"outputs":[],"stateMutability":"nonpayable"},{"type":"function","name":"payAllHourlyEmployees","inputs":[{"name":"_hoursWorked","type":"uint8[]","internalType":"uint8[]"}],"outputs":[],"stateMutability":"nonpayable"},{"type":"function","name":"payAllSallaryEmployees","inputs":[],"outputs":[],"stateMutability":"nonpayable"},{"type":"function","name":"paySingleEmployee","inputs":[{"name":"_employeeAddress","type":"address","internalType":"address"},{"name":"_hoursWorked","type":"uint8","internalType":"uint8"}],"outputs":[],"stateMutability":"nonpayable"},{"type":"function","name":"paymentSplits","inputs":[{"name":"","type":"bytes32","internalType":"bytes32"}],"outputs":[{"name":"paySplitPercentageNative","type":"uint8","internalType":"uint8"},{"name":"paySplitPercentage1","type":"uint8","internalType":"uint8"},{"name":"paySplitPercentage2","type":"uint8","internalType":"uint8"},{"name":"paySplitPercentage3","type":"uint8","internalType":"uint8"},{"name":"paySplitPercentage4","type":"uint8","internalType":"uint8"}],"stateMutability":"view"},{"type":"function","name":"recieve","inputs":[],"outputs":[],"stateMutability":"payable"},{"type":"function","name":"removeEmployee","inputs":[{"name":"_employeeAddress","type":"address","internalType":"address"}],"outputs":[],"stateMutability":"nonpayable"},{"type":"function","name":"renounceOwnership","inputs":[],"outputs":[],"stateMutability":"nonpayable"},{"type":"function","name":"salariedEmployeeIndex","inputs":[{"name":"","type":"address","internalType":"address"}],"outputs":[{"name":"","type":"uint256","internalType":"uint256"}],"stateMutability":"view"},{"type":"function","name":"salariedEmployees","inputs":[{"name":"","type":"uint256","internalType":"uint256"}],"outputs":[{"name":"","type":"address","internalType":"address"}],"stateMutability":"view"},{"type":"function","name":"setAutomationAddress","inputs":[{"name":"_automationAddress","type":"address","internalType":"address"}],"outputs":[],"stateMutability":"nonpayable"},{"type":"function","name":"setEmployeeSalary","inputs":[{"name":"_employeeAddress","type":"address","internalType":"address"},{"name":"_isSalary","type":"bool","internalType":"bool"},{"name":"_payRate","type":"uint256","internalType":"uint256"}],"outputs":[],"stateMutability":"nonpayable"},{"type":"function","name":"setPaymentSplits","inputs":[{"name":"_employeeAddress","type":"address","internalType":"address"},{"name":"_paySplitPercentages","type":"uint8[5]","internalType":"uint8[5]"}],"outputs":[],"stateMutability":"nonpayable"},{"type":"function","name":"transferOwnership","inputs":[{"name":"newOwner","type":"address","internalType":"address"}],"outputs":[],"stateMutability":"nonpayable"},{"type":"function","name":"viewPaymentSplit","inputs":[{"name":"_employeeAddress","type":"address","internalType":"address"}],"outputs":[{"name":"","type":"tuple","internalType":"struct PayrollGas.PaymentSplit","components":[{"name":"paySplitPercentageNative","type":"uint8","internalType":"uint8"},{"name":"paySplitPercentage1","type":"uint8","internalType":"uint8"},{"name":"paySplitPercentage2","type":"uint8","internalType":"uint8"},{"name":"paySplitPercentage3","type":"uint8","internalType":"uint8"},{"name":"paySplitPercentage4","type":"uint8","internalType":"uint8"}]}],"stateMutability":"view"},{"type":"function","name":"withdraw","inputs":[{"name":"_to","type":"address","internalType":"address payable"}],"outputs":[],"stateMutability":"nonpayable"},{"type":"event","name":"AllEmployeesPaid","inputs":[],"anonymous":false},{"type":"event","name":"AllHourlyEmployeesPaid","inputs":[],"anonymous":false},{"type":"event","name":"AllSallaryEmployeesPaid","inputs":[],"anonymous":false},{"type":"event","name":"BalanceWithdrawn","inputs":[{"name":"amount","type":"uint256","indexed":false,"internalType":"uint256"}],"anonymous":false},{"type":"event","name":"EmployeeAdded","inputs":[{"name":"_employeeAddress","type":"address","indexed":false,"internalType":"address"}],"anonymous":false},{"type":"event","name":"EmployeeFired","inputs":[{"name":"_employeeAddress","type":"address","indexed":false,"internalType":"address"}],"anonymous":false},{"type":"event","name":"OwnershipTransferred","inputs":[{"name":"previousOwner","type":"address","indexed":true,"internalType":"address"},{"name":"newOwner","type":"address","indexed":true,"internalType":"address"}],"anonymous":false},{"type":"event","name":"PaymentSplitSet","inputs":[{"name":"_employeeAddress","type":"address","indexed":false,"internalType":"address"},{"name":"_paySplitPercentages","type":"uint8[5]","indexed":false,"internalType":"uint8[5]"}],"anonymous":false},{"type":"event","name":"SalarySet","inputs":[{"name":"_employeeAddress","type":"address","indexed":false,"internalType":"address"},{"name":"_isSalary","type":"bool","indexed":false,"internalType":"bool"}],"anonymous":false},{"type":"event","name":"SingleEmployeePaid","inputs":[{"name":"_employeeAddress","type":"address","indexed":false,"internalType":"address"},{"name":"_amount","type":"uint256","indexed":false,"internalType":"uint256"}],"anonymous":false},{"type":"event","name":"TransferToChain","inputs":[{"name":"_receiver","type":"address","indexed":false,"internalType":"address"},{"name":"_destinationChainSelector","type":"uint64","indexed":false,"internalType":"uint64"},{"name":"messageId","type":"bytes32","indexed":false,"internalType":"bytes32"}],"anonymous":false},{"type":"event","name":"WalletAddressChanged","inputs":[{"name":"_oldAddress","type":"address","indexed":false,"internalType":"address"},{"name":"_newAddress","type":"address","indexed":false,"internalType":"address"}],"anonymous":false},{"type":"error","name":"EmployeeAlreadyExists","inputs":[]},{"type":"error","name":"EmployeeDoesNotExists","inputs":[]},{"type":"error","name":"EmployeeIsNotHourly","inputs":[]},{"type":"error","name":"EmployeeIsNotSalary","inputs":[]},{"type":"error","name":"HoursWorkedArrayDoesNotMatchEmployees","inputs":[{"name":"","type":"uint8[]","internalType":"uint8[]"}]},{"type":"error","name":"InvalidAddress","inputs":[]},{"type":"error","name":"MustHavePayRate","inputs":[]},{"type":"error","name":"OwnerCantBeEmployee","inputs":[]},{"type":"error","name":"PercentageMustEqual100","inputs":[]}],"bytecode":{"object":"0x61010060405267de41ba4fc9d91ad96080526724f9b897ef58a92260a05267ccf0a31a221f3c9b60c05267b8159170038f96fb60e0523480156200004257600080fd5b506040516200372a3803806200372a83398101604081905262000065916200010f565b6200007033620000a2565b600280546001600160a01b039384166001600160a01b0319918216179091556001805492909316911617905562000147565b600080546001600160a01b038381166001600160a01b0319831681178455604051919092169283917f8be0079c531659141344cd1fd0a4f28419497f9722a3daafe3b4186f6b6457e09190a35050565b80516001600160a01b03811681146200010a57600080fd5b919050565b600080604083850312156200012357600080fd5b6200012e83620000f2565b91506200013e60208401620000f2565b90509250929050565b60805160a05160c05160e051613539620001f16000396000818161072f01528181610f2c01528181611eba0152818161227901526128460152600081816108ff01528181610ed301528181611e610152818161222001526127ed01526000818161060001528181610e7a01528181611e08015281816121c701526127940152600081816104bd01528181610e1201528181611daf0152818161216e015261273b01526135396000f3fe60806040526004361061021a5760003560e01c806396d92e0511610123578063d71ade14116100ab578063ec83e4aa1161006f578063ec83e4aa14610898578063f2fde38b146108b8578063f59ae6e0146108d8578063f60233c2146108ed578063f84bd1aa1461092157600080fd5b8063d71ade141461076f578063de59302c1461078f578063e47f103a14610838578063e4a9288814610858578063e7dd96d21461087857600080fd5b8063cdfa77ce116100f2578063cdfa77ce14610622578063d067894714610642578063d108177a146106fd578063d386bfa01461071d578063d517c4791461075157600080fd5b806396d92e05146102ae5780639965ddee146105c1578063a9e10bf21461027f578063ad7adc39146105ee57600080fd5b80635e0c0d80116101a65780637e77b36b116101755780637e77b36b1461048b5780637fb8c876146104ab5780638da5cb5b146104f85780638e479e4d1461051657806391ac24c8146105a157600080fd5b80635e0c0d80146103fb57806364cb2ecb1461041b578063715018a614610456578063753b7ffe1461046b57600080fd5b806334a7bb48116101ed57806334a7bb48146102ae57806351cff8d91461036e5780635ac3505b1461038e5780635afcc5da146103a35780635b1ae837146103c357600080fd5b806305e262411461021f57806314c710b51461024a5780632130854a1461025f57806332648e0914610281575b600080fd5b34801561022b57600080fd5b50610234610941565b6040516102419190612f6e565b60405180910390f35b34801561025657600080fd5b506102346109a3565b34801561026b57600080fd5b5061027f61027a366004612fbb565b610a03565b005b34801561028d57600080fd5b506102a161029c366004613045565b610a8a565b60405161024191906130a1565b3480156102ba57600080fd5b506103616102c9366004613045565b6040805160a081018252600080825260208201819052918101829052606081018290526080810191909152506001600160a01b0316600090815260056020908152604091829020825160a08101845260049091015460ff808216835261010082048116938301939093526201000081048316938201939093526301000000830482166060820152600160201b90920416608082015290565b60405161024191906130f7565b34801561037a57600080fd5b5061027f610389366004613045565b610b4e565b34801561039a57600080fd5b5061027f610c50565b3480156103af57600080fd5b5061027f6103be366004613113565b610faa565b3480156103cf57600080fd5b506103e36103de366004613154565b611085565b6040516001600160a01b039091168152602001610241565b34801561040757600080fd5b5061027f61041636600461316d565b6110af565b34801561042757600080fd5b50610448610436366004613045565b60086020526000908152604090205481565b604051908152602001610241565b34801561046257600080fd5b5061027f6114e4565b34801561047757600080fd5b506001546103e3906001600160a01b031681565b34801561049757600080fd5b506002546103e3906001600160a01b031681565b3480156104b757600080fd5b506104df7f000000000000000000000000000000000000000000000000000000000000000081565b60405167ffffffffffffffff9091168152602001610241565b34801561050457600080fd5b506000546001600160a01b03166103e3565b34801561052257600080fd5b5061056d610531366004613154565b60066020526000908152604090205460ff80821691610100810482169162010000820481169163010000008104821691600160201b9091041685565b6040805160ff968716815294861660208601529285169284019290925283166060830152909116608082015260a001610241565b3480156105ad57600080fd5b5061027f6105bc366004613113565b6114f8565b3480156105cd57600080fd5b506104486105dc366004613045565b600a6020526000908152604090205481565b3480156105fa57600080fd5b506104df7f000000000000000000000000000000000000000000000000000000000000000081565b34801561062e57600080fd5b506003546103e3906001600160a01b031681565b34801561064e57600080fd5b506106eb61065d366004613045565b6005602090815260009182526040918290208054600182015460028301546003840154865160a08101885260049095015460ff808216875261010082048116978701979097526201000081048716978601979097526301000000870486166060860152600160201b9096048516608085015291946001600160a01b03821694600160a01b9092049091169286565b604051610241969594939291906131a6565b34801561070957600080fd5b5061027f610718366004613045565b611a4a565b34801561072957600080fd5b506104df7f000000000000000000000000000000000000000000000000000000000000000081565b34801561075d57600080fd5b506003546001600160a01b03166103e3565b34801561077b57600080fd5b5061027f61078a366004612fbb565b611b8e565b34801561079b57600080fd5b506106eb6107aa366004613154565b6004602081815260009283526040928390208054600182015460028301546003840154875160a081018952949096015460ff808216865261010082048116968601969096526201000081048616978501979097526301000000870485166060850152600160201b9096048416608084015290946001600160a01b03821694600160a01b909204909316929186565b34801561084457600080fd5b5061027f610853366004613201565b611f3a565b34801561086457600080fd5b50610448610873366004613236565b6122ff565b34801561088457600080fd5b5061027f610893366004613045565b6124b4565b3480156108a457600080fd5b506103e36108b3366004613154565b6124de565b3480156108c457600080fd5b5061027f6108d3366004613045565b6124ee565b3480156108e457600080fd5b5061027f612567565b3480156108f957600080fd5b506104df7f000000000000000000000000000000000000000000000000000000000000000081565b34801561092d57600080fd5b5061027f61093c366004613294565b612898565b6060600780548060200260200160405190810160405280929190818152602001828054801561099957602002820191906000526020600020905b81546001600160a01b0316815260019091019060200180831161097b575b5050505050905090565b60606009805480602002602001604051908101604052809291908181526020018280548015610999576020028201919060005260206000209081546001600160a01b0316815260019091019060200180831161097b575050505050905090565b6003546001600160a01b0316331480610a2657506000546001600160a01b031633145b610a4b5760405162461bcd60e51b8152600401610a42906132d0565b60405180910390fd5b610a53610c50565b610a5d8282611b8e565b6040517fe408f9fbc619e5d2ca44c1a356e4c2eb37b1f23a8062156c7452ec7f3072a09390600090a15050565b610a92612efc565b506001600160a01b03908116600090815260056020908152604091829020825160c08101845281548152600182015494851681840152600160a01b90940460ff90811615158585015260028201546060808701919091526003830154608080880191909152855160a080820188526004909501548085168252610100810485169682019690965262010000860484169681019690965263010000008504831691860191909152600160201b909304169183019190915282015290565b610b56612b0a565b6001600160a01b038116610b7d5760405163e6c4247b60e01b815260040160405180910390fd5b60405147906000906001600160a01b0384169083908381818185875af1925050503d8060008114610bca576040519150601f19603f3d011682016040523d82523d6000602084013e610bcf565b606091505b5050905080610c175760405162461bcd60e51b81526020600482015260146024820152732330b4b632b2103a379039b2b7321022ba3432b960611b6044820152606401610a42565b6040518281527f39f8b889424a1684bd36857c25ab79691ed71adf60bbeca32820cb4de3c5884c906020015b60405180910390a1505050565b6003546001600160a01b0316331480610c7357506000546001600160a01b031633145b610c8f5760405162461bcd60e51b8152600401610a42906132d0565b60005b600754811015610f7e57600060078281548110610cb157610cb161331f565b60009182526020808320909101546001600160a01b0316808352600582526040928390206003810154845160a08101865260049092015460ff80821680855261010083048216968501969096526201000082048116968401969096526301000000810486166060840152600160201b900490941660808201529093509015610df75760015481516000916001600160a01b03169063a9059cbb908690606490610d5d9060ff168861334b565b610d679190613362565b6040516001600160e01b031960e085901b1681526001600160a01b03909216600483015260248201526044016020604051808303816000875af1158015610db2573d6000803e3d6000fd5b505050506040513d601f19601f82011682018060405250810190610dd69190613384565b905080610df55760405162461bcd60e51b8152600401610a42906133a1565b505b602081015160ff1615610e5f576001546020820151610e5d917f00000000000000000000000000000000000000000000000000000000000000009186916001600160a01b031690606490610e4e9060ff168861334b565b610e589190613362565b612b64565b505b604081015160ff1615610eb8576001546040820151610eb6917f00000000000000000000000000000000000000000000000000000000000000009186916001600160a01b031690606490610e4e9060ff168861334b565b505b606081015160ff1615610f11576001546060820151610f0f917f00000000000000000000000000000000000000000000000000000000000000009186916001600160a01b031690606490610e4e9060ff168861334b565b505b608081015160ff1615610f6a576001546080820151610f68917f00000000000000000000000000000000000000000000000000000000000000009186916001600160a01b031690606490610e4e9060ff168861334b565b505b50505080610f77906133d0565b9050610c92565b506040517f1747d57e65e669e1aee8c41fd5df94e26df3137ce98fa92a33de2c037705083490600090a1565b610fb2612b0a565b6001600160a01b038316610fd95760405163e6c4247b60e01b815260040160405180910390fd5b6001600160a01b0383166000908152600560205260408120549003611011576040516312636c6d60e21b815260040160405180910390fd5b6001600160a01b03831660008181526005602090815260409182902060018101805460ff60a01b1916600160a01b8815159081029190911790915560029091018590558251938452908301527f66dd719a93d6d48266db4c11beac8c816da26143986801aac5c0dc9723e8cfc99101610c43565b6007818154811061109557600080fd5b6000918252602090912001546001600160a01b0316905081565b33600090815260056020526040812054900361111b5760405162461bcd60e51b815260206004820152602560248201527f4f6e6c7920656d706c6f796565732063616e2063616c6c20746869732066756e60448201526431ba34b7b760d91b6064820152608401610a42565b6001600160a01b0381166111425760405163e6c4247b60e01b815260040160405180910390fd5b6001600160a01b038216600090815260056020526040812054900361117a576040516312636c6d60e21b815260040160405180910390fd5b6001600160a01b038083166000818152600560208181526040808420815160c08101835281548152600180830154808a1683870190815260ff600160a01b9092048216151584870181905260028601546060808701919091526003870154608080880191909152885160a08181018b52600490990154808716825261010081048716828d015262010000810487169a82019a909a5263010000008a04861692810192909252600160201b909804909316968301969096529383015297891690915294909352529091036112e6576001600160a01b03831660009081526008602052604090205461126b816007612d6e565b600780546001808201835560008381527fa66cc928b5edb82af9bd49922954155ab7b0942694bea4ce44661d9a8736c68890920180546001600160a01b0319166001600160a01b038816179055915490916112c5916133e9565b6001600160a01b038516600090815260086020526040902055506113809050565b6001600160a01b0383166000908152600a602052604090205461130a816009612d6e565b600980546001808201835560008381527f6e1540171b6c0c960b71a7020d9f60077f6af931a8bbf590da0223dacf75c7af90920180546001600160a01b0319166001600160a01b03881617905591549091611364916133e9565b6001600160a01b0385166000908152600a602052604090205550505b6001600160a01b038084166000908152600560209081526040808320838155600180820180546001600160a81b0319908116909155600280840187905560038085018890556004948501805464ffffffffff191690558a8916885296859020895181558987015193810180548b8801511515600160a01b029416949099169390931791909117909655606080880151968201969096556080808801519582019590955560a08701518051919092018054948301518385015197840151939096015160ff908116600160201b02938116630100000002978116620100000263ff000000191663ffff0000199782166101000261ffff199790971693909116929092179490941794909416939093179390931764ff000000001916919091179055517f5555e92e6e43fa030c858b58d55eb7229f493a44dc66f35b2eec1ac27da6450a90610c4390859085906001600160a01b0392831681529116602082015260400190565b6114ec612b0a565b6114f66000612e4d565b565b611500612b0a565b6001600160a01b0383166115275760405163e6c4247b60e01b815260040160405180910390fd5b6001600160a01b0383166000908152600560205260409020541561155e5760405163117059fd60e21b815260040160405180910390fd5b6000546001600160a01b03166001600160a01b0316836001600160a01b03160361159b57604051630e216b2f60e01b815260040160405180910390fd5b806000036115bc5760405163b4c339fd60e01b815260040160405180910390fd5b6040516bffffffffffffffffffffffff19606085901b1660208201524260348201526000906054016040516020818303038152906040528051906020012090506000831515600115150361161c57611615603484613362565b9050611620565b5060005b60006040518060c00160405280848152602001876001600160a01b0316815260200186151581526020018581526020018381526020016040518060a00160405280606460ff168152602001600060ff168152602001600060ff168152602001600060ff168152602001600060ff1681525081525090508060056000886001600160a01b03166001600160a01b031681526020019081526020016000206000820151816000015560208201518160010160006101000a8154816001600160a01b0302191690836001600160a01b0316021790555060408201518160010160146101000a81548160ff021916908315150217905550606082015181600201556080820151816003015560a08201518160040160008201518160000160006101000a81548160ff021916908360ff16021790555060208201518160000160016101000a81548160ff021916908360ff16021790555060408201518160000160026101000a81548160ff021916908360ff16021790555060608201518160000160036101000a81548160ff021916908360ff16021790555060808201518160000160046101000a81548160ff021916908360ff160217905550505090505080600460008581526020019081526020016000206000820151816000015560208201518160010160006101000a8154816001600160a01b0302191690836001600160a01b0316021790555060408201518160010160146101000a81548160ff021916908315150217905550606082015181600201556080820151816003015560a08201518160040160008201518160000160006101000a81548160ff021916908360ff16021790555060208201518160000160016101000a81548160ff021916908360ff16021790555060408201518160000160026101000a81548160ff021916908360ff16021790555060608201518160000160036101000a81548160ff021916908360ff16021790555060808201518160000160046101000a81548160ff021916908360ff1602179055505050905050841515600115150361199157600780546001808201835560008381527fa66cc928b5edb82af9bd49922954155ab7b0942694bea4ce44661d9a8736c68890920180546001600160a01b0319166001600160a01b038b1617905591549091611972916133e9565b6001600160a01b03881660009081526008602052604090205550611a06565b600980546001808201835560008381527f6e1540171b6c0c960b71a7020d9f60077f6af931a8bbf590da0223dacf75c7af90920180546001600160a01b0319166001600160a01b038b16179055915490916119eb916133e9565b6001600160a01b0388166000908152600a6020526040902055505b6040516001600160a01b03871681527f041109cfe10cfa549abb66b986d0a294ecc6c9ad39000abcb9c2afd422c8bd649060200160405180910390a1505050505050565b611a52612b0a565b6001600160a01b0381166000908152600560205260408120549003611a8a576040516312636c6d60e21b815260040160405180910390fd5b6001600160a01b0381166000908152600560205260409020600180820154600160a01b900460ff1615159003611ae4576001600160a01b038216600090815260086020526040902054611ade816007612d6e565b50611b0a565b6001600160a01b0382166000908152600a6020526040902054611b08816009612d6e565b505b6001600160a01b03821660008181526005602090815260408083208381556001810180546001600160a81b03191690556002810184905560038101939093556004909201805464ffffffffff1916905590519182527fc34a832d757b9fb8d21f0fa1ffd683119f285dc6472ac419b8c1bbb81c4a8ca0910160405180910390a15050565b6003546001600160a01b0316331480611bb157506000546001600160a01b031633145b611bcd5760405162461bcd60e51b8152600401610a42906132d0565b6009548114611bf35781816040516321c5b13b60e01b8152600401610a429291906133fc565b60005b600954811015611f0c57600060098281548110611c1557611c1561331f565b60009182526020822001546001600160a01b03169150611c5b82868686818110611c4157611c4161331f565b9050602002016020810190611c569190613442565b612e9d565b6001600160a01b038316600090815260056020908152604091829020825160a08101845260049091015460ff80821680845261010083048216948401949094526201000082048116948301949094526301000000810484166060830152600160201b900490921660808301529192509015611d945760015481516000916001600160a01b03169063a9059cbb908690606490611cfa9060ff168861334b565b611d049190613362565b6040516001600160e01b031960e085901b1681526001600160a01b03909216600483015260248201526044016020604051808303816000875af1158015611d4f573d6000803e3d6000fd5b505050506040513d601f19601f82011682018060405250810190611d739190613384565b905080611d925760405162461bcd60e51b8152600401610a42906133a1565b505b602081015160ff1615611ded576001546020820151611deb917f00000000000000000000000000000000000000000000000000000000000000009186916001600160a01b031690606490610e4e9060ff168861334b565b505b604081015160ff1615611e46576001546040820151611e44917f00000000000000000000000000000000000000000000000000000000000000009186916001600160a01b031690606490610e4e9060ff168861334b565b505b606081015160ff1615611e9f576001546060820151611e9d917f00000000000000000000000000000000000000000000000000000000000000009186916001600160a01b031690606490610e4e9060ff168861334b565b505b608081015160ff1615611ef8576001546080820151611ef6917f00000000000000000000000000000000000000000000000000000000000000009186916001600160a01b031690606490610e4e9060ff168861334b565b505b50505080611f05906133d0565b9050611bf6565b506040517fa99f64305c0d90bd344c32396b923e0ac8a8b7e50103404260d4dd3dbd38511c90600090a15050565b6003546001600160a01b0316331480611f5d57506000546001600160a01b031633145b611f795760405162461bcd60e51b8152600401610a42906132d0565b6001600160a01b038216611fa05760405163e6c4247b60e01b815260040160405180910390fd5b6001600160a01b0382166000908152600560205260408120549003611fd8576040516312636c6d60e21b815260040160405180910390fd5b6001600160a01b038216600090815260056020526040812060010154600160a01b900460ff166120115761200c8383612e9d565b61201a565b61201a83612ece565b6001600160a01b038416600090815260056020908152604091829020825160a08101845260049091015460ff80821680845261010083048216948401949094526201000082048116948301949094526301000000810484166060830152600160201b9004909216608083015291925090156121535760015481516000916001600160a01b03169063a9059cbb9087906064906120b99060ff168861334b565b6120c39190613362565b6040516001600160e01b031960e085901b1681526001600160a01b03909216600483015260248201526044016020604051808303816000875af115801561210e573d6000803e3d6000fd5b505050506040513d601f19601f820116820180604052508101906121329190613384565b9050806121515760405162461bcd60e51b8152600401610a42906133a1565b505b602081015160ff16156121ac5760015460208201516121aa917f00000000000000000000000000000000000000000000000000000000000000009187916001600160a01b031690606490610e4e9060ff168861334b565b505b604081015160ff1615612205576001546040820151612203917f00000000000000000000000000000000000000000000000000000000000000009187916001600160a01b031690606490610e4e9060ff168861334b565b505b606081015160ff161561225e57600154606082015161225c917f00000000000000000000000000000000000000000000000000000000000000009187916001600160a01b031690606490610e4e9060ff168861334b565b505b608081015160ff16156122b75760015460808201516122b5917f00000000000000000000000000000000000000000000000000000000000000009187916001600160a01b031690606490610e4e9060ff168861334b565b505b604080516001600160a01b0386168152602081018490527f8e5857bb83f52e5f709290339eee483421b96fa61acfcb733cbf043255537c8b910160405180910390a150505050565b60015460025460405163095ea7b360e01b81526001600160a01b03918216600482015260248101849052600092919091169063095ea7b3906044016020604051808303816000875af1158015612359573d6000803e3d6000fd5b505050506040513d601f19601f8201168201806040525081019061237d9190613384565b5060015460025460405163a9059cbb60e01b81526001600160a01b03918216600482015260248101859052600092919091169063a9059cbb906044016020604051808303816000875af11580156123d8573d6000803e3d6000fd5b505050506040513d601f19601f820116820180604052508101906123fc9190613384565b90508061241b5760405162461bcd60e51b8152600401610a42906133a1565b600254604051632578500b60e21b815267ffffffffffffffff881660048201526001600160a01b038781166024830152868116604483015260648201869052909116906395e1402c906084016020604051808303816000875af1158015612486573d6000803e3d6000fd5b505050506040513d601f19601f820116820180604052508101906124aa919061345d565b9695505050505050565b6124bc612b0a565b600380546001600160a01b0319166001600160a01b0392909216919091179055565b6009818154811061109557600080fd5b6124f6612b0a565b6001600160a01b03811661255b5760405162461bcd60e51b815260206004820152602660248201527f4f776e61626c653a206e6577206f776e657220697320746865207a65726f206160448201526564647265737360d01b6064820152608401610a42565b61256481612e4d565b50565b6003546001600160a01b031633148061258a57506000546001600160a01b031633145b6125a65760405162461bcd60e51b8152600401610a42906132d0565b60005b600754811015610f7e576000600782815481106125c8576125c861331f565b60009182526020822001546001600160a01b031691506125e782612ece565b6001600160a01b038316600090815260056020908152604091829020825160a08101845260049091015460ff80821680845261010083048216948401949094526201000082048116948301949094526301000000810484166060830152600160201b9004909216608083015291925090156127205760015481516000916001600160a01b03169063a9059cbb9086906064906126869060ff168861334b565b6126909190613362565b6040516001600160e01b031960e085901b1681526001600160a01b03909216600483015260248201526044016020604051808303816000875af11580156126db573d6000803e3d6000fd5b505050506040513d601f19601f820116820180604052508101906126ff9190613384565b90508061271e5760405162461bcd60e51b8152600401610a42906133a1565b505b602081015160ff1615612779576001546020820151612777917f00000000000000000000000000000000000000000000000000000000000000009186916001600160a01b031690606490610e4e9060ff168861334b565b505b604081015160ff16156127d25760015460408201516127d0917f00000000000000000000000000000000000000000000000000000000000000009186916001600160a01b031690606490610e4e9060ff168861334b565b505b606081015160ff161561282b576001546060820151612829917f00000000000000000000000000000000000000000000000000000000000000009186916001600160a01b031690606490610e4e9060ff168861334b565b505b608081015160ff1615612884576001546080820151612882917f00000000000000000000000000000000000000000000000000000000000000009186916001600160a01b031690606490610e4e9060ff168861334b565b505b50505080612891906133d0565b90506125a9565b336000908152600560205260409020541515806128bf57506000546001600160a01b031633145b6129225760405162461bcd60e51b815260206004820152602e60248201527f4f6e6c7920656d706c6f79656573206f72206f776e65722063616e2063616c6c60448201526d103a3434b990333ab731ba34b7b760911b6064820152608401610a42565b6000805b6005811015612970578281600581106129415761294161331f565b6020020160208101906129549190613442565b61295e9083613476565b9150612969816133d0565b9050612926565b508060ff16606414612995576040516323f6fe9560e11b815260040160405180910390fd5b60006040518060a00160405280846000600581106129b5576129b561331f565b6020020160208101906129c89190613442565b60ff1681526020908101906129e39060408701908701613442565b60ff1681526020016129fb6060860160408701613442565b60ff168152602001612a136080860160608701613442565b60ff168152602001612a2b60a0860160808701613442565b60ff9081169091526001600160a01b03861660009081526005602090815260409182902084516004820180549387015187860151606089015160808a015194891661ffff1990971696909617610100928916929092029190911763ffff00001916620100009188169190910263ff0000001916176301000000948716949094029390931764ff000000001916600160201b919095160293909317905551919250907ff1b733b4ffbeebeed447e6723b5c2f7533921df48e7222b34e8cfa98893e403490612afb908790879061348f565b60405180910390a15050505050565b6000546001600160a01b031633146114f65760405162461bcd60e51b815260206004820181905260248201527f4f776e61626c653a2063616c6c6572206973206e6f7420746865206f776e65726044820152606401610a42565b60015460025460405163095ea7b360e01b81526001600160a01b03918216600482015260248101849052600092919091169063095ea7b3906044016020604051808303816000875af1158015612bbe573d6000803e3d6000fd5b505050506040513d601f19601f82011682018060405250810190612be29190613384565b5060015460025460405163a9059cbb60e01b81526001600160a01b03918216600482015260248101859052600092919091169063a9059cbb906044016020604051808303816000875af1158015612c3d573d6000803e3d6000fd5b505050506040513d601f19601f82011682018060405250810190612c619190613384565b905080612c805760405162461bcd60e51b8152600401610a42906133a1565b600254604051632578500b60e21b815267ffffffffffffffff881660048201526001600160a01b038781166024830152868116604483015260648201869052909116906395e1402c906084016020604051808303816000875af1158015612ceb573d6000803e3d6000fd5b505050506040513d601f19601f82011682018060405250810190612d0f919061345d565b604080516001600160a01b038816815267ffffffffffffffff891660208201529081018290529092507f6501a56449fa702afcee63b0dd88cbee358e2aaac6aa2abab4e508dbea9431439060600160405180910390a150949350505050565b80548210612d7a575050565b815b8154612d8a906001906133e9565b811015612e165781612d9d8260016134da565b81548110612dad57612dad61331f565b9060005260206000200160009054906101000a90046001600160a01b0316828281548110612ddd57612ddd61331f565b600091825260209091200180546001600160a01b0319166001600160a01b0392909216919091179055612e0f816133d0565b9050612d7c565b5080805480612e2757612e276134ed565b600082815260209020810160001990810180546001600160a01b03191690550190555050565b600080546001600160a01b038381166001600160a01b0319831681178455604051919092169283917f8be0079c531659141344cd1fd0a4f28419497f9722a3daafe3b4186f6b6457e09190a35050565b6001600160a01b038216600090815260056020526040812060020154612ec79060ff84169061334b565b9392505050565b6001600160a01b038116600090815260056020526040812060020154612ef690603490613362565b92915050565b6040518060c001604052806000801916815260200160006001600160a01b031681526020016000151581526020016000815260200160008152602001612f696040805160a08101825260008082526020820181905291810182905260608101829052608081019190915290565b905290565b6020808252825182820181905260009190848201906040850190845b81811015612faf5783516001600160a01b031683529284019291840191600101612f8a565b50909695505050505050565b60008060208385031215612fce57600080fd5b823567ffffffffffffffff80821115612fe657600080fd5b818501915085601f830112612ffa57600080fd5b81358181111561300957600080fd5b8660208260051b850101111561301e57600080fd5b60209290920196919550909350505050565b6001600160a01b038116811461256457600080fd5b60006020828403121561305757600080fd5b8135612ec781613030565b60ff815116825260ff602082015116602083015260ff604082015116604083015260ff606082015116606083015260ff60808201511660808301525050565b815181526020808301516001600160a01b031690820152604080830151151590820152606080830151908201526080808301519082015260a0808301516101408301916130f090840182613062565b5092915050565b60a08101612ef68284613062565b801515811461256457600080fd5b60008060006060848603121561312857600080fd5b833561313381613030565b9250602084013561314381613105565b929592945050506040919091013590565b60006020828403121561316657600080fd5b5035919050565b6000806040838503121561318057600080fd5b823561318b81613030565b9150602083013561319b81613030565b809150509250929050565b8681526001600160a01b03861660208201528415156040820152606081018490526080810183905261014081016131e060a0830184613062565b979650505050505050565b803560ff811681146131fc57600080fd5b919050565b6000806040838503121561321457600080fd5b823561321f81613030565b915061322d602084016131eb565b90509250929050565b6000806000806080858703121561324c57600080fd5b843567ffffffffffffffff8116811461326457600080fd5b9350602085013561327481613030565b9250604085013561328481613030565b9396929550929360600135925050565b60008060c083850312156132a757600080fd5b82356132b281613030565b915060c083018410156132c457600080fd5b50926020919091019150565b6020808252602f908201527f4f6e6c79206175746f6d6174696f6e206f72206f776e65722063616e2063616c60408201526e36103a3434b990333ab731ba34b7b760891b606082015260800190565b634e487b7160e01b600052603260045260246000fd5b634e487b7160e01b600052601160045260246000fd5b8082028115828204841417612ef657612ef6613335565b60008261337f57634e487b7160e01b600052601260045260246000fd5b500490565b60006020828403121561339657600080fd5b8151612ec781613105565b602080825260159082015274151bdad95b881d1c985b9cd9995c8819985a5b1959605a1b604082015260600190565b6000600182016133e2576133e2613335565b5060010190565b81810381811115612ef657612ef6613335565b60208082528181018390526000908460408401835b868110156134375760ff613424846131eb565b1682529183019190830190600101613411565b509695505050505050565b60006020828403121561345457600080fd5b612ec7826131eb565b60006020828403121561346f57600080fd5b5051919050565b60ff8181168382160190811115612ef657612ef6613335565b6001600160a01b038316815260c0810160208083018460005b60058110156134cf5760ff6134bc836131eb565b16835291830191908301906001016134a8565b505050509392505050565b80820180821115612ef657612ef6613335565b634e487b7160e01b600052603160045260246000fdfea26469706673582212205dbbd65158f5a4f5bd8d91e615ca59919b2a1d5915be45d8c99d389b9156041064736f6c63430008130033","linkReferences":{}},"methodIdentifiers":{"addEmployee(address,bool,uint256)":"91ac24c8","automationAddress()":"cdfa77ce","bnmToken()":"753b7ffe","ccip()":"7e77b36b","changePrimaryWalletAddress(address,address)":"5e0c0d80","employeeIds(bytes32)":"de59302c","employees(address)":"d0678947","gas_payAllSallaryEmployees()":"f59ae6e0","getAutomationAddress()":"d517c479","getEmployee(address)":"32648e09","getEmployeePaymentSplits(address)":"34a7bb48","getHourlyEmployees()":"14c710b5","getSalariedEmployees()":"05e26241","hourlyEmployeeIndex(address)":"9965ddee","hourlyEmployees(uint256)":"ec83e4aa","i_destinationChainIDdOP()":"ad7adc39","i_destinationChainIdAvax()":"f60233c2","i_destinationChainIdBnb()":"d386bfa0","i_destinationChainIdEth()":"7fb8c876","owner()":"8da5cb5b","pay(uint64,address,address,uint256)":"e4a92888","payAllEmployees(uint8[])":"2130854a","payAllHourlyEmployees(uint8[])":"d71ade14","payAllSallaryEmployees()":"5ac3505b","paySingleEmployee(address,uint8)":"e47f103a","paymentSplits(bytes32)":"8e479e4d","recieve()":"a9e10bf2","removeEmployee(address)":"d108177a","renounceOwnership()":"715018a6","salariedEmployeeIndex(address)":"64cb2ecb","salariedEmployees(uint256)":"5b1ae837","setAutomationAddress(address)":"e7dd96d2","setEmployeeSalary(address,bool,uint256)":"5afcc5da","setPaymentSplits(address,uint8[5])":"f84bd1aa","transferOwnership(address)":"f2fde38b","viewPaymentSplit(address)":"96d92e05","withdraw(address)":"51cff8d9"},"id":2}