{"abi":[{"type":"constructor","inputs":[{"name":"_router","type":"address","internalType":"address"},{"name":"_linkToken","type":"address","internalType":"address"},{"name":"_paymentToken","type":"address","internalType":"address"}],"stateMutability":"nonpayable"},{"type":"receive","stateMutability":"payable"},{"type":"function","name":"changeLinkToken","inputs":[{"name":"newLinkToken","type":"address","internalType":"address"}],"outputs":[],"stateMutability":"nonpayable"},{"type":"function","name":"changePaymentToken","inputs":[{"name":"newPaymentToken","type":"address","internalType":"address"}],"outputs":[],"stateMutability":"nonpayable"},{"type":"function","name":"changeRouter","inputs":[{"name":"newRouter","type":"address","internalType":"address"}],"outputs":[],"stateMutability":"nonpayable"},{"type":"function","name":"deployPayrollAndTokenTransferor","inputs":[],"outputs":[{"name":"payrollAddress","type":"address","internalType":"address"},{"name":"tokenTransferorAddress","type":"address","internalType":"address"}],"stateMutability":"payable"},{"type":"function","name":"deployment_fee","inputs":[],"outputs":[{"name":"","type":"uint256","internalType":"uint256"}],"stateMutability":"view"},{"type":"function","name":"linkToken","inputs":[],"outputs":[{"name":"","type":"address","internalType":"contract IERC20"}],"stateMutability":"view"},{"type":"function","name":"owner","inputs":[],"outputs":[{"name":"","type":"address","internalType":"address"}],"stateMutability":"view"},{"type":"function","name":"paymentToken","inputs":[],"outputs":[{"name":"","type":"address","internalType":"contract IERC20"}],"stateMutability":"view"},{"type":"function","name":"renounceOwnership","inputs":[],"outputs":[],"stateMutability":"nonpayable"},{"type":"function","name":"router","inputs":[],"outputs":[{"name":"","type":"address","internalType":"contract IRouterClient"}],"stateMutability":"view"},{"type":"function","name":"transferOwnership","inputs":[{"name":"newOwner","type":"address","internalType":"address"}],"outputs":[],"stateMutability":"nonpayable"},{"type":"function","name":"updateDeploymentFee","inputs":[{"name":"newFee","type":"uint256","internalType":"uint256"}],"outputs":[],"stateMutability":"nonpayable"},{"type":"function","name":"withdrawFees","inputs":[{"name":"_beneficiary","type":"address","internalType":"address payable"}],"outputs":[],"stateMutability":"nonpayable"},{"type":"event","name":"OwnershipTransferred","inputs":[{"name":"previousOwner","type":"address","indexed":true,"internalType":"address"},{"name":"newOwner","type":"address","indexed":true,"internalType":"address"}],"anonymous":false},{"type":"event","name":"PayrollDeployed","inputs":[{"name":"deployer","type":"address","indexed":true,"internalType":"address"},{"name":"contractAddress","type":"address","indexed":false,"internalType":"address"},{"name":"tokenTransferorAddress","type":"address","indexed":false,"internalType":"address"}],"anonymous":false},{"type":"event","name":"TokenTransferorDeployed","inputs":[{"name":"deployer","type":"address","indexed":true,"internalType":"address"},{"name":"contractAddress","type":"address","indexed":false,"internalType":"address"}],"anonymous":false},{"type":"error","name":"InsufficientFunds","inputs":[{"name":"amount","type":"uint256","internalType":"uint256"}]},{"type":"error","name":"InvalidAddress","inputs":[]}],"bytecode":{"object":"0x60806040526001805534801561001457600080fd5b50604051614bc0380380614bc0833981016040819052610033916100ea565b61003c3361007e565b600280546001600160a01b039485166001600160a01b03199182161790915560038054938516938216939093179092556004805491909316911617905561012d565b600080546001600160a01b038381166001600160a01b0319831681178455604051919092169283917f8be0079c531659141344cd1fd0a4f28419497f9722a3daafe3b4186f6b6457e09190a35050565b80516001600160a01b03811681146100e557600080fd5b919050565b6000806000606084860312156100ff57600080fd5b610108846100ce565b9250610116602085016100ce565b9150610124604085016100ce565b90509250925092565b614a848061013c6000396000f3fe6080604052600436106100c65760003560e01c8063715018a61161007f57806393634e8e1161005957806393634e8e14610208578063de8a4dbc14610228578063f2fde38b14610250578063f887ea401461027057600080fd5b8063715018a6146101b15780638b291478146101c65780638da5cb5b146101ea57600080fd5b8063164e68de146100d25780633013ce29146100f4578063340ac20f146101315780634558d71714610151578063499200db1461017157806357970e931461019157600080fd5b366100cd57005b600080fd5b3480156100de57600080fd5b506100f26100ed366004610723565b610290565b005b34801561010057600080fd5b50600454610114906001600160a01b031681565b6040516001600160a01b0390911681526020015b60405180910390f35b34801561013d57600080fd5b506100f261014c366004610723565b6102f8565b34801561015d57600080fd5b506100f261016c366004610723565b610322565b34801561017d57600080fd5b506100f261018c366004610747565b61034c565b34801561019d57600080fd5b50600354610114906001600160a01b031681565b3480156101bd57600080fd5b506100f2610359565b3480156101d257600080fd5b506101dc60015481565b604051908152602001610128565b3480156101f657600080fd5b506000546001600160a01b0316610114565b34801561021457600080fd5b506100f2610223366004610723565b61036d565b610230610397565b604080516001600160a01b03938416815292909116602083015201610128565b34801561025c57600080fd5b506100f261026b366004610723565b6103dd565b34801561027c57600080fd5b50600254610114906001600160a01b031681565b610298610456565b6001600160a01b0381166102bf5760405163e6c4247b60e01b815260040160405180910390fd5b6040516001600160a01b038216904780156108fc02916000818181858888f193505050501580156102f4573d6000803e3d6000fd5b5050565b610300610456565b600280546001600160a01b0319166001600160a01b0392909216919091179055565b61032a610456565b600480546001600160a01b0319166001600160a01b0392909216919091179055565b610354610456565b600155565b610361610456565b61036b60006104b0565b565b610375610456565b600380546001600160a01b0319166001600160a01b0392909216919091179055565b6000806001543410156103c4576040516365bc667160e11b81523460048201526024015b60405180910390fd5b6103cc610500565b90506103d7816105f9565b91509091565b6103e5610456565b6001600160a01b03811661044a5760405162461bcd60e51b815260206004820152602660248201527f4f776e61626c653a206e6577206f776e657220697320746865207a65726f206160448201526564647265737360d01b60648201526084016103bb565b610453816104b0565b50565b6000546001600160a01b0316331461036b5760405162461bcd60e51b815260206004820181905260248201527f4f776e61626c653a2063616c6c6572206973206e6f7420746865206f776e657260448201526064016103bb565b600080546001600160a01b038381166001600160a01b0319831681178455604051919092169283917f8be0079c531659141344cd1fd0a4f28419497f9722a3daafe3b4186f6b6457e09190a35050565b60025460035460405160009283926001600160a01b0391821692911690610526906106f4565b6001600160a01b03928316815291166020820152604001604051809103906000f080158015610559573d6000803e3d6000fd5b5060405163f2fde38b60e01b81523360048201529091506001600160a01b0382169063f2fde38b90602401600060405180830381600087803b15801561059e57600080fd5b505af11580156105b2573d6000803e3d6000fd5b50506040516001600160a01b03841681523392507f3bfd3315989a06cacf41d09a5b37eb6ad5e843031c4e00ed772ecb0a0057996c915060200160405180910390a2919050565b600454604051600091829184916001600160a01b03169061061990610701565b6001600160a01b03928316815291166020820152604001604051809103906000f08015801561064c573d6000803e3d6000fd5b5060405163f2fde38b60e01b81523360048201529091506001600160a01b0382169063f2fde38b90602401600060405180830381600087803b15801561069157600080fd5b505af11580156106a5573d6000803e3d6000fd5b5050604080516001600160a01b038581168252871660208201523393507fd4507971a9eab92ccf0d984d4bde19ba79cf50bbc7ed756e1725429cbbf46cc592500160405180910390a292915050565b6113858061076183390190565b612f6980611ae683390190565b6001600160a01b038116811461045357600080fd5b60006020828403121561073557600080fd5b81356107408161070e565b9392505050565b60006020828403121561075957600080fd5b503591905056fe608060405234801561001057600080fd5b5060405161138538038061138583398101604081905261002f916100f9565b6100383361008d565b600580546001600160a01b039384166001600160a01b0319918216179091556006805492909316911617905560408051808201909152600080825260209091018190526003556004805460ff1916905561012c565b600080546001600160a01b038381166001600160a01b0319831681178455604051919092169283917f8be0079c531659141344cd1fd0a4f28419497f9722a3daafe3b4186f6b6457e09190a35050565b80516001600160a01b03811681146100f457600080fd5b919050565b6000806040838503121561010c57600080fd5b610115836100dd565b9150610123602084016100dd565b90509250929050565b61124a8061013b6000396000f3fe6080604052600436106101025760003560e01c806362d6a806116100955780638da5cb5b116100645780638da5cb5b1461030957806395e1402c1461033157806396d3b83d14610351578063e43252d714610371578063f2fde38b1461039157600080fd5b806362d6a8061461027a5780636bc88d20146102b4578063715018a6146102d45780638ab1d681146102e957600080fd5b80633aeac4e1116100d15780633aeac4e1146101d15780633af32abf146101f357806351419b4b1461022c57806351cff8d91461025a57600080fd5b8063018df7e61461010e57806306c933d8146101465780630bb106eb1461018657806332703534146101b657600080fd5b3661010957005b600080fd5b34801561011a57600080fd5b5060035460045461012c919060ff1682565b604080519283529015156020830152015b60405180910390f35b34801561015257600080fd5b50610176610161366004610f6b565b60026020526000908152604090205460ff1681565b604051901515815260200161013d565b34801561019257600080fd5b506101766101a1366004610fa5565b60016020526000908152604090205460ff1681565b3480156101c257600080fd5b5060035460045460ff1661012c565b3480156101dd57600080fd5b506101f16101ec366004610fc0565b6103b1565b005b3480156101ff57600080fd5b5061017661020e366004610f6b565b6001600160a01b031660009081526002602052604090205460ff1690565b34801561023857600080fd5b5061024c610247366004610ff3565b6104c0565b60405190815260200161013d565b34801561026657600080fd5b506101f1610275366004610f6b565b610758565b34801561028657600080fd5b50610176610295366004610fa5565b67ffffffffffffffff1660009081526001602052604090205460ff1690565b3480156102c057600080fd5b506101f16102cf36600461104c565b610814565b3480156102e057600080fd5b506101f1610835565b3480156102f557600080fd5b506101f1610304366004610f6b565b610849565b34801561031557600080fd5b506000546040516001600160a01b03909116815260200161013d565b34801561033d57600080fd5b5061024c61034c366004610ff3565b610872565b34801561035d57600080fd5b506101f161036c36600461107c565b610c59565b34801561037d57600080fd5b506101f161038c366004610f6b565b610c8d565b34801561039d57600080fd5b506101f16103ac366004610f6b565b610cb9565b6103b9610d32565b6040516370a0823160e01b81523060048201526000906001600160a01b038316906370a0823190602401602060405180830381865afa158015610400573d6000803e3d6000fd5b505050506040513d601f19601f8201168201806040525081019061042491906110a8565b90508060000361044757604051630686827b60e51b815260040160405180910390fd5b60405163a9059cbb60e01b81526001600160a01b0384811660048301526024820183905283169063a9059cbb906044016020604051808303816000875af1158015610496573d6000803e3d6000fd5b505050506040513d601f19601f820116820180604052508101906104ba91906110c1565b50505050565b3360009081526002602052604081205460ff166104f757604051631191018560e11b81523360048201526024015b60405180910390fd5b67ffffffffffffffff8516600090815260016020526040902054859060ff1661053f57604051630a503cdb60e01b815267ffffffffffffffff821660048201526024016104ee565b600061054e8686866000610d8c565b6005546040516320487ded60e01b81529192506000916001600160a01b03909116906320487ded90610586908b908690600401611124565b602060405180830381865afa1580156105a3573d6000803e3d6000fd5b505050506040513d601f19601f820116820180604052508101906105c791906110a8565b9050478111156105f357604051634787a10360e11b8152476004820152602481018290526044016104ee565b60055460405163095ea7b360e01b81526001600160a01b039182166004820152602481018790529087169063095ea7b3906044016020604051808303816000875af1158015610646573d6000803e3d6000fd5b505050506040513d601f19601f8201168201806040525081019061066a91906110c1565b506005546040516396f4e9f960e01b81526001600160a01b03909116906396f4e9f990839061069f908c908790600401611124565b60206040518083038185885af11580156106bd573d6000803e3d6000fd5b50505050506040513d601f19601f820116820180604052508101906106e291906110a8565b604080516001600160a01b03808b16825289166020820152908101879052600060608201526080810183905290945067ffffffffffffffff89169085907fc15fb748c32ba4eb29c1c311e78533f93b4425eab49ea87c6fe4279ecadca0439060a0015b60405180910390a3505050949350505050565b610760610d32565b47600081900361078357604051630686827b60e51b815260040160405180910390fd5b6000826001600160a01b03168260405160006040518083038185875af1925050503d80600081146107d0576040519150601f19603f3d011682016040523d82523d6000602084013e6107d5565b606091505b505090508061080f57604051639d11f56360e01b81523360048201526001600160a01b0384166024820152604481018390526064016104ee565b505050565b61081c610d32565b6003919091556004805460ff1916911515919091179055565b61083d610d32565b6108476000610eff565b565b610851610d32565b6001600160a01b03166000908152600260205260409020805460ff19169055565b3360009081526002602052604081205460ff166108a457604051631191018560e11b81523360048201526024016104ee565b67ffffffffffffffff8516600090815260016020526040902054859060ff166108ec57604051630a503cdb60e01b815267ffffffffffffffff821660048201526024016104ee565b60065460009061090a908790879087906001600160a01b0316610d8c565b6005546040516320487ded60e01b81529192506000916001600160a01b03909116906320487ded90610942908b908690600401611124565b602060405180830381865afa15801561095f573d6000803e3d6000fd5b505050506040513d601f19601f8201168201806040525081019061098391906110a8565b6006546040516370a0823160e01b81523060048201529192506001600160a01b0316906370a0823190602401602060405180830381865afa1580156109cc573d6000803e3d6000fd5b505050506040513d601f19601f820116820180604052508101906109f091906110a8565b811115610a87576006546040516370a0823160e01b81523060048201526001600160a01b03909116906370a0823190602401602060405180830381865afa158015610a3f573d6000803e3d6000fd5b505050506040513d601f19601f82011682018060405250810190610a6391906110a8565b604051634787a10360e11b81526004810191909152602481018290526044016104ee565b60065460055460405163095ea7b360e01b81526001600160a01b0391821660048201526024810184905291169063095ea7b3906044016020604051808303816000875af1158015610adc573d6000803e3d6000fd5b505050506040513d601f19601f82011682018060405250810190610b0091906110c1565b5060055460405163095ea7b360e01b81526001600160a01b039182166004820152602481018790529087169063095ea7b3906044016020604051808303816000875af1158015610b54573d6000803e3d6000fd5b505050506040513d601f19601f82011682018060405250810190610b7891906110c1565b506005546040516396f4e9f960e01b81526001600160a01b03909116906396f4e9f990610bab908b908690600401611124565b6020604051808303816000875af1158015610bca573d6000803e3d6000fd5b505050506040513d601f19601f82011682018060405250810190610bee91906110a8565b600654604080516001600160a01b03808c168252808b166020830152918101899052911660608201526080810183905290945067ffffffffffffffff89169085907fc15fb748c32ba4eb29c1c311e78533f93b4425eab49ea87c6fe4279ecadca0439060a001610745565b610c61610d32565b67ffffffffffffffff919091166000908152600160205260409020805460ff1916911515919091179055565b610c95610d32565b6001600160a01b03166000908152600260205260409020805460ff19166001179055565b610cc1610d32565b6001600160a01b038116610d265760405162461bcd60e51b815260206004820152602660248201527f4f776e61626c653a206e6577206f776e657220697320746865207a65726f206160448201526564647265737360d01b60648201526084016104ee565b610d2f81610eff565b50565b6000546001600160a01b031633146108475760405162461bcd60e51b815260206004820181905260248201527f4f776e61626c653a2063616c6c6572206973206e6f7420746865206f776e657260448201526064016104ee565b610dc76040518060a0016040528060608152602001606081526020016060815260200160006001600160a01b03168152602001606081525090565b604080516001808252818301909252600091816020015b6040805180820190915260008082526020820152815260200190600190039081610dde5790505090506040518060400160405280866001600160a01b031681526020018581525081600081518110610e3857610e386111fe565b6020908102919091018101919091526040805160a0810182526001600160a01b0389811660c0808401919091528351808403909101815260e0830184528252825180850184526000815282850152818301859052861660608201528151808301835260035480825260045460ff161515918501918252835160248101919091529051151560448083019190915283518083039091018152606490910190925291810180516001600160e01b03166397a657c960e01b17905260808201529695505050505050565b600080546001600160a01b038381166001600160a01b0319831681178455604051919092169283917f8be0079c531659141344cd1fd0a4f28419497f9722a3daafe3b4186f6b6457e09190a35050565b80356001600160a01b0381168114610f6657600080fd5b919050565b600060208284031215610f7d57600080fd5b610f8682610f4f565b9392505050565b803567ffffffffffffffff81168114610f6657600080fd5b600060208284031215610fb757600080fd5b610f8682610f8d565b60008060408385031215610fd357600080fd5b610fdc83610f4f565b9150610fea60208401610f4f565b90509250929050565b6000806000806080858703121561100957600080fd5b61101285610f8d565b935061102060208601610f4f565b925061102e60408601610f4f565b9396929550929360600135925050565b8015158114610d2f57600080fd5b6000806040838503121561105f57600080fd5b8235915060208301356110718161103e565b809150509250929050565b6000806040838503121561108f57600080fd5b61109883610f8d565b915060208301356110718161103e565b6000602082840312156110ba57600080fd5b5051919050565b6000602082840312156110d357600080fd5b8151610f868161103e565b6000815180845260005b81811015611104576020818501810151868301820152016110e8565b506000602082860101526020601f19601f83011685010191505092915050565b6000604067ffffffffffffffff8516835260208181850152845160a08386015261115160e08601826110de565b905081860151603f198087840301606088015261116e83836110de565b88860151888203830160808a01528051808352908601945060009350908501905b808410156111c157845180516001600160a01b031683528601518683015293850193600193909301929086019061118f565b5060608901516001600160a01b031660a08901526080890151888203830160c08a015295506111f081876110de565b9a9950505050505050505050565b634e487b7160e01b600052603260045260246000fdfea2646970667358221220871e75d997b224158730c528badd26f61a1cdb534c661d6366bb8eff251009b864736f6c6343000813003361010060405267de41ba4fc9d91ad96080526724f9b897ef58a92260a05267ccf0a31a221f3c9b60c05267b8159170038f96fb60e0523480156200004257600080fd5b5060405162002f6938038062002f6983398101604081905262000065916200010f565b6200007033620000a2565b600280546001600160a01b039384166001600160a01b0319918216179091556001805492909316911617905562000147565b600080546001600160a01b038381166001600160a01b0319831681178455604051919092169283917f8be0079c531659141344cd1fd0a4f28419497f9722a3daafe3b4186f6b6457e09190a35050565b80516001600160a01b03811681146200010a57600080fd5b919050565b600080604083850312156200012357600080fd5b6200012e83620000f2565b91506200013e60208401620000f2565b90509250929050565b60805160a05160c05160e051612d94620001d56000396000818161071801528181610e3001528181611d4301526120cb01526000818161086f01528181610dd701528181611cea01526120720152600081816105df01528181610d7e01528181611c91015261201901526000818161049c01528181610d1601528181611c380152611fc00152612d946000f3fe6080604052600436106101f95760003560e01c80638e479e4d1161010d578063d108177a116100a0578063e47f103a1161006f578063e47f103a146107fd578063ec83e4aa1461081d578063f2fde38b1461083d578063f60233c21461085d578063f84bd1aa1461089157600080fd5b8063d108177a146106e6578063d386bfa014610706578063d71ade141461073a578063de59302c1461075a57600080fd5b8063a9e10bf2116100dc578063a9e10bf21461025e578063ad7adc39146105cd578063c233d2e214610601578063d06789471461063157600080fd5b80638e479e4d146104f557806391ac24c81461058057806396d92e051461028d5780639965ddee146105a057600080fd5b80635b1ae83711610190578063753b7ffe1161015f578063753b7ffe1461044a5780637e77b36b1461046a5780637fb8c8761461048a578063893d20e8146104d75780638da5cb5b146104d757600080fd5b80635b1ae837146103a25780635e0c0d80146103da57806364cb2ecb146103fa578063715018a61461043557600080fd5b806334a7bb48116101cc57806334a7bb481461028d57806351cff8d91461034d5780635ac3505b1461036d5780635afcc5da1461038257600080fd5b806305e26241146101fe57806314c710b5146102295780632130854a1461023e57806332648e0914610260575b600080fd5b34801561020a57600080fd5b506102136108b1565b604051610220919061288d565b60405180910390f35b34801561023557600080fd5b50610213610913565b34801561024a57600080fd5b5061025e6102593660046128da565b610973565b005b34801561026c57600080fd5b5061028061027b366004612964565b6109ba565b60405161022091906129c0565b34801561029957600080fd5b506103406102a8366004612964565b6040805160a081018252600080825260208201819052918101829052606081018290526080810191909152506001600160a01b0316600090815260046020908152604091829020825160a08101845260039091015460ff808216835261010082048116938301939093526201000081048316938201939093526301000000830482166060820152600160201b90920416608082015290565b6040516102209190612a0c565b34801561035957600080fd5b5061025e610368366004612964565b610a72565b34801561037957600080fd5b5061025e610b79565b34801561038e57600080fd5b5061025e61039d366004612a28565b610eae565b3480156103ae57600080fd5b506103c26103bd366004612a69565b610f7d565b6040516001600160a01b039091168152602001610220565b3480156103e657600080fd5b5061025e6103f5366004612a82565b610fa7565b34801561040657600080fd5b50610427610415366004612964565b60076020526000908152604090205481565b604051908152602001610220565b34801561044157600080fd5b5061025e6113b5565b34801561045657600080fd5b506001546103c2906001600160a01b031681565b34801561047657600080fd5b506002546103c2906001600160a01b031681565b34801561049657600080fd5b506104be7f000000000000000000000000000000000000000000000000000000000000000081565b60405167ffffffffffffffff9091168152602001610220565b3480156104e357600080fd5b506000546001600160a01b03166103c2565b34801561050157600080fd5b5061054c610510366004612a69565b60056020526000908152604090205460ff80821691610100810482169162010000820481169163010000008104821691600160201b9091041685565b6040805160ff968716815294861660208601529285169284019290925283166060830152909116608082015260a001610220565b34801561058c57600080fd5b5061025e61059b366004612a28565b6113c9565b3480156105ac57600080fd5b506104276105bb366004612964565b60096020526000908152604090205481565b3480156105d957600080fd5b506104be7f000000000000000000000000000000000000000000000000000000000000000081565b34801561060d57600080fd5b5061062161061c366004612964565b6118dd565b6040519015158152602001610220565b34801561063d57600080fd5b506106d561064c366004612964565b600460209081526000918252604091829020805460018201546002830154855160a08101875260039094015460ff808216865261010082048116968601969096526201000081048616968501969096526301000000860485166060850152600160201b9095048416608084015290936001600160a01b03821693600160a01b9092049091169185565b604051610220959493929190612abb565b3480156106f257600080fd5b5061025e610701366004612964565b611911565b34801561071257600080fd5b506104be7f000000000000000000000000000000000000000000000000000000000000000081565b34801561074657600080fd5b5061025e6107553660046128da565b611a4e565b34801561076657600080fd5b506106d5610775366004612a69565b600360208181526000928352604092839020805460018201546002830154865160a081018852939095015460ff808216855261010082048116958501959095526201000081048516968401969096526301000000860484166060840152600160201b90950483166080830152936001600160a01b03811693600160a01b909104909216919085565b34801561080957600080fd5b5061025e610818366004612b09565b611dc3565b34801561082957600080fd5b506103c2610838366004612a69565b612151565b34801561084957600080fd5b5061025e610858366004612964565b612161565b34801561086957600080fd5b506104be7f000000000000000000000000000000000000000000000000000000000000000081565b34801561089d57600080fd5b5061025e6108ac366004612b3e565b6121da565b6060600680548060200260200160405190810160405280929190818152602001828054801561090957602002820191906000526020600020905b81546001600160a01b031681526001909101906020018083116108eb575b5050505050905090565b60606008805480602002602001604051908101604052809291908181526020018280548015610909576020028201919060005260206000209081546001600160a01b031681526001909101906020018083116108eb575050505050905090565b61097b61243d565b610983610b79565b61098d8282611a4e565b6040517fe408f9fbc619e5d2ca44c1a356e4c2eb37b1f23a8062156c7452ec7f3072a09390600090a15050565b6109c261282f565b506001600160a01b03908116600090815260046020908152604091829020825160a080820185528254825260018301549586168285015260ff600160a01b90960486161515828601526002830154606080840191909152855191820186526003909301548087168252610100810487169482019490945262010000840486169481019490945263010000008304851691840191909152600160201b90910490921660808281019190915282015290565b610a7a61243d565b6001600160a01b038116610aa15760405163e6c4247b60e01b815260040160405180910390fd5b60405147906000906001600160a01b0384169083908381818185875af1925050503d8060008114610aee576040519150601f19603f3d011682016040523d82523d6000602084013e610af3565b606091505b5050905080610b405760405162461bcd60e51b81526020600482015260146024820152732330b4b632b2103a379039b2b7321022ba3432b960611b60448201526064015b60405180910390fd5b6040518281527f39f8b889424a1684bd36857c25ab79691ed71adf60bbeca32820cb4de3c5884c906020015b60405180910390a1505050565b610b8161243d565b60005b600654811015610e8257600060068281548110610ba357610ba3612b7a565b60009182526020822001546001600160a01b03169150610bc282612497565b6001600160a01b038316600090815260046020908152604091829020825160a08101845260039091015460ff80821680845261010083048216948401949094526201000082048116948301949094526301000000810484166060830152600160201b900490921660808301529192509015610cfb5760015481516000916001600160a01b03169063a9059cbb908690606490610c619060ff1688612ba6565b610c6b9190612bbd565b6040516001600160e01b031960e085901b1681526001600160a01b03909216600483015260248201526044016020604051808303816000875af1158015610cb6573d6000803e3d6000fd5b505050506040513d601f19601f82011682018060405250810190610cda9190612bdf565b905080610cf95760405162461bcd60e51b8152600401610b3790612bfc565b505b602081015160ff1615610d63576001546020820151610d61917f00000000000000000000000000000000000000000000000000000000000000009186916001600160a01b031690606490610d529060ff1688612ba6565b610d5c9190612bbd565b6124c5565b505b604081015160ff1615610dbc576001546040820151610dba917f00000000000000000000000000000000000000000000000000000000000000009186916001600160a01b031690606490610d529060ff1688612ba6565b505b606081015160ff1615610e15576001546060820151610e13917f00000000000000000000000000000000000000000000000000000000000000009186916001600160a01b031690606490610d529060ff1688612ba6565b505b608081015160ff1615610e6e576001546080820151610e6c917f00000000000000000000000000000000000000000000000000000000000000009186916001600160a01b031690606490610d529060ff1688612ba6565b505b50505080610e7b90612c2b565b9050610b84565b506040517f1747d57e65e669e1aee8c41fd5df94e26df3137ce98fa92a33de2c037705083490600090a1565b610eb661243d565b6001600160a01b038316610edd5760405163e6c4247b60e01b815260040160405180910390fd5b6001600160a01b0383166000908152600460205260408120549003610f15576040516312636c6d60e21b815260040160405180910390fd5b6001600160a01b03831660008181526004602090815260409182902060018101805460ff60a01b1916600160a01b8815150217905560020184905590519182527fcbe1ac3a739a6056ceab8ccc2fdf1eb8bc778acad285b3dd81099b438cd8e9079101610b6c565b60068181548110610f8d57600080fd5b6000918252602090912001546001600160a01b0316905081565b3360009081526004602052604081205490036110135760405162461bcd60e51b815260206004820152602560248201527f4f6e6c7920656d706c6f796565732063616e2063616c6c20746869732066756e60448201526431ba34b7b760d91b6064820152608401610b37565b6001600160a01b03811661103a5760405163e6c4247b60e01b815260040160405180910390fd5b6001600160a01b0382166000908152600460205260408120549003611072576040516312636c6d60e21b815260040160405180910390fd5b6001600160a01b038083166000818152600460208181526040808420815160a0808201845282548252600180840154808b1684880190815260ff600160a01b90920482161515858801819052600287015460608088019190915288519586018952600390970154808416865261010081048416868b015262010000810484169886019890985263010000008804831696850196909652600160201b90960416608083810191909152830191909152978916909252949093525291036111d0576001600160a01b0383166000908152600760205260409020546111558160066126cf565b600680546001808201835560008381527ff652222313e28459528d920b65115c16c04f3efc82aaedc97be59f3f377c0d3f90920180546001600160a01b0319166001600160a01b038816179055915490916111af91612c44565b6001600160a01b0385166000908152600760205260409020555061126a9050565b6001600160a01b0383166000908152600960205260409020546111f48160086126cf565b600880546001808201835560008381527ff3f7a9fe364faab93b216da50a3214154f22a0a2b415b23a84c8169e8b636ee390920180546001600160a01b0319166001600160a01b0388161790559154909161124e91612c44565b6001600160a01b03851660009081526009602052604090205550505b6001600160a01b038084166000908152600460209081526040808320838155600180820180546001600160a81b031990811690915560028084018790556003938401805464ffffffffff19169055898816875295849020885181558886015192810180548a8701511515600160a01b029316939098169290921717909555606080870151948601949094556080808701518051969092018054948301518385015196840151939092015160ff908116600160201b02938116630100000002968116620100000263ff000000191663ffff0000199382166101000261ffff199790971698909116979097179490941716949094179290921764ff00000000191692909217909155517f5555e92e6e43fa030c858b58d55eb7229f493a44dc66f35b2eec1ac27da6450a90610b6c90859085906001600160a01b0392831681529116602082015260400190565b6113bd61243d565b6113c760006127ae565b565b6113d161243d565b6001600160a01b0383166113f85760405163e6c4247b60e01b815260040160405180910390fd5b6001600160a01b0383166000908152600460205260409020541561142f5760405163117059fd60e21b815260040160405180910390fd5b6000546001600160a01b03166001600160a01b0316836001600160a01b03160361146c57604051630e216b2f60e01b815260040160405180910390fd5b8060000361148d5760405163b4c339fd60e01b815260040160405180910390fd5b6040516bffffffffffffffffffffffff19606085901b16602082015242603482015260009060540160405160208183030381529060405280519060200120905060006040518060a00160405280838152602001866001600160a01b0316815260200185151581526020018481526020016040518060a00160405280606460ff168152602001600060ff168152602001600060ff168152602001600060ff168152602001600060ff1681525081525090508060046000876001600160a01b03166001600160a01b031681526020019081526020016000206000820151816000015560208201518160010160006101000a8154816001600160a01b0302191690836001600160a01b0316021790555060408201518160010160146101000a81548160ff0219169083151502179055506060820151816002015560808201518160030160008201518160000160006101000a81548160ff021916908360ff16021790555060208201518160000160016101000a81548160ff021916908360ff16021790555060408201518160000160026101000a81548160ff021916908360ff16021790555060608201518160000160036101000a81548160ff021916908360ff16021790555060808201518160000160046101000a81548160ff021916908360ff160217905550505090505080600360008481526020019081526020016000206000820151816000015560208201518160010160006101000a8154816001600160a01b0302191690836001600160a01b0316021790555060408201518160010160146101000a81548160ff0219169083151502179055506060820151816002015560808201518160030160008201518160000160006101000a81548160ff021916908360ff16021790555060208201518160000160016101000a81548160ff021916908360ff16021790555060408201518160000160026101000a81548160ff021916908360ff16021790555060608201518160000160036101000a81548160ff021916908360ff16021790555060808201518160000160046101000a81548160ff021916908360ff1602179055505050905050831515600115150361182457600680546001808201835560008381527ff652222313e28459528d920b65115c16c04f3efc82aaedc97be59f3f377c0d3f90920180546001600160a01b0319166001600160a01b038a161790559154909161180591612c44565b6001600160a01b03871660009081526007602052604090205550611899565b600880546001808201835560008381527ff3f7a9fe364faab93b216da50a3214154f22a0a2b415b23a84c8169e8b636ee390920180546001600160a01b0319166001600160a01b038a161790559154909161187e91612c44565b6001600160a01b038716600090815260096020526040902055505b6040516001600160a01b03861681527f041109cfe10cfa549abb66b986d0a294ecc6c9ad39000abcb9c2afd422c8bd64906020015b60405180910390a15050505050565b6001600160a01b038116600090815260046020526040812054810361190457506000919050565b506001919050565b919050565b61191961243d565b6001600160a01b0381166000908152600460205260408120549003611951576040516312636c6d60e21b815260040160405180910390fd5b6001600160a01b0381166000908152600460205260409020600180820154600160a01b900460ff16151590036119ab576001600160a01b0382166000908152600760205260409020546119a58160066126cf565b506119d1565b6001600160a01b0382166000908152600960205260409020546119cf8160086126cf565b505b6001600160a01b03821660008181526004602090815260408083208381556001810180546001600160a81b031916905560028101939093556003909201805464ffffffffff1916905590519182527fc34a832d757b9fb8d21f0fa1ffd683119f285dc6472ac419b8c1bbb81c4a8ca0910160405180910390a15050565b611a5661243d565b6008548114611a7c5781816040516321c5b13b60e01b8152600401610b37929190612c57565b60005b600854811015611d9557600060088281548110611a9e57611a9e612b7a565b60009182526020822001546001600160a01b03169150611ae482868686818110611aca57611aca612b7a565b9050602002016020810190611adf9190612c9d565b6127fe565b6001600160a01b038316600090815260046020908152604091829020825160a08101845260039091015460ff80821680845261010083048216948401949094526201000082048116948301949094526301000000810484166060830152600160201b900490921660808301529192509015611c1d5760015481516000916001600160a01b03169063a9059cbb908690606490611b839060ff1688612ba6565b611b8d9190612bbd565b6040516001600160e01b031960e085901b1681526001600160a01b03909216600483015260248201526044016020604051808303816000875af1158015611bd8573d6000803e3d6000fd5b505050506040513d601f19601f82011682018060405250810190611bfc9190612bdf565b905080611c1b5760405162461bcd60e51b8152600401610b3790612bfc565b505b602081015160ff1615611c76576001546020820151611c74917f00000000000000000000000000000000000000000000000000000000000000009186916001600160a01b031690606490610d529060ff1688612ba6565b505b604081015160ff1615611ccf576001546040820151611ccd917f00000000000000000000000000000000000000000000000000000000000000009186916001600160a01b031690606490610d529060ff1688612ba6565b505b606081015160ff1615611d28576001546060820151611d26917f00000000000000000000000000000000000000000000000000000000000000009186916001600160a01b031690606490610d529060ff1688612ba6565b505b608081015160ff1615611d81576001546080820151611d7f917f00000000000000000000000000000000000000000000000000000000000000009186916001600160a01b031690606490610d529060ff1688612ba6565b505b50505080611d8e90612c2b565b9050611a7f565b506040517fa99f64305c0d90bd344c32396b923e0ac8a8b7e50103404260d4dd3dbd38511c90600090a15050565b611dcb61243d565b6001600160a01b038216611df25760405163e6c4247b60e01b815260040160405180910390fd5b6001600160a01b0382166000908152600460205260408120549003611e2a576040516312636c6d60e21b815260040160405180910390fd5b6001600160a01b038216600090815260046020526040812060010154600160a01b900460ff16611e6357611e5e83836127fe565b611e6c565b611e6c83612497565b6001600160a01b038416600090815260046020908152604091829020825160a08101845260039091015460ff80821680845261010083048216948401949094526201000082048116948301949094526301000000810484166060830152600160201b900490921660808301529192509015611fa55760015481516000916001600160a01b03169063a9059cbb908790606490611f0b9060ff1688612ba6565b611f159190612bbd565b6040516001600160e01b031960e085901b1681526001600160a01b03909216600483015260248201526044016020604051808303816000875af1158015611f60573d6000803e3d6000fd5b505050506040513d601f19601f82011682018060405250810190611f849190612bdf565b905080611fa35760405162461bcd60e51b8152600401610b3790612bfc565b505b602081015160ff1615611ffe576001546020820151611ffc917f00000000000000000000000000000000000000000000000000000000000000009187916001600160a01b031690606490610d529060ff1688612ba6565b505b604081015160ff1615612057576001546040820151612055917f00000000000000000000000000000000000000000000000000000000000000009187916001600160a01b031690606490610d529060ff1688612ba6565b505b606081015160ff16156120b05760015460608201516120ae917f00000000000000000000000000000000000000000000000000000000000000009187916001600160a01b031690606490610d529060ff1688612ba6565b505b608081015160ff1615612109576001546080820151612107917f00000000000000000000000000000000000000000000000000000000000000009187916001600160a01b031690606490610d529060ff1688612ba6565b505b604080516001600160a01b0386168152602081018490527f8e5857bb83f52e5f709290339eee483421b96fa61acfcb733cbf043255537c8b910160405180910390a150505050565b60088181548110610f8d57600080fd5b61216961243d565b6001600160a01b0381166121ce5760405162461bcd60e51b815260206004820152602660248201527f4f776e61626c653a206e6577206f776e657220697320746865207a65726f206160448201526564647265737360d01b6064820152608401610b37565b6121d7816127ae565b50565b3360009081526004602052604090205415158061220157506000546001600160a01b031633145b6122645760405162461bcd60e51b815260206004820152602e60248201527f4f6e6c7920656d706c6f79656573206f72206f776e65722063616e2063616c6c60448201526d103a3434b990333ab731ba34b7b760911b6064820152608401610b37565b6000805b60058110156122b25782816005811061228357612283612b7a565b6020020160208101906122969190612c9d565b6122a09083612cb8565b91506122ab81612c2b565b9050612268565b508060ff166064146122d7576040516323f6fe9560e11b815260040160405180910390fd5b60006040518060a00160405280846000600581106122f7576122f7612b7a565b60200201602081019061230a9190612c9d565b60ff1681526020908101906123259060408701908701612c9d565b60ff16815260200161233d6060860160408701612c9d565b60ff1681526020016123556080860160608701612c9d565b60ff16815260200161236d60a0860160808701612c9d565b60ff9081169091526001600160a01b03861660009081526004602090815260409182902084516003820180549387015187860151606089015160808a015194891661ffff1990971696909617610100928916929092029190911763ffff00001916620100009188169190910263ff0000001916176301000000948716949094029390931764ff000000001916600160201b919095160293909317905551919250907ff1b733b4ffbeebeed447e6723b5c2f7533921df48e7222b34e8cfa98893e4034906118ce9087908790612cd1565b6000546001600160a01b031633146113c75760405162461bcd60e51b815260206004820181905260248201527f4f776e61626c653a2063616c6c6572206973206e6f7420746865206f776e65726044820152606401610b37565b6001600160a01b0381166000908152600460205260408120600201546124bf90603490612bbd565b92915050565b60015460025460405163095ea7b360e01b81526001600160a01b03918216600482015260248101849052600092919091169063095ea7b3906044016020604051808303816000875af115801561251f573d6000803e3d6000fd5b505050506040513d601f19601f820116820180604052508101906125439190612bdf565b5060015460025460405163a9059cbb60e01b81526001600160a01b03918216600482015260248101859052600092919091169063a9059cbb906044016020604051808303816000875af115801561259e573d6000803e3d6000fd5b505050506040513d601f19601f820116820180604052508101906125c29190612bdf565b9050806125e15760405162461bcd60e51b8152600401610b3790612bfc565b6002546040516351419b4b60e01b815267ffffffffffffffff881660048201526001600160a01b038781166024830152868116604483015260648201869052909116906351419b4b906084016020604051808303816000875af115801561264c573d6000803e3d6000fd5b505050506040513d601f19601f820116820180604052508101906126709190612d1c565b604080516001600160a01b038816815267ffffffffffffffff891660208201529081018290529092507f6501a56449fa702afcee63b0dd88cbee358e2aaac6aa2abab4e508dbea9431439060600160405180910390a150949350505050565b805482106126db575050565b815b81546126eb90600190612c44565b81101561277757816126fe826001612d35565b8154811061270e5761270e612b7a565b9060005260206000200160009054906101000a90046001600160a01b031682828154811061273e5761273e612b7a565b600091825260209091200180546001600160a01b0319166001600160a01b039290921691909117905561277081612c2b565b90506126dd565b508080548061278857612788612d48565b600082815260209020810160001990810180546001600160a01b03191690550190555050565b600080546001600160a01b038381166001600160a01b0319831681178455604051919092169283917f8be0079c531659141344cd1fd0a4f28419497f9722a3daafe3b4186f6b6457e09190a35050565b6001600160a01b0382166000908152600460205260408120600201546128289060ff841690612ba6565b9392505050565b6040805160a0810182526000808252602082018190529181018290526060810191909152608081016128886040805160a08101825260008082526020820181905291810182905260608101829052608081019190915290565b905290565b6020808252825182820181905260009190848201906040850190845b818110156128ce5783516001600160a01b0316835292840192918401916001016128a9565b50909695505050505050565b600080602083850312156128ed57600080fd5b823567ffffffffffffffff8082111561290557600080fd5b818501915085601f83011261291957600080fd5b81358181111561292857600080fd5b8660208260051b850101111561293d57600080fd5b60209290920196919550909350505050565b6001600160a01b03811681146121d757600080fd5b60006020828403121561297657600080fd5b81356128288161294f565b60ff815116825260ff602082015116602083015260ff604082015116604083015260ff606082015116606083015260ff60808201511660808301525050565b815181526020808301516001600160a01b03169082015260408083015115159082015260608083015190820152608080830151610120830191612a0590840182612981565b5092915050565b60a081016124bf8284612981565b80151581146121d757600080fd5b600080600060608486031215612a3d57600080fd5b8335612a488161294f565b92506020840135612a5881612a1a565b929592945050506040919091013590565b600060208284031215612a7b57600080fd5b5035919050565b60008060408385031215612a9557600080fd5b8235612aa08161294f565b91506020830135612ab08161294f565b809150509250929050565b8581526001600160a01b03851660208201528315156040820152606081018390526101208101612aee6080830184612981565b9695505050505050565b803560ff8116811461190c57600080fd5b60008060408385031215612b1c57600080fd5b8235612b278161294f565b9150612b3560208401612af8565b90509250929050565b60008060c08385031215612b5157600080fd5b8235612b5c8161294f565b915060c08301841015612b6e57600080fd5b50926020919091019150565b634e487b7160e01b600052603260045260246000fd5b634e487b7160e01b600052601160045260246000fd5b80820281158282048414176124bf576124bf612b90565b600082612bda57634e487b7160e01b600052601260045260246000fd5b500490565b600060208284031215612bf157600080fd5b815161282881612a1a565b602080825260159082015274151bdad95b881d1c985b9cd9995c8819985a5b1959605a1b604082015260600190565b600060018201612c3d57612c3d612b90565b5060010190565b818103818111156124bf576124bf612b90565b60208082528181018390526000908460408401835b86811015612c925760ff612c7f84612af8565b1682529183019190830190600101612c6c565b509695505050505050565b600060208284031215612caf57600080fd5b61282882612af8565b60ff81811683821601908111156124bf576124bf612b90565b6001600160a01b038316815260c0810160208083018460005b6005811015612d115760ff612cfe83612af8565b1683529183019190830190600101612cea565b505050509392505050565b600060208284031215612d2e57600080fd5b5051919050565b808201808211156124bf576124bf612b90565b634e487b7160e01b600052603160045260246000fdfea26469706673582212204c8543d3ea9b0bfd442ddda015b1de121b4c102e85af590dffbd5869b9bd1c1464736f6c63430008130033a2646970667358221220242da14b5fedd57df414242fab68477cda37b2da66d7a84c0376afb1185280f464736f6c63430008130033","linkReferences":{}},"methodIdentifiers":{"changeLinkToken(address)":"93634e8e","changePaymentToken(address)":"4558d717","changeRouter(address)":"340ac20f","deployPayrollAndTokenTransferor()":"de8a4dbc","deployment_fee()":"8b291478","linkToken()":"57970e93","owner()":"8da5cb5b","paymentToken()":"3013ce29","renounceOwnership()":"715018a6","router()":"f887ea40","transferOwnership(address)":"f2fde38b","updateDeploymentFee(uint256)":"499200db","withdrawFees(address)":"164e68de"},"id":1}