{"abi":[{"type":"constructor","inputs":[{"name":"_router","type":"address","internalType":"address"},{"name":"_link","type":"address","internalType":"address"}],"stateMutability":"nonpayable"},{"type":"receive","stateMutability":"payable"},{"type":"function","name":"addToWhitelist","inputs":[{"name":"_address","type":"address","internalType":"address"}],"outputs":[],"stateMutability":"nonpayable"},{"type":"function","name":"allowlistDestinationChain","inputs":[{"name":"_destinationChainSelector","type":"uint64","internalType":"uint64"},{"name":"allowed","type":"bool","internalType":"bool"}],"outputs":[],"stateMutability":"nonpayable"},{"type":"function","name":"allowlistedChains","inputs":[{"name":"","type":"uint64","internalType":"uint64"}],"outputs":[{"name":"","type":"bool","internalType":"bool"}],"stateMutability":"view"},{"type":"function","name":"currentExtraArgs","inputs":[],"outputs":[{"name":"gasLimit","type":"uint256","internalType":"uint256"},{"name":"strict","type":"bool","internalType":"bool"}],"stateMutability":"view"},{"type":"function","name":"getExtraArgs","inputs":[],"outputs":[{"name":"","type":"uint256","internalType":"uint256"},{"name":"","type":"bool","internalType":"bool"}],"stateMutability":"view"},{"type":"function","name":"isChainIdAllowed","inputs":[{"name":"_chainId","type":"uint64","internalType":"uint64"}],"outputs":[{"name":"","type":"bool","internalType":"bool"}],"stateMutability":"view"},{"type":"function","name":"isWhitelisted","inputs":[{"name":"_address","type":"address","internalType":"address"}],"outputs":[{"name":"","type":"bool","internalType":"bool"}],"stateMutability":"view"},{"type":"function","name":"owner","inputs":[],"outputs":[{"name":"","type":"address","internalType":"address"}],"stateMutability":"view"},{"type":"function","name":"removeFromWhitelist","inputs":[{"name":"_address","type":"address","internalType":"address"}],"outputs":[],"stateMutability":"nonpayable"},{"type":"function","name":"renounceOwnership","inputs":[],"outputs":[],"stateMutability":"nonpayable"},{"type":"function","name":"transferOwnership","inputs":[{"name":"newOwner","type":"address","internalType":"address"}],"outputs":[],"stateMutability":"nonpayable"},{"type":"function","name":"transferTokensPayLINK","inputs":[{"name":"_destinationChainSelector","type":"uint64","internalType":"uint64"},{"name":"_receiver","type":"address","internalType":"address"},{"name":"_token","type":"address","internalType":"address"},{"name":"_amount","type":"uint256","internalType":"uint256"}],"outputs":[{"name":"messageId","type":"bytes32","internalType":"bytes32"}],"stateMutability":"nonpayable"},{"type":"function","name":"transferTokensPayNative","inputs":[{"name":"_destinationChainSelector","type":"uint64","internalType":"uint64"},{"name":"_receiver","type":"address","internalType":"address"},{"name":"_token","type":"address","internalType":"address"},{"name":"_amount","type":"uint256","internalType":"uint256"}],"outputs":[{"name":"messageId","type":"bytes32","internalType":"bytes32"}],"stateMutability":"nonpayable"},{"type":"function","name":"updateExtraArgs","inputs":[{"name":"_gasLimit","type":"uint256","internalType":"uint256"},{"name":"_strict","type":"bool","internalType":"bool"}],"outputs":[],"stateMutability":"nonpayable"},{"type":"function","name":"whitelistedAddresses","inputs":[{"name":"","type":"address","internalType":"address"}],"outputs":[{"name":"","type":"bool","internalType":"bool"}],"stateMutability":"view"},{"type":"function","name":"withdraw","inputs":[{"name":"_beneficiary","type":"address","internalType":"address"}],"outputs":[],"stateMutability":"nonpayable"},{"type":"function","name":"withdrawToken","inputs":[{"name":"_beneficiary","type":"address","internalType":"address"},{"name":"_token","type":"address","internalType":"address"}],"outputs":[],"stateMutability":"nonpayable"},{"type":"event","name":"OwnershipTransferred","inputs":[{"name":"previousOwner","type":"address","indexed":true,"internalType":"address"},{"name":"newOwner","type":"address","indexed":true,"internalType":"address"}],"anonymous":false},{"type":"event","name":"TokensTransferred","inputs":[{"name":"messageId","type":"bytes32","indexed":true,"internalType":"bytes32"},{"name":"destinationChainSelector","type":"uint64","indexed":true,"internalType":"uint64"},{"name":"receiver","type":"address","indexed":false,"internalType":"address"},{"name":"token","type":"address","indexed":false,"internalType":"address"},{"name":"tokenAmount","type":"uint256","indexed":false,"internalType":"uint256"},{"name":"feeToken","type":"address","indexed":false,"internalType":"address"},{"name":"fees","type":"uint256","indexed":false,"internalType":"uint256"}],"anonymous":false},{"type":"error","name":"CallerNotWhiteListed","inputs":[{"name":"caller","type":"address","internalType":"address"}]},{"type":"error","name":"DestinationChainNotAllowlisted","inputs":[{"name":"destinationChainSelector","type":"uint64","internalType":"uint64"}]},{"type":"error","name":"FailedToWithdrawEth","inputs":[{"name":"owner","type":"address","internalType":"address"},{"name":"target","type":"address","internalType":"address"},{"name":"value","type":"uint256","internalType":"uint256"}]},{"type":"error","name":"NotEnoughBalance","inputs":[{"name":"currentBalance","type":"uint256","internalType":"uint256"},{"name":"calculatedFees","type":"uint256","internalType":"uint256"}]},{"type":"error","name":"NothingToWithdraw","inputs":[]}],"bytecode":{"object":"0x608060405234801561001057600080fd5b5060405161138538038061138583398101604081905261002f916100f9565b6100383361008d565b600580546001600160a01b039384166001600160a01b0319918216179091556006805492909316911617905560408051808201909152600080825260209091018190526003556004805460ff1916905561012c565b600080546001600160a01b038381166001600160a01b0319831681178455604051919092169283917f8be0079c531659141344cd1fd0a4f28419497f9722a3daafe3b4186f6b6457e09190a35050565b80516001600160a01b03811681146100f457600080fd5b919050565b6000806040838503121561010c57600080fd5b610115836100dd565b9150610123602084016100dd565b90509250929050565b61124a8061013b6000396000f3fe6080604052600436106101025760003560e01c806362d6a806116100955780638da5cb5b116100645780638da5cb5b1461030957806395e1402c1461033157806396d3b83d14610351578063e43252d714610371578063f2fde38b1461039157600080fd5b806362d6a8061461027a5780636bc88d20146102b4578063715018a6146102d45780638ab1d681146102e957600080fd5b80633aeac4e1116100d15780633aeac4e1146101d15780633af32abf146101f357806351419b4b1461022c57806351cff8d91461025a57600080fd5b8063018df7e61461010e57806306c933d8146101465780630bb106eb1461018657806332703534146101b657600080fd5b3661010957005b600080fd5b34801561011a57600080fd5b5060035460045461012c919060ff1682565b604080519283529015156020830152015b60405180910390f35b34801561015257600080fd5b50610176610161366004610f6b565b60026020526000908152604090205460ff1681565b604051901515815260200161013d565b34801561019257600080fd5b506101766101a1366004610fa5565b60016020526000908152604090205460ff1681565b3480156101c257600080fd5b5060035460045460ff1661012c565b3480156101dd57600080fd5b506101f16101ec366004610fc0565b6103b1565b005b3480156101ff57600080fd5b5061017661020e366004610f6b565b6001600160a01b031660009081526002602052604090205460ff1690565b34801561023857600080fd5b5061024c610247366004610ff3565b6104c0565b60405190815260200161013d565b34801561026657600080fd5b506101f1610275366004610f6b565b610758565b34801561028657600080fd5b50610176610295366004610fa5565b67ffffffffffffffff1660009081526001602052604090205460ff1690565b3480156102c057600080fd5b506101f16102cf36600461104c565b610814565b3480156102e057600080fd5b506101f1610835565b3480156102f557600080fd5b506101f1610304366004610f6b565b610849565b34801561031557600080fd5b506000546040516001600160a01b03909116815260200161013d565b34801561033d57600080fd5b5061024c61034c366004610ff3565b610872565b34801561035d57600080fd5b506101f161036c36600461107c565b610c59565b34801561037d57600080fd5b506101f161038c366004610f6b565b610c8d565b34801561039d57600080fd5b506101f16103ac366004610f6b565b610cb9565b6103b9610d32565b6040516370a0823160e01b81523060048201526000906001600160a01b038316906370a0823190602401602060405180830381865afa158015610400573d6000803e3d6000fd5b505050506040513d601f19601f8201168201806040525081019061042491906110a8565b90508060000361044757604051630686827b60e51b815260040160405180910390fd5b60405163a9059cbb60e01b81526001600160a01b0384811660048301526024820183905283169063a9059cbb906044016020604051808303816000875af1158015610496573d6000803e3d6000fd5b505050506040513d601f19601f820116820180604052508101906104ba91906110c1565b50505050565b3360009081526002602052604081205460ff166104f757604051631191018560e11b81523360048201526024015b60405180910390fd5b67ffffffffffffffff8516600090815260016020526040902054859060ff1661053f57604051630a503cdb60e01b815267ffffffffffffffff821660048201526024016104ee565b600061054e8686866000610d8c565b6005546040516320487ded60e01b81529192506000916001600160a01b03909116906320487ded90610586908b908690600401611124565b602060405180830381865afa1580156105a3573d6000803e3d6000fd5b505050506040513d601f19601f820116820180604052508101906105c791906110a8565b9050478111156105f357604051634787a10360e11b8152476004820152602481018290526044016104ee565b60055460405163095ea7b360e01b81526001600160a01b039182166004820152602481018790529087169063095ea7b3906044016020604051808303816000875af1158015610646573d6000803e3d6000fd5b505050506040513d601f19601f8201168201806040525081019061066a91906110c1565b506005546040516396f4e9f960e01b81526001600160a01b03909116906396f4e9f990839061069f908c908790600401611124565b60206040518083038185885af11580156106bd573d6000803e3d6000fd5b50505050506040513d601f19601f820116820180604052508101906106e291906110a8565b604080516001600160a01b03808b16825289166020820152908101879052600060608201526080810183905290945067ffffffffffffffff89169085907fc15fb748c32ba4eb29c1c311e78533f93b4425eab49ea87c6fe4279ecadca0439060a0015b60405180910390a3505050949350505050565b610760610d32565b47600081900361078357604051630686827b60e51b815260040160405180910390fd5b6000826001600160a01b03168260405160006040518083038185875af1925050503d80600081146107d0576040519150601f19603f3d011682016040523d82523d6000602084013e6107d5565b606091505b505090508061080f57604051639d11f56360e01b81523360048201526001600160a01b0384166024820152604481018390526064016104ee565b505050565b61081c610d32565b6003919091556004805460ff1916911515919091179055565b61083d610d32565b6108476000610eff565b565b610851610d32565b6001600160a01b03166000908152600260205260409020805460ff19169055565b3360009081526002602052604081205460ff166108a457604051631191018560e11b81523360048201526024016104ee565b67ffffffffffffffff8516600090815260016020526040902054859060ff166108ec57604051630a503cdb60e01b815267ffffffffffffffff821660048201526024016104ee565b60065460009061090a908790879087906001600160a01b0316610d8c565b6005546040516320487ded60e01b81529192506000916001600160a01b03909116906320487ded90610942908b908690600401611124565b602060405180830381865afa15801561095f573d6000803e3d6000fd5b505050506040513d601f19601f8201168201806040525081019061098391906110a8565b6006546040516370a0823160e01b81523060048201529192506001600160a01b0316906370a0823190602401602060405180830381865afa1580156109cc573d6000803e3d6000fd5b505050506040513d601f19601f820116820180604052508101906109f091906110a8565b811115610a87576006546040516370a0823160e01b81523060048201526001600160a01b03909116906370a0823190602401602060405180830381865afa158015610a3f573d6000803e3d6000fd5b505050506040513d601f19601f82011682018060405250810190610a6391906110a8565b604051634787a10360e11b81526004810191909152602481018290526044016104ee565b60065460055460405163095ea7b360e01b81526001600160a01b0391821660048201526024810184905291169063095ea7b3906044016020604051808303816000875af1158015610adc573d6000803e3d6000fd5b505050506040513d601f19601f82011682018060405250810190610b0091906110c1565b5060055460405163095ea7b360e01b81526001600160a01b039182166004820152602481018790529087169063095ea7b3906044016020604051808303816000875af1158015610b54573d6000803e3d6000fd5b505050506040513d601f19601f82011682018060405250810190610b7891906110c1565b506005546040516396f4e9f960e01b81526001600160a01b03909116906396f4e9f990610bab908b908690600401611124565b6020604051808303816000875af1158015610bca573d6000803e3d6000fd5b505050506040513d601f19601f82011682018060405250810190610bee91906110a8565b600654604080516001600160a01b03808c168252808b166020830152918101899052911660608201526080810183905290945067ffffffffffffffff89169085907fc15fb748c32ba4eb29c1c311e78533f93b4425eab49ea87c6fe4279ecadca0439060a001610745565b610c61610d32565b67ffffffffffffffff919091166000908152600160205260409020805460ff1916911515919091179055565b610c95610d32565b6001600160a01b03166000908152600260205260409020805460ff19166001179055565b610cc1610d32565b6001600160a01b038116610d265760405162461bcd60e51b815260206004820152602660248201527f4f776e61626c653a206e6577206f776e657220697320746865207a65726f206160448201526564647265737360d01b60648201526084016104ee565b610d2f81610eff565b50565b6000546001600160a01b031633146108475760405162461bcd60e51b815260206004820181905260248201527f4f776e61626c653a2063616c6c6572206973206e6f7420746865206f776e657260448201526064016104ee565b610dc76040518060a0016040528060608152602001606081526020016060815260200160006001600160a01b03168152602001606081525090565b604080516001808252818301909252600091816020015b6040805180820190915260008082526020820152815260200190600190039081610dde5790505090506040518060400160405280866001600160a01b031681526020018581525081600081518110610e3857610e386111fe565b6020908102919091018101919091526040805160a0810182526001600160a01b0389811660c0808401919091528351808403909101815260e0830184528252825180850184526000815282850152818301859052861660608201528151808301835260035480825260045460ff161515918501918252835160248101919091529051151560448083019190915283518083039091018152606490910190925291810180516001600160e01b03166397a657c960e01b17905260808201529695505050505050565b600080546001600160a01b038381166001600160a01b0319831681178455604051919092169283917f8be0079c531659141344cd1fd0a4f28419497f9722a3daafe3b4186f6b6457e09190a35050565b80356001600160a01b0381168114610f6657600080fd5b919050565b600060208284031215610f7d57600080fd5b610f8682610f4f565b9392505050565b803567ffffffffffffffff81168114610f6657600080fd5b600060208284031215610fb757600080fd5b610f8682610f8d565b60008060408385031215610fd357600080fd5b610fdc83610f4f565b9150610fea60208401610f4f565b90509250929050565b6000806000806080858703121561100957600080fd5b61101285610f8d565b935061102060208601610f4f565b925061102e60408601610f4f565b9396929550929360600135925050565b8015158114610d2f57600080fd5b6000806040838503121561105f57600080fd5b8235915060208301356110718161103e565b809150509250929050565b6000806040838503121561108f57600080fd5b61109883610f8d565b915060208301356110718161103e565b6000602082840312156110ba57600080fd5b5051919050565b6000602082840312156110d357600080fd5b8151610f868161103e565b6000815180845260005b81811015611104576020818501810151868301820152016110e8565b506000602082860101526020601f19601f83011685010191505092915050565b6000604067ffffffffffffffff8516835260208181850152845160a08386015261115160e08601826110de565b905081860151603f198087840301606088015261116e83836110de565b88860151888203830160808a01528051808352908601945060009350908501905b808410156111c157845180516001600160a01b031683528601518683015293850193600193909301929086019061118f565b5060608901516001600160a01b031660a08901526080890151888203830160c08a015295506111f081876110de565b9a9950505050505050505050565b634e487b7160e01b600052603260045260246000fdfea2646970667358221220871e75d997b224158730c528badd26f61a1cdb534c661d6366bb8eff251009b864736f6c63430008130033","linkReferences":{}},"methodIdentifiers":{"addToWhitelist(address)":"e43252d7","allowlistDestinationChain(uint64,bool)":"96d3b83d","allowlistedChains(uint64)":"0bb106eb","currentExtraArgs()":"018df7e6","getExtraArgs()":"32703534","isChainIdAllowed(uint64)":"62d6a806","isWhitelisted(address)":"3af32abf","owner()":"8da5cb5b","removeFromWhitelist(address)":"8ab1d681","renounceOwnership()":"715018a6","transferOwnership(address)":"f2fde38b","transferTokensPayLINK(uint64,address,address,uint256)":"95e1402c","transferTokensPayNative(uint64,address,address,uint256)":"51419b4b","updateExtraArgs(uint256,bool)":"6bc88d20","whitelistedAddresses(address)":"06c933d8","withdraw(address)":"51cff8d9","withdrawToken(address,address)":"3aeac4e1"},"id":4}