{"abi":[{"type":"constructor","inputs":[{"name":"_router","type":"address","internalType":"address"},{"name":"_link","type":"address","internalType":"address"}],"stateMutability":"nonpayable"},{"type":"receive","stateMutability":"payable"},{"type":"function","name":"acceptOwnership","inputs":[],"outputs":[],"stateMutability":"nonpayable"},{"type":"function","name":"addToWhitelist","inputs":[{"name":"_address","type":"address","internalType":"address"}],"outputs":[],"stateMutability":"nonpayable"},{"type":"function","name":"allowlistDestinationChain","inputs":[{"name":"_destinationChainSelector","type":"uint64","internalType":"uint64"},{"name":"allowed","type":"bool","internalType":"bool"}],"outputs":[],"stateMutability":"nonpayable"},{"type":"function","name":"allowlistedChains","inputs":[{"name":"","type":"uint64","internalType":"uint64"}],"outputs":[{"name":"","type":"bool","internalType":"bool"}],"stateMutability":"view"},{"type":"function","name":"currentExtraArgs","inputs":[],"outputs":[{"name":"gasLimit","type":"uint256","internalType":"uint256"},{"name":"strict","type":"bool","internalType":"bool"}],"stateMutability":"view"},{"type":"function","name":"getExtraArgs","inputs":[],"outputs":[{"name":"","type":"uint256","internalType":"uint256"},{"name":"","type":"bool","internalType":"bool"}],"stateMutability":"view"},{"type":"function","name":"isChainIdAllowed","inputs":[{"name":"_chainId","type":"uint64","internalType":"uint64"}],"outputs":[{"name":"","type":"bool","internalType":"bool"}],"stateMutability":"view"},{"type":"function","name":"isWhitelisted","inputs":[{"name":"_address","type":"address","internalType":"address"}],"outputs":[{"name":"","type":"bool","internalType":"bool"}],"stateMutability":"view"},{"type":"function","name":"owner","inputs":[],"outputs":[{"name":"","type":"address","internalType":"address"}],"stateMutability":"view"},{"type":"function","name":"removeFromWhitelist","inputs":[{"name":"_address","type":"address","internalType":"address"}],"outputs":[],"stateMutability":"nonpayable"},{"type":"function","name":"transferOwnership","inputs":[{"name":"to","type":"address","internalType":"address"}],"outputs":[],"stateMutability":"nonpayable"},{"type":"function","name":"transferTokensPayLINK","inputs":[{"name":"_destinationChainSelector","type":"uint64","internalType":"uint64"},{"name":"_receiver","type":"address","internalType":"address"},{"name":"_token","type":"address","internalType":"address"},{"name":"_amount","type":"uint256","internalType":"uint256"}],"outputs":[{"name":"messageId","type":"bytes32","internalType":"bytes32"}],"stateMutability":"nonpayable"},{"type":"function","name":"transferTokensPayNative","inputs":[{"name":"_destinationChainSelector","type":"uint64","internalType":"uint64"},{"name":"_receiver","type":"address","internalType":"address"},{"name":"_token","type":"address","internalType":"address"},{"name":"_amount","type":"uint256","internalType":"uint256"}],"outputs":[{"name":"messageId","type":"bytes32","internalType":"bytes32"}],"stateMutability":"nonpayable"},{"type":"function","name":"updateExtraArgs","inputs":[{"name":"_gasLimit","type":"uint256","internalType":"uint256"},{"name":"_strict","type":"bool","internalType":"bool"}],"outputs":[],"stateMutability":"nonpayable"},{"type":"function","name":"whitelistedAddresses","inputs":[{"name":"","type":"address","internalType":"address"}],"outputs":[{"name":"","type":"bool","internalType":"bool"}],"stateMutability":"view"},{"type":"function","name":"withdraw","inputs":[{"name":"_beneficiary","type":"address","internalType":"address"}],"outputs":[],"stateMutability":"nonpayable"},{"type":"function","name":"withdrawToken","inputs":[{"name":"_beneficiary","type":"address","internalType":"address"},{"name":"_token","type":"address","internalType":"address"}],"outputs":[],"stateMutability":"nonpayable"},{"type":"event","name":"OwnershipTransferRequested","inputs":[{"name":"from","type":"address","indexed":true,"internalType":"address"},{"name":"to","type":"address","indexed":true,"internalType":"address"}],"anonymous":false},{"type":"event","name":"OwnershipTransferred","inputs":[{"name":"from","type":"address","indexed":true,"internalType":"address"},{"name":"to","type":"address","indexed":true,"internalType":"address"}],"anonymous":false},{"type":"event","name":"TokensTransferred","inputs":[{"name":"messageId","type":"bytes32","indexed":true,"internalType":"bytes32"},{"name":"destinationChainSelector","type":"uint64","indexed":true,"internalType":"uint64"},{"name":"receiver","type":"address","indexed":false,"internalType":"address"},{"name":"token","type":"address","indexed":false,"internalType":"address"},{"name":"tokenAmount","type":"uint256","indexed":false,"internalType":"uint256"},{"name":"feeToken","type":"address","indexed":false,"internalType":"address"},{"name":"fees","type":"uint256","indexed":false,"internalType":"uint256"}],"anonymous":false},{"type":"error","name":"CallerNotWhiteListed","inputs":[{"name":"caller","type":"address","internalType":"address"}]},{"type":"error","name":"DestinationChainNotAllowlisted","inputs":[{"name":"destinationChainSelector","type":"uint64","internalType":"uint64"}]},{"type":"error","name":"FailedToWithdrawEth","inputs":[{"name":"owner","type":"address","internalType":"address"},{"name":"target","type":"address","internalType":"address"},{"name":"value","type":"uint256","internalType":"uint256"}]},{"type":"error","name":"NotEnoughBalance","inputs":[{"name":"currentBalance","type":"uint256","internalType":"uint256"},{"name":"calculatedFees","type":"uint256","internalType":"uint256"}]},{"type":"error","name":"NothingToWithdraw","inputs":[]}],"bytecode":{"object":"0x60806040523480156200001157600080fd5b50604051620014fa380380620014fa8339810160408190526200003491620001e3565b33806000816200008b5760405162461bcd60e51b815260206004820152601860248201527f43616e6e6f7420736574206f776e657220746f207a65726f000000000000000060448201526064015b60405180910390fd5b600080546001600160a01b0319166001600160a01b0384811691909117909155811615620000be57620000be816200011b565b5050600680546001600160a01b039485166001600160a01b03199182161790915560078054939094169216919091179091555060408051808201909152600080825260209091018190526004556005805460ff191690556200021b565b336001600160a01b03821603620001755760405162461bcd60e51b815260206004820152601760248201527f43616e6e6f74207472616e7366657220746f2073656c66000000000000000000604482015260640162000082565b600180546001600160a01b0319166001600160a01b0383811691821790925560008054604051929316917fed8889f560326eb138920d842192f0eb3dd22b4f139c87a2c57538e05bae12789190a350565b80516001600160a01b0381168114620001de57600080fd5b919050565b60008060408385031215620001f757600080fd5b6200020283620001c6565b91506200021260208401620001c6565b90509250929050565b6112cf806200022b6000396000f3fe6080604052600436106101025760003560e01c806362d6a806116100955780638da5cb5b116100645780638da5cb5b1461030957806395e1402c1461033157806396d3b83d14610351578063e43252d714610371578063f2fde38b1461039157600080fd5b806362d6a8061461027a5780636bc88d20146102b457806379ba5097146102d45780638ab1d681146102e957600080fd5b80633aeac4e1116100d15780633aeac4e1146101d15780633af32abf146101f357806351419b4b1461022c57806351cff8d91461025a57600080fd5b8063018df7e61461010e57806306c933d8146101465780630bb106eb1461018657806332703534146101b657600080fd5b3661010957005b600080fd5b34801561011a57600080fd5b5060045460055461012c919060ff1682565b604080519283529015156020830152015b60405180910390f35b34801561015257600080fd5b50610176610161366004610ff0565b60036020526000908152604090205460ff1681565b604051901515815260200161013d565b34801561019257600080fd5b506101766101a136600461102a565b60026020526000908152604090205460ff1681565b3480156101c257600080fd5b5060045460055460ff1661012c565b3480156101dd57600080fd5b506101f16101ec366004611045565b6103b1565b005b3480156101ff57600080fd5b5061017661020e366004610ff0565b6001600160a01b031660009081526003602052604090205460ff1690565b34801561023857600080fd5b5061024c610247366004611078565b6104c0565b60405190815260200161013d565b34801561026657600080fd5b506101f1610275366004610ff0565b610758565b34801561028657600080fd5b5061017661029536600461102a565b67ffffffffffffffff1660009081526002602052604090205460ff1690565b3480156102c057600080fd5b506101f16102cf3660046110d1565b610814565b3480156102e057600080fd5b506101f1610835565b3480156102f557600080fd5b506101f1610304366004610ff0565b6108df565b34801561031557600080fd5b506000546040516001600160a01b03909116815260200161013d565b34801561033d57600080fd5b5061024c61034c366004611078565b610908565b34801561035d57600080fd5b506101f161036c366004611101565b610cef565b34801561037d57600080fd5b506101f161038c366004610ff0565b610d23565b34801561039d57600080fd5b506101f16103ac366004610ff0565b610d4f565b6103b9610d63565b6040516370a0823160e01b81523060048201526000906001600160a01b038316906370a0823190602401602060405180830381865afa158015610400573d6000803e3d6000fd5b505050506040513d601f19601f82011682018060405250810190610424919061112d565b90508060000361044757604051630686827b60e51b815260040160405180910390fd5b60405163a9059cbb60e01b81526001600160a01b0384811660048301526024820183905283169063a9059cbb906044016020604051808303816000875af1158015610496573d6000803e3d6000fd5b505050506040513d601f19601f820116820180604052508101906104ba9190611146565b50505050565b3360009081526003602052604081205460ff166104f757604051631191018560e11b81523360048201526024015b60405180910390fd5b67ffffffffffffffff8516600090815260026020526040902054859060ff1661053f57604051630a503cdb60e01b815267ffffffffffffffff821660048201526024016104ee565b600061054e8686866000610db8565b6006546040516320487ded60e01b81529192506000916001600160a01b03909116906320487ded90610586908b9086906004016111a9565b602060405180830381865afa1580156105a3573d6000803e3d6000fd5b505050506040513d601f19601f820116820180604052508101906105c7919061112d565b9050478111156105f357604051634787a10360e11b8152476004820152602481018290526044016104ee565b60065460405163095ea7b360e01b81526001600160a01b039182166004820152602481018790529087169063095ea7b3906044016020604051808303816000875af1158015610646573d6000803e3d6000fd5b505050506040513d601f19601f8201168201806040525081019061066a9190611146565b506006546040516396f4e9f960e01b81526001600160a01b03909116906396f4e9f990839061069f908c9087906004016111a9565b60206040518083038185885af11580156106bd573d6000803e3d6000fd5b50505050506040513d601f19601f820116820180604052508101906106e2919061112d565b604080516001600160a01b03808b16825289166020820152908101879052600060608201526080810183905290945067ffffffffffffffff89169085907fc15fb748c32ba4eb29c1c311e78533f93b4425eab49ea87c6fe4279ecadca0439060a0015b60405180910390a3505050949350505050565b610760610d63565b47600081900361078357604051630686827b60e51b815260040160405180910390fd5b6000826001600160a01b03168260405160006040518083038185875af1925050503d80600081146107d0576040519150601f19603f3d011682016040523d82523d6000602084013e6107d5565b606091505b505090508061080f57604051639d11f56360e01b81523360048201526001600160a01b0384166024820152604481018390526064016104ee565b505050565b61081c610d63565b6004919091556005805460ff1916911515919091179055565b6001546001600160a01b031633146108885760405162461bcd60e51b815260206004820152601660248201527526bab9ba10313290383937b837b9b2b21037bbb732b960511b60448201526064016104ee565b60008054336001600160a01b0319808316821784556001805490911690556040516001600160a01b0390921692909183917f8be0079c531659141344cd1fd0a4f28419497f9722a3daafe3b4186f6b6457e091a350565b6108e7610d63565b6001600160a01b03166000908152600360205260409020805460ff19169055565b3360009081526003602052604081205460ff1661093a57604051631191018560e11b81523360048201526024016104ee565b67ffffffffffffffff8516600090815260026020526040902054859060ff1661098257604051630a503cdb60e01b815267ffffffffffffffff821660048201526024016104ee565b6007546000906109a0908790879087906001600160a01b0316610db8565b6006546040516320487ded60e01b81529192506000916001600160a01b03909116906320487ded906109d8908b9086906004016111a9565b602060405180830381865afa1580156109f5573d6000803e3d6000fd5b505050506040513d601f19601f82011682018060405250810190610a19919061112d565b6007546040516370a0823160e01b81523060048201529192506001600160a01b0316906370a0823190602401602060405180830381865afa158015610a62573d6000803e3d6000fd5b505050506040513d601f19601f82011682018060405250810190610a86919061112d565b811115610b1d576007546040516370a0823160e01b81523060048201526001600160a01b03909116906370a0823190602401602060405180830381865afa158015610ad5573d6000803e3d6000fd5b505050506040513d601f19601f82011682018060405250810190610af9919061112d565b604051634787a10360e11b81526004810191909152602481018290526044016104ee565b60075460065460405163095ea7b360e01b81526001600160a01b0391821660048201526024810184905291169063095ea7b3906044016020604051808303816000875af1158015610b72573d6000803e3d6000fd5b505050506040513d601f19601f82011682018060405250810190610b969190611146565b5060065460405163095ea7b360e01b81526001600160a01b039182166004820152602481018790529087169063095ea7b3906044016020604051808303816000875af1158015610bea573d6000803e3d6000fd5b505050506040513d601f19601f82011682018060405250810190610c0e9190611146565b506006546040516396f4e9f960e01b81526001600160a01b03909116906396f4e9f990610c41908b9086906004016111a9565b6020604051808303816000875af1158015610c60573d6000803e3d6000fd5b505050506040513d601f19601f82011682018060405250810190610c84919061112d565b600754604080516001600160a01b03808c168252808b166020830152918101899052911660608201526080810183905290945067ffffffffffffffff89169085907fc15fb748c32ba4eb29c1c311e78533f93b4425eab49ea87c6fe4279ecadca0439060a001610745565b610cf7610d63565b67ffffffffffffffff919091166000908152600260205260409020805460ff1916911515919091179055565b610d2b610d63565b6001600160a01b03166000908152600360205260409020805460ff19166001179055565b610d57610d63565b610d6081610f2b565b50565b6000546001600160a01b03163314610db65760405162461bcd60e51b815260206004820152601660248201527527b7363c9031b0b63630b1363290313c9037bbb732b960511b60448201526064016104ee565b565b610df36040518060a0016040528060608152602001606081526020016060815260200160006001600160a01b03168152602001606081525090565b604080516001808252818301909252600091816020015b6040805180820190915260008082526020820152815260200190600190039081610e0a5790505090506040518060400160405280866001600160a01b031681526020018581525081600081518110610e6457610e64611283565b6020908102919091018101919091526040805160a0810182526001600160a01b0389811660c0808401919091528351808403909101815260e0830184528252825180850184526000815282850152818301859052861660608201528151808301835260045480825260055460ff161515918501918252835160248101919091529051151560448083019190915283518083039091018152606490910190925291810180516001600160e01b03166397a657c960e01b17905260808201529695505050505050565b336001600160a01b03821603610f835760405162461bcd60e51b815260206004820152601760248201527f43616e6e6f74207472616e7366657220746f2073656c6600000000000000000060448201526064016104ee565b600180546001600160a01b0319166001600160a01b0383811691821790925560008054604051929316917fed8889f560326eb138920d842192f0eb3dd22b4f139c87a2c57538e05bae12789190a350565b80356001600160a01b0381168114610feb57600080fd5b919050565b60006020828403121561100257600080fd5b61100b82610fd4565b9392505050565b803567ffffffffffffffff81168114610feb57600080fd5b60006020828403121561103c57600080fd5b61100b82611012565b6000806040838503121561105857600080fd5b61106183610fd4565b915061106f60208401610fd4565b90509250929050565b6000806000806080858703121561108e57600080fd5b61109785611012565b93506110a560208601610fd4565b92506110b360408601610fd4565b9396929550929360600135925050565b8015158114610d6057600080fd5b600080604083850312156110e457600080fd5b8235915060208301356110f6816110c3565b809150509250929050565b6000806040838503121561111457600080fd5b61111d83611012565b915060208301356110f6816110c3565b60006020828403121561113f57600080fd5b5051919050565b60006020828403121561115857600080fd5b815161100b816110c3565b6000815180845260005b818110156111895760208185018101518683018201520161116d565b506000602082860101526020601f19601f83011685010191505092915050565b6000604067ffffffffffffffff8516835260208181850152845160a0838601526111d660e0860182611163565b905081860151603f19808784030160608801526111f38383611163565b88860151888203830160808a01528051808352908601945060009350908501905b8084101561124657845180516001600160a01b0316835286015186830152938501936001939093019290860190611214565b5060608901516001600160a01b031660a08901526080890151888203830160c08a015295506112758187611163565b9a9950505050505050505050565b634e487b7160e01b600052603260045260246000fdfea264697066735822122092b0bf685b52ae5273257294fe45c106f3e8ae2b3e3b98aac93e4cb25eb4135c64736f6c63430008130033","linkReferences":{}},"methodIdentifiers":{"acceptOwnership()":"79ba5097","addToWhitelist(address)":"e43252d7","allowlistDestinationChain(uint64,bool)":"96d3b83d","allowlistedChains(uint64)":"0bb106eb","currentExtraArgs()":"018df7e6","getExtraArgs()":"32703534","isChainIdAllowed(uint64)":"62d6a806","isWhitelisted(address)":"3af32abf","owner()":"8da5cb5b","removeFromWhitelist(address)":"8ab1d681","transferOwnership(address)":"f2fde38b","transferTokensPayLINK(uint64,address,address,uint256)":"95e1402c","transferTokensPayNative(uint64,address,address,uint256)":"51419b4b","updateExtraArgs(uint256,bool)":"6bc88d20","whitelistedAddresses(address)":"06c933d8","withdraw(address)":"51cff8d9","withdrawToken(address,address)":"3aeac4e1"},"id":6}