{"abi":[{"type":"constructor","inputs":[],"stateMutability":"nonpayable"},{"type":"function","name":"balanceOf","inputs":[{"name":"_address","type":"address","internalType":"address"}],"outputs":[{"name":"","type":"uint256","internalType":"uint256"}],"stateMutability":"view"},{"type":"function","name":"balances","inputs":[{"name":"","type":"address","internalType":"address"}],"outputs":[{"name":"","type":"uint256","internalType":"uint256"}],"stateMutability":"view"},{"type":"function","name":"setBalance","inputs":[{"name":"_address","type":"address","internalType":"address"},{"name":"_value","type":"uint256","internalType":"uint256"}],"outputs":[{"name":"","type":"bool","internalType":"bool"}],"stateMutability":"nonpayable"},{"type":"function","name":"totalSupply","inputs":[],"outputs":[{"name":"totalTokensIssued","type":"uint256","internalType":"uint256"}],"stateMutability":"pure"},{"type":"function","name":"transfer","inputs":[{"name":"_to","type":"address","internalType":"address"},{"name":"_value","type":"uint256","internalType":"uint256"}],"outputs":[{"name":"","type":"bool","internalType":"bool"}],"stateMutability":"nonpayable"},{"type":"function","name":"transferAndCall","inputs":[{"name":"_to","type":"address","internalType":"address"},{"name":"_value","type":"uint256","internalType":"uint256"},{"name":"_data","type":"bytes","internalType":"bytes"}],"outputs":[{"name":"success","type":"bool","internalType":"bool"}],"stateMutability":"nonpayable"}],"bytecode":{"object":"0x608060405234801561001057600080fd5b503360009081526020819052604090206b033b2e3c9fd0803ce800000090556103e18061003e6000396000f3fe608060405234801561001057600080fd5b50600436106100625760003560e01c806318160ddd1461006757806327e235e3146100885780634000aea0146100a857806370a08231146100cb578063a9059cbb146100f4578063e30443bc14610107575b600080fd5b6b033b2e3c9fd0803ce80000005b6040519081526020015b60405180910390f35b610075610096366004610254565b60006020819052908152604090205481565b6100bb6100b6366004610276565b610135565b604051901515815260200161007f565b6100756100d9366004610254565b6001600160a01b031660009081526020819052604090205490565b6100bb6101023660046102fd565b610160565b6100bb6101153660046102fd565b6001600160a01b0391909116600090815260208190526040902055600190565b60006101418585610160565b50843b1561015557610155858585856101cb565b506001949350505050565b3360009081526020819052604081205461017b90839061033d565b33600090815260208190526040808220929092556001600160a01b038516815220546101a8908390610350565b6001600160a01b0384166000908152602081905260409020555060015b92915050565b604051635260769b60e11b815284906001600160a01b0382169063a4c0ed36906101ff903390889088908890600401610363565b600060405180830381600087803b15801561021957600080fd5b505af115801561022d573d6000803e3d6000fd5b505050505050505050565b80356001600160a01b038116811461024f57600080fd5b919050565b60006020828403121561026657600080fd5b61026f82610238565b9392505050565b6000806000806060858703121561028c57600080fd5b61029585610238565b935060208501359250604085013567ffffffffffffffff808211156102b957600080fd5b818701915087601f8301126102cd57600080fd5b8135818111156102dc57600080fd5b8860208285010111156102ee57600080fd5b95989497505060200194505050565b6000806040838503121561031057600080fd5b61031983610238565b946020939093013593505050565b634e487b7160e01b600052601160045260246000fd5b818103818111156101c5576101c5610327565b808201808211156101c5576101c5610327565b6001600160a01b0385168152602081018490526060604082018190528101829052818360808301376000818301608090810191909152601f909201601f19160101939250505056fea264697066735822122012f6261998097baf5644aa74e8c149aec3fd45705a95c73c74611914dde51a5b64736f6c63430008130033","linkReferences":{}},"methodIdentifiers":{"balanceOf(address)":"70a08231","balances(address)":"27e235e3","setBalance(address,uint256)":"e30443bc","totalSupply()":"18160ddd","transfer(address,uint256)":"a9059cbb","transferAndCall(address,uint256,bytes)":"4000aea0"},"id":31}