{"abi":[{"type":"constructor","inputs":[{"name":"uri","type":"string","internalType":"string"}],"stateMutability":"nonpayable"},{"type":"function","name":"balanceOf","inputs":[{"name":"account","type":"address","internalType":"address"},{"name":"id","type":"uint256","internalType":"uint256"}],"outputs":[{"name":"","type":"uint256","internalType":"uint256"}],"stateMutability":"view"},{"type":"function","name":"balanceOfBatch","inputs":[{"name":"accounts","type":"address[]","internalType":"address[]"},{"name":"ids","type":"uint256[]","internalType":"uint256[]"}],"outputs":[{"name":"","type":"uint256[]","internalType":"uint256[]"}],"stateMutability":"view"},{"type":"function","name":"burn","inputs":[{"name":"owner","type":"address","internalType":"address"},{"name":"id","type":"uint256","internalType":"uint256"},{"name":"value","type":"uint256","internalType":"uint256"}],"outputs":[],"stateMutability":"nonpayable"},{"type":"function","name":"burnBatch","inputs":[{"name":"owner","type":"address","internalType":"address"},{"name":"ids","type":"uint256[]","internalType":"uint256[]"},{"name":"values","type":"uint256[]","internalType":"uint256[]"}],"outputs":[],"stateMutability":"nonpayable"},{"type":"function","name":"isApprovedForAll","inputs":[{"name":"account","type":"address","internalType":"address"},{"name":"operator","type":"address","internalType":"address"}],"outputs":[{"name":"","type":"bool","internalType":"bool"}],"stateMutability":"view"},{"type":"function","name":"mint","inputs":[{"name":"to","type":"address","internalType":"address"},{"name":"id","type":"uint256","internalType":"uint256"},{"name":"value","type":"uint256","internalType":"uint256"},{"name":"data","type":"bytes","internalType":"bytes"}],"outputs":[],"stateMutability":"nonpayable"},{"type":"function","name":"mintBatch","inputs":[{"name":"to","type":"address","internalType":"address"},{"name":"ids","type":"uint256[]","internalType":"uint256[]"},{"name":"values","type":"uint256[]","internalType":"uint256[]"},{"name":"data","type":"bytes","internalType":"bytes"}],"outputs":[],"stateMutability":"nonpayable"},{"type":"function","name":"safeBatchTransferFrom","inputs":[{"name":"from","type":"address","internalType":"address"},{"name":"to","type":"address","internalType":"address"},{"name":"ids","type":"uint256[]","internalType":"uint256[]"},{"name":"amounts","type":"uint256[]","internalType":"uint256[]"},{"name":"data","type":"bytes","internalType":"bytes"}],"outputs":[],"stateMutability":"nonpayable"},{"type":"function","name":"safeTransferFrom","inputs":[{"name":"from","type":"address","internalType":"address"},{"name":"to","type":"address","internalType":"address"},{"name":"id","type":"uint256","internalType":"uint256"},{"name":"amount","type":"uint256","internalType":"uint256"},{"name":"data","type":"bytes","internalType":"bytes"}],"outputs":[],"stateMutability":"nonpayable"},{"type":"function","name":"setApprovalForAll","inputs":[{"name":"operator","type":"address","internalType":"address"},{"name":"approved","type":"bool","internalType":"bool"}],"outputs":[],"stateMutability":"nonpayable"},{"type":"function","name":"setURI","inputs":[{"name":"newuri","type":"string","internalType":"string"}],"outputs":[],"stateMutability":"nonpayable"},{"type":"function","name":"supportsInterface","inputs":[{"name":"interfaceId","type":"bytes4","internalType":"bytes4"}],"outputs":[{"name":"","type":"bool","internalType":"bool"}],"stateMutability":"view"},{"type":"function","name":"uri","inputs":[{"name":"","type":"uint256","internalType":"uint256"}],"outputs":[{"name":"","type":"string","internalType":"string"}],"stateMutability":"view"},{"type":"event","name":"ApprovalForAll","inputs":[{"name":"account","type":"address","indexed":true,"internalType":"address"},{"name":"operator","type":"address","indexed":true,"internalType":"address"},{"name":"approved","type":"bool","indexed":false,"internalType":"bool"}],"anonymous":false},{"type":"event","name":"TransferBatch","inputs":[{"name":"operator","type":"address","indexed":true,"internalType":"address"},{"name":"from","type":"address","indexed":true,"internalType":"address"},{"name":"to","type":"address","indexed":true,"internalType":"address"},{"name":"ids","type":"uint256[]","indexed":false,"internalType":"uint256[]"},{"name":"values","type":"uint256[]","indexed":false,"internalType":"uint256[]"}],"anonymous":false},{"type":"event","name":"TransferSingle","inputs":[{"name":"operator","type":"address","indexed":true,"internalType":"address"},{"name":"from","type":"address","indexed":true,"internalType":"address"},{"name":"to","type":"address","indexed":true,"internalType":"address"},{"name":"id","type":"uint256","indexed":false,"internalType":"uint256"},{"name":"value","type":"uint256","indexed":false,"internalType":"uint256"}],"anonymous":false},{"type":"event","name":"URI","inputs":[{"name":"value","type":"string","indexed":false,"internalType":"string"},{"name":"id","type":"uint256","indexed":true,"internalType":"uint256"}],"anonymous":false}],"bytecode":{"object":"0x60806040523480156200001157600080fd5b5060405162001f8338038062001f83833981016040819052620000349162000070565b80620000408162000048565b5050620002a0565b6002620000568282620001d4565b5050565b634e487b7160e01b600052604160045260246000fd5b600060208083850312156200008457600080fd5b82516001600160401b03808211156200009c57600080fd5b818501915085601f830112620000b157600080fd5b815181811115620000c657620000c66200005a565b604051601f8201601f19908116603f01168101908382118183101715620000f157620000f16200005a565b8160405282815288868487010111156200010a57600080fd5b600093505b828410156200012e57848401860151818501870152928501926200010f565b600086848301015280965050505050505092915050565b600181811c908216806200015a57607f821691505b6020821081036200017b57634e487b7160e01b600052602260045260246000fd5b50919050565b601f821115620001cf57600081815260208120601f850160051c81016020861015620001aa5750805b601f850160051c820191505b81811015620001cb57828155600101620001b6565b5050505b505050565b81516001600160401b03811115620001f057620001f06200005a565b620002088162000201845462000145565b8462000181565b602080601f831160018114620002405760008415620002275750858301515b600019600386901b1c1916600185901b178555620001cb565b600085815260208120601f198616915b82811015620002715788860151825594840194600190910190840162000250565b5085821015620002905787850151600019600388901b60f8161c191681555b5050505050600190811b01905550565b611cd380620002b06000396000f3fe608060405234801561001057600080fd5b50600436106100ce5760003560e01c80634e1273f41161008c578063a22cb46511610066578063a22cb465146101bd578063e985e9c5146101d0578063f242432a1461020c578063f5298aca1461021f57600080fd5b80634e1273f4146101775780636b20c45414610197578063731133e9146101aa57600080fd5b8062fdd58e146100d357806301ffc9a7146100f957806302fe53051461011c5780630e89341c146101315780631f7fdffa146101515780632eb2c2d614610164575b600080fd5b6100e66100e136600461109f565b610232565b6040519081526020015b60405180910390f35b61010c6101073660046110df565b6102cb565b60405190151581526020016100f0565b61012f61012a3660046111a2565b61031b565b005b61014461013f3660046111f2565b610327565b6040516100f09190611251565b61012f61015f366004611318565b6103bb565b61012f6101723660046113b0565b6103cd565b61018a610185366004611459565b610419565b6040516100f0919061155e565b61012f6101a5366004611571565b610542565b61012f6101b83660046115e4565b610552565b61012f6101cb366004611638565b61055e565b61010c6101de366004611674565b6001600160a01b03918216600090815260016020908152604080832093909416825291909152205460ff1690565b61012f61021a3660046116a7565b61056d565b61012f61022d36600461170b565b6105b2565b60006001600160a01b0383166102a25760405162461bcd60e51b815260206004820152602a60248201527f455243313135353a2061646472657373207a65726f206973206e6f742061207660448201526930b634b21037bbb732b960b11b60648201526084015b60405180910390fd5b506000818152602081815260408083206001600160a01b03861684529091529020545b92915050565b60006001600160e01b03198216636cdb3d1360e11b14806102fc57506001600160e01b031982166303a24d0760e21b145b806102c557506301ffc9a760e01b6001600160e01b03198316146102c5565b610324816105bd565b50565b6060600280546103369061173e565b80601f01602080910402602001604051908101604052809291908181526020018280546103629061173e565b80156103af5780601f10610384576101008083540402835291602001916103af565b820191906000526020600020905b81548152906001019060200180831161039257829003601f168201915b50505050509050919050565b6103c7848484846105c9565b50505050565b6001600160a01b0385163314806103e957506103e985336101de565b6104055760405162461bcd60e51b815260040161029990611778565b6104128585858585610714565b5050505050565b6060815183511461047e5760405162461bcd60e51b815260206004820152602960248201527f455243313135353a206163636f756e747320616e6420696473206c656e677468604482015268040dad2e6dac2e8c6d60bb1b6064820152608401610299565b600083516001600160401b0381111561049957610499611103565b6040519080825280602002602001820160405280156104c2578160200160208202803683370190505b50905060005b845181101561053a5761050d8582815181106104e6576104e66117c6565b6020026020010151858381518110610500576105006117c6565b6020026020010151610232565b82828151811061051f5761051f6117c6565b6020908102919091010152610533816117f2565b90506104c8565b509392505050565b61054d8383836108b0565b505050565b6103c784848484610a3a565b610569338383610b14565b5050565b6001600160a01b038516331480610589575061058985336101de565b6105a55760405162461bcd60e51b815260040161029990611778565b6104128585858585610bf4565b61054d838383610d1e565b60026105698282611851565b6001600160a01b0384166105ef5760405162461bcd60e51b815260040161029990611910565b81518351146106105760405162461bcd60e51b815260040161029990611951565b3360005b84518110156106ac5783818151811061062f5761062f6117c6565b602002602001015160008087848151811061064c5761064c6117c6565b602002602001015181526020019081526020016000206000886001600160a01b03166001600160a01b0316815260200190815260200160002060008282546106949190611999565b909155508190506106a4816117f2565b915050610614565b50846001600160a01b031660006001600160a01b0316826001600160a01b03167f4a39dc06d4c0dbc64b70af90fd698a233a518aa5d07e595d983b8c0526c8f7fb87876040516106fd9291906119ac565b60405180910390a461041281600087878787610e22565b81518351146107355760405162461bcd60e51b815260040161029990611951565b6001600160a01b03841661075b5760405162461bcd60e51b8152600401610299906119da565b3360005b845181101561084257600085828151811061077c5761077c6117c6565b60200260200101519050600085838151811061079a5761079a6117c6565b602090810291909101810151600084815280835260408082206001600160a01b038e1683529093529190912054909150818110156107ea5760405162461bcd60e51b815260040161029990611a1f565b6000838152602081815260408083206001600160a01b038e8116855292528083208585039055908b16825281208054849290610827908490611999565b925050819055505050508061083b906117f2565b905061075f565b50846001600160a01b0316866001600160a01b0316826001600160a01b03167f4a39dc06d4c0dbc64b70af90fd698a233a518aa5d07e595d983b8c0526c8f7fb87876040516108929291906119ac565b60405180910390a46108a8818787878787610e22565b505050505050565b6001600160a01b0383166108d65760405162461bcd60e51b815260040161029990611a69565b80518251146108f75760405162461bcd60e51b815260040161029990611951565b604080516020810190915260009081905233905b83518110156109cd576000848281518110610928576109286117c6565b602002602001015190506000848381518110610946576109466117c6565b602090810291909101810151600084815280835260408082206001600160a01b038c1683529093529190912054909150818110156109965760405162461bcd60e51b815260040161029990611aac565b6000928352602083815260408085206001600160a01b038b16865290915290922091039055806109c5816117f2565b91505061090b565b5060006001600160a01b0316846001600160a01b0316826001600160a01b03167f4a39dc06d4c0dbc64b70af90fd698a233a518aa5d07e595d983b8c0526c8f7fb8686604051610a1e9291906119ac565b60405180910390a46040805160208101909152600090526103c7565b6001600160a01b038416610a605760405162461bcd60e51b815260040161029990611910565b336000610a6c85610f7d565b90506000610a7985610f7d565b90506000868152602081815260408083206001600160a01b038b16845290915281208054879290610aab908490611999565b909155505060408051878152602081018790526001600160a01b03808a1692600092918716917fc3d58168c5ae7397731d063d5bbf3d657854427343f4c083240f7aacaa2d0f62910160405180910390a4610b0b83600089898989610fc8565b50505050505050565b816001600160a01b0316836001600160a01b031603610b875760405162461bcd60e51b815260206004820152602960248201527f455243313135353a2073657474696e6720617070726f76616c20737461747573604482015268103337b91039b2b63360b91b6064820152608401610299565b6001600160a01b03838116600081815260016020908152604080832094871680845294825291829020805460ff191686151590811790915591519182527f17307eab39ab6107e8899845ad3d59bd9653f200f220920489ca2b5937696c31910160405180910390a3505050565b6001600160a01b038416610c1a5760405162461bcd60e51b8152600401610299906119da565b336000610c2685610f7d565b90506000610c3385610f7d565b90506000868152602081815260408083206001600160a01b038c16845290915290205485811015610c765760405162461bcd60e51b815260040161029990611a1f565b6000878152602081815260408083206001600160a01b038d8116855292528083208985039055908a16825281208054889290610cb3908490611999565b909155505060408051888152602081018890526001600160a01b03808b16928c821692918816917fc3d58168c5ae7397731d063d5bbf3d657854427343f4c083240f7aacaa2d0f62910160405180910390a4610d13848a8a8a8a8a610fc8565b505050505050505050565b6001600160a01b038316610d445760405162461bcd60e51b815260040161029990611a69565b336000610d5084610f7d565b90506000610d5d84610f7d565b60408051602080820183526000918290528882528181528282206001600160a01b038b1683529052205490915084811015610daa5760405162461bcd60e51b815260040161029990611aac565b6000868152602081815260408083206001600160a01b038b81168086529184528285208a8703905582518b81529384018a90529092908816917fc3d58168c5ae7397731d063d5bbf3d657854427343f4c083240f7aacaa2d0f62910160405180910390a4604080516020810190915260009052610b0b565b6001600160a01b0384163b156108a85760405163bc197c8160e01b81526001600160a01b0385169063bc197c8190610e669089908990889088908890600401611af0565b6020604051808303816000875af1925050508015610ea1575060408051601f3d908101601f19168201909252610e9e91810190611b4e565b60015b610f4d57610ead611b6b565b806308c379a003610ee65750610ec1611b87565b80610ecc5750610ee8565b8060405162461bcd60e51b81526004016102999190611251565b505b60405162461bcd60e51b815260206004820152603460248201527f455243313135353a207472616e7366657220746f206e6f6e2d455243313135356044820152732932b1b2b4bb32b91034b6b83632b6b2b73a32b960611b6064820152608401610299565b6001600160e01b0319811663bc197c8160e01b14610b0b5760405162461bcd60e51b815260040161029990611c10565b60408051600180825281830190925260609160009190602080830190803683370190505090508281600081518110610fb757610fb76117c6565b602090810291909101015292915050565b6001600160a01b0384163b156108a85760405163f23a6e6160e01b81526001600160a01b0385169063f23a6e619061100c9089908990889088908890600401611c58565b6020604051808303816000875af1925050508015611047575060408051601f3d908101601f1916820190925261104491810190611b4e565b60015b61105357610ead611b6b565b6001600160e01b0319811663f23a6e6160e01b14610b0b5760405162461bcd60e51b815260040161029990611c10565b80356001600160a01b038116811461109a57600080fd5b919050565b600080604083850312156110b257600080fd5b6110bb83611083565b946020939093013593505050565b6001600160e01b03198116811461032457600080fd5b6000602082840312156110f157600080fd5b81356110fc816110c9565b9392505050565b634e487b7160e01b600052604160045260246000fd5b601f8201601f191681016001600160401b038111828210171561113e5761113e611103565b6040525050565b60006001600160401b0383111561115e5761115e611103565b604051611175601f8501601f191660200182611119565b80915083815284848401111561118a57600080fd5b83836020830137600060208583010152509392505050565b6000602082840312156111b457600080fd5b81356001600160401b038111156111ca57600080fd5b8201601f810184136111db57600080fd5b6111ea84823560208401611145565b949350505050565b60006020828403121561120457600080fd5b5035919050565b6000815180845260005b8181101561123157602081850181015186830182015201611215565b506000602082860101526020601f19601f83011685010191505092915050565b6020815260006110fc602083018461120b565b60006001600160401b0382111561127d5761127d611103565b5060051b60200190565b600082601f83011261129857600080fd5b813560206112a582611264565b6040516112b28282611119565b83815260059390931b85018201928281019150868411156112d257600080fd5b8286015b848110156112ed57803583529183019183016112d6565b509695505050505050565b600082601f83011261130957600080fd5b6110fc83833560208501611145565b6000806000806080858703121561132e57600080fd5b61133785611083565b935060208501356001600160401b038082111561135357600080fd5b61135f88838901611287565b9450604087013591508082111561137557600080fd5b61138188838901611287565b9350606087013591508082111561139757600080fd5b506113a4878288016112f8565b91505092959194509250565b600080600080600060a086880312156113c857600080fd5b6113d186611083565b94506113df60208701611083565b935060408601356001600160401b03808211156113fb57600080fd5b61140789838a01611287565b9450606088013591508082111561141d57600080fd5b61142989838a01611287565b9350608088013591508082111561143f57600080fd5b5061144c888289016112f8565b9150509295509295909350565b6000806040838503121561146c57600080fd5b82356001600160401b038082111561148357600080fd5b818501915085601f83011261149757600080fd5b813560206114a482611264565b6040516114b18282611119565b83815260059390931b85018201928281019150898411156114d157600080fd5b948201945b838610156114f6576114e786611083565b825294820194908201906114d6565b9650508601359250508082111561150c57600080fd5b5061151985828601611287565b9150509250929050565b600081518084526020808501945080840160005b8381101561155357815187529582019590820190600101611537565b509495945050505050565b6020815260006110fc6020830184611523565b60008060006060848603121561158657600080fd5b61158f84611083565b925060208401356001600160401b03808211156115ab57600080fd5b6115b787838801611287565b935060408601359150808211156115cd57600080fd5b506115da86828701611287565b9150509250925092565b600080600080608085870312156115fa57600080fd5b61160385611083565b9350602085013592506040850135915060608501356001600160401b0381111561162c57600080fd5b6113a4878288016112f8565b6000806040838503121561164b57600080fd5b61165483611083565b91506020830135801515811461166957600080fd5b809150509250929050565b6000806040838503121561168757600080fd5b61169083611083565b915061169e60208401611083565b90509250929050565b600080600080600060a086880312156116bf57600080fd5b6116c886611083565b94506116d660208701611083565b9350604086013592506060860135915060808601356001600160401b038111156116ff57600080fd5b61144c888289016112f8565b60008060006060848603121561172057600080fd5b61172984611083565b95602085013595506040909401359392505050565b600181811c9082168061175257607f821691505b60208210810361177257634e487b7160e01b600052602260045260246000fd5b50919050565b6020808252602e908201527f455243313135353a2063616c6c6572206973206e6f7420746f6b656e206f776e60408201526d195c881bdc88185c1c1c9bdd995960921b606082015260800190565b634e487b7160e01b600052603260045260246000fd5b634e487b7160e01b600052601160045260246000fd5b600060018201611804576118046117dc565b5060010190565b601f82111561054d57600081815260208120601f850160051c810160208610156118325750805b601f850160051c820191505b818110156108a85782815560010161183e565b81516001600160401b0381111561186a5761186a611103565b61187e81611878845461173e565b8461180b565b602080601f8311600181146118b3576000841561189b5750858301515b600019600386901b1c1916600185901b1785556108a8565b600085815260208120601f198616915b828110156118e2578886015182559484019460019091019084016118c3565b50858210156119005787850151600019600388901b60f8161c191681555b5050505050600190811b01905550565b60208082526021908201527f455243313135353a206d696e7420746f20746865207a65726f206164647265736040820152607360f81b606082015260800190565b60208082526028908201527f455243313135353a2069647320616e6420616d6f756e7473206c656e677468206040820152670dad2e6dac2e8c6d60c31b606082015260800190565b808201808211156102c5576102c56117dc565b6040815260006119bf6040830185611523565b82810360208401526119d18185611523565b95945050505050565b60208082526025908201527f455243313135353a207472616e7366657220746f20746865207a65726f206164604082015264647265737360d81b606082015260800190565b6020808252602a908201527f455243313135353a20696e73756666696369656e742062616c616e636520666f60408201526939103a3930b739b332b960b11b606082015260800190565b60208082526023908201527f455243313135353a206275726e2066726f6d20746865207a65726f206164647260408201526265737360e81b606082015260800190565b60208082526024908201527f455243313135353a206275726e20616d6f756e7420657863656564732062616c604082015263616e636560e01b606082015260800190565b6001600160a01b0386811682528516602082015260a060408201819052600090611b1c90830186611523565b8281036060840152611b2e8186611523565b90508281036080840152611b42818561120b565b98975050505050505050565b600060208284031215611b6057600080fd5b81516110fc816110c9565b600060033d1115611b845760046000803e5060005160e01c5b90565b600060443d1015611b955790565b6040516003193d81016004833e81513d6001600160401b038160248401118184111715611bc457505050505090565b8285019150815181811115611bdc5750505050505090565b843d8701016020828501011115611bf65750505050505090565b611c0560208286010187611119565b509095945050505050565b60208082526028908201527f455243313135353a204552433131353552656365697665722072656a656374656040820152676420746f6b656e7360c01b606082015260800190565b6001600160a01b03868116825285166020820152604081018490526060810183905260a060808201819052600090611c929083018461120b565b97965050505050505056fea26469706673582212204f9d56fbc349817e5c77df7e859a56dd4d24743ab01b60e41e6bf430730d8f9764736f6c63430008130033","linkReferences":{}},"methodIdentifiers":{"balanceOf(address,uint256)":"00fdd58e","balanceOfBatch(address[],uint256[])":"4e1273f4","burn(address,uint256,uint256)":"f5298aca","burnBatch(address,uint256[],uint256[])":"6b20c454","isApprovedForAll(address,address)":"e985e9c5","mint(address,uint256,uint256,bytes)":"731133e9","mintBatch(address,uint256[],uint256[],bytes)":"1f7fdffa","safeBatchTransferFrom(address,address,uint256[],uint256[],bytes)":"2eb2c2d6","safeTransferFrom(address,address,uint256,uint256,bytes)":"f242432a","setApprovalForAll(address,bool)":"a22cb465","setURI(string)":"02fe5305","supportsInterface(bytes4)":"01ffc9a7","uri(uint256)":"0e89341c"},"id":39}