{"abi":[{"type":"constructor","inputs":[{"name":"subscriptionId","type":"uint64","internalType":"uint64"},{"name":"gasLane","type":"bytes32","internalType":"bytes32"},{"name":"callbackGasLimit","type":"uint32","internalType":"uint32"},{"name":"vrfCoordinatorV2","type":"address","internalType":"address"}],"stateMutability":"nonpayable"},{"type":"receive","stateMutability":"payable"},{"type":"function","name":"DEFAULT_ADMIN_ROLE","inputs":[],"outputs":[{"name":"","type":"bytes32","internalType":"bytes32"}],"stateMutability":"view"},{"type":"function","name":"addToRaffle","inputs":[{"name":"_usr","type":"address","internalType":"address"},{"name":"_raffleId","type":"bytes32","internalType":"bytes32"}],"outputs":[],"stateMutability":"nonpayable"},{"type":"function","name":"ccip","inputs":[],"outputs":[{"name":"","type":"address","internalType":"contract ITokenTransferor"}],"stateMutability":"view"},{"type":"function","name":"chainlinkRaffleInfo","inputs":[{"name":"","type":"uint256","internalType":"uint256"}],"outputs":[{"name":"id","type":"bytes32","internalType":"bytes32"},{"name":"size","type":"uint256","internalType":"uint256"}],"stateMutability":"view"},{"type":"function","name":"createRaffle","inputs":[{"name":"_raffleType","type":"uint8","internalType":"enum Raffle.RaffleType"},{"name":"_endTime","type":"uint256","internalType":"uint256"},{"name":"_prize","type":"address","internalType":"address"},{"name":"_prizeId","type":"uint256","internalType":"uint256"},{"name":"_prizeAmount","type":"uint256","internalType":"uint256"},{"name":"_entryFee","type":"uint256","internalType":"uint256"}],"outputs":[{"name":"raffleId","type":"bytes32","internalType":"bytes32"}],"stateMutability":"nonpayable"},{"type":"function","name":"enterRaffle","inputs":[{"name":"_raffleId","type":"bytes32","internalType":"bytes32"}],"outputs":[],"stateMutability":"payable"},{"type":"function","name":"entrants","inputs":[{"name":"","type":"uint256","internalType":"uint256"}],"outputs":[{"name":"","type":"address","internalType":"address"}],"stateMutability":"view"},{"type":"function","name":"getRaffleInfo","inputs":[{"name":"_raffleId","type":"bytes32","internalType":"bytes32"}],"outputs":[{"name":"","type":"tuple","internalType":"struct Raffle.RaffleInfo","components":[{"name":"status","type":"uint8","internalType":"enum Raffle.Status"},{"name":"raffleType","type":"uint8","internalType":"enum Raffle.RaffleType"},{"name":"id","type":"bytes32","internalType":"bytes32"},{"name":"endTime","type":"uint256","internalType":"uint256"},{"name":"randomNumber","type":"uint256","internalType":"uint256"},{"name":"prize","type":"address","internalType":"address"},{"name":"prizeId","type":"uint256","internalType":"uint256"},{"name":"prizeAmount","type":"uint256","internalType":"uint256"},{"name":"entryFee","type":"uint256","internalType":"uint256"},{"name":"randomNumberAvailable","type":"bool","internalType":"bool"},{"name":"winner","type":"address","internalType":"address"}]}],"stateMutability":"view"},{"type":"function","name":"getRoleAdmin","inputs":[{"name":"role","type":"bytes32","internalType":"bytes32"}],"outputs":[{"name":"","type":"bytes32","internalType":"bytes32"}],"stateMutability":"view"},{"type":"function","name":"grantRole","inputs":[{"name":"role","type":"bytes32","internalType":"bytes32"},{"name":"account","type":"address","internalType":"address"}],"outputs":[],"stateMutability":"nonpayable"},{"type":"function","name":"hasRole","inputs":[{"name":"role","type":"bytes32","internalType":"bytes32"},{"name":"account","type":"address","internalType":"address"}],"outputs":[{"name":"","type":"bool","internalType":"bool"}],"stateMutability":"view"},{"type":"function","name":"lastRequestId","inputs":[],"outputs":[{"name":"","type":"uint256","internalType":"uint256"}],"stateMutability":"view"},{"type":"function","name":"pickWinner","inputs":[{"name":"_raffleId","type":"bytes32","internalType":"bytes32"}],"outputs":[],"stateMutability":"nonpayable"},{"type":"function","name":"raffle","inputs":[{"name":"","type":"bytes32","internalType":"bytes32"}],"outputs":[{"name":"status","type":"uint8","internalType":"enum Raffle.Status"},{"name":"raffleType","type":"uint8","internalType":"enum Raffle.RaffleType"},{"name":"id","type":"bytes32","internalType":"bytes32"},{"name":"endTime","type":"uint256","internalType":"uint256"},{"name":"randomNumber","type":"uint256","internalType":"uint256"},{"name":"prize","type":"address","internalType":"address"},{"name":"prizeId","type":"uint256","internalType":"uint256"},{"name":"prizeAmount","type":"uint256","internalType":"uint256"},{"name":"entryFee","type":"uint256","internalType":"uint256"},{"name":"randomNumberAvailable","type":"bool","internalType":"bool"},{"name":"winner","type":"address","internalType":"address"}],"stateMutability":"view"},{"type":"function","name":"raffleEntrants","inputs":[{"name":"","type":"bytes32","internalType":"bytes32"},{"name":"","type":"uint256","internalType":"uint256"}],"outputs":[{"name":"","type":"address","internalType":"address"}],"stateMutability":"view"},{"type":"function","name":"raffleEntryIndex","inputs":[{"name":"","type":"bytes32","internalType":"bytes32"},{"name":"","type":"address","internalType":"address"}],"outputs":[{"name":"","type":"uint256","internalType":"uint256"}],"stateMutability":"view"},{"type":"function","name":"rawFulfillRandomWords","inputs":[{"name":"requestId","type":"uint256","internalType":"uint256"},{"name":"randomWords","type":"uint256[]","internalType":"uint256[]"}],"outputs":[],"stateMutability":"nonpayable"},{"type":"function","name":"renounceRole","inputs":[{"name":"role","type":"bytes32","internalType":"bytes32"},{"name":"account","type":"address","internalType":"address"}],"outputs":[],"stateMutability":"nonpayable"},{"type":"function","name":"requestIds","inputs":[{"name":"","type":"uint256","internalType":"uint256"}],"outputs":[{"name":"","type":"uint256","internalType":"uint256"}],"stateMutability":"view"},{"type":"function","name":"revokeRole","inputs":[{"name":"role","type":"bytes32","internalType":"bytes32"},{"name":"account","type":"address","internalType":"address"}],"outputs":[],"stateMutability":"nonpayable"},{"type":"function","name":"s_requests","inputs":[{"name":"","type":"uint256","internalType":"uint256"}],"outputs":[{"name":"fulfilled","type":"bool","internalType":"bool"},{"name":"exists","type":"bool","internalType":"bool"}],"stateMutability":"view"},{"type":"function","name":"supportsInterface","inputs":[{"name":"interfaceId","type":"bytes4","internalType":"bytes4"}],"outputs":[{"name":"","type":"bool","internalType":"bool"}],"stateMutability":"view"},{"type":"function","name":"withdrawERC20TokenFees","inputs":[{"name":"_to","type":"address","internalType":"address"},{"name":"_token","type":"address","internalType":"address"}],"outputs":[],"stateMutability":"nonpayable"},{"type":"function","name":"withdrawEthFees","inputs":[{"name":"_to","type":"address","internalType":"address"}],"outputs":[],"stateMutability":"nonpayable"},{"type":"event","name":"AddedToRaffle","inputs":[{"name":"usr","type":"address","indexed":false,"internalType":"address"},{"name":"raffleId","type":"bytes32","indexed":false,"internalType":"bytes32"}],"anonymous":false},{"type":"event","name":"RequestFulfilled","inputs":[{"name":"requestId","type":"uint256","indexed":false,"internalType":"uint256"},{"name":"randomWords","type":"uint256[]","indexed":false,"internalType":"uint256[]"},{"name":"raffleId","type":"bytes32","indexed":false,"internalType":"bytes32"}],"anonymous":false},{"type":"event","name":"RequestSent","inputs":[{"name":"requestId","type":"uint256","indexed":false,"internalType":"uint256"},{"name":"numWords","type":"uint32","indexed":false,"internalType":"uint32"}],"anonymous":false},{"type":"event","name":"RoleAdminChanged","inputs":[{"name":"role","type":"bytes32","indexed":true,"internalType":"bytes32"},{"name":"previousAdminRole","type":"bytes32","indexed":true,"internalType":"bytes32"},{"name":"newAdminRole","type":"bytes32","indexed":true,"internalType":"bytes32"}],"anonymous":false},{"type":"event","name":"RoleGranted","inputs":[{"name":"role","type":"bytes32","indexed":true,"internalType":"bytes32"},{"name":"account","type":"address","indexed":true,"internalType":"address"},{"name":"sender","type":"address","indexed":true,"internalType":"address"}],"anonymous":false},{"type":"event","name":"RoleRevoked","inputs":[{"name":"role","type":"bytes32","indexed":true,"internalType":"bytes32"},{"name":"account","type":"address","indexed":true,"internalType":"address"},{"name":"sender","type":"address","indexed":true,"internalType":"address"}],"anonymous":false},{"type":"error","name":"AlreadyEntered","inputs":[{"name":"_usr","type":"address","internalType":"address"}]},{"type":"error","name":"InvalidRaffle","inputs":[{"name":"_raffleId","type":"bytes32","internalType":"bytes32"}]},{"type":"error","name":"OnlyCoordinatorCanFulfill","inputs":[{"name":"have","type":"address","internalType":"address"},{"name":"want","type":"address","internalType":"address"}]},{"type":"error","name":"RaffleClosed","inputs":[]},{"type":"error","name":"RaffleStillOpen","inputs":[]}],"bytecode":{"object":"0x6101206040523480156200001257600080fd5b50604051620023af380380620023af83398101604081905262000035916200006b565b600180556001600160a01b0316608081905260a0526001600160401b0390921660c05260e05263ffffffff1661010052620000e5565b600080600080608085870312156200008257600080fd5b84516001600160401b03811681146200009a57600080fd5b60208601516040870151919550935063ffffffff81168114620000bc57600080fd5b60608601519092506001600160a01b0381168114620000da57600080fd5b939692955090935050565b60805160a05160c05160e0516101005161227e620001316000396000611804015260006117a2015260006117d1015260006118350152600081816105c20152610604015261227e6000f3fe60806040526004361061014f5760003560e01c8063948313d7116100b6578063c85faded1161006f578063c85faded14610425578063cf7874a314610445578063d547741f1461048e578063e5e7dcfc146104ae578063e7b4e5ab1461054a578063fc2a88c31461056a57600080fd5b8063948313d71461034057806399a5abd4146103605780639bdfa18e14610373578063a168fa89146103a0578063a217fddf146103f0578063b7f0aaa81461040557600080fd5b806353bca23e1161010857806353bca23e14610250578063671c5ce0146102885780637e77b36b146102c05780638796ba8c146102e05780638f56df3a1461030057806391d148541461032057600080fd5b806301ffc9a71461015b5780631fe543e314610190578063248a9ca3146101b25780632f2ff15d146101f057806336568abe14610210578063507acdb71461023057600080fd5b3661015657005b600080fd5b34801561016757600080fd5b5061017b610176366004611c8c565b610580565b60405190151581526020015b60405180910390f35b34801561019c57600080fd5b506101b06101ab366004611ccc565b6105b7565b005b3480156101be57600080fd5b506101e26101cd366004611d96565b60009081526020819052604090206001015490565b604051908152602001610187565b3480156101fc57600080fd5b506101b061020b366004611dcb565b610644565b34801561021c57600080fd5b506101b061022b366004611dcb565b61066e565b34801561023c57600080fd5b506101b061024b366004611df7565b6106e8565b34801561025c57600080fd5b506101e261026b366004611dcb565b600860209081526000928352604080842090915290825290205481565b34801561029457600080fd5b506102a86102a3366004611e21565b610960565b6040516001600160a01b039091168152602001610187565b3480156102cc57600080fd5b506002546102a8906001600160a01b031681565b3480156102ec57600080fd5b506101e26102fb366004611d96565b610998565b34801561030c57600080fd5b506101b061031b366004611e43565b6109b9565b34801561032c57600080fd5b5061017b61033b366004611dcb565b610a53565b34801561034c57600080fd5b506101b061035b366004611e5e565b610a7c565b6101b061036e366004611d96565b610bb5565b34801561037f57600080fd5b5061039361038e366004611d96565b610e72565b6040516101879190611ec9565b3480156103ac57600080fd5b506103d96103bb366004611d96565b60046020526000908152604090205460ff8082169161010090041682565b604080519215158352901515602083015201610187565b3480156103fc57600080fd5b506101e2600081565b34801561041157600080fd5b506101b0610420366004611d96565b610fc4565b34801561043157600080fd5b506101e2610440366004611f77565b611273565b34801561045157600080fd5b50610479610460366004611d96565b6005602052600090815260409020805460019091015482565b60408051928352602083019190915201610187565b34801561049a57600080fd5b506101b06104a9366004611dcb565b611434565b3480156104ba57600080fd5b506105336104c9366004611d96565b600660208190526000918252604090912080546001820154600283015460038401546004850154600586015496860154600787015460089097015460ff80881699610100988990048216999798969795966001600160a01b0395861696919591939283169204168b565b6040516101879b9a99989796959493929190611fd5565b34801561055657600080fd5b506102a8610565366004611d96565b611459565b34801561057657600080fd5b506101e2600a5481565b60006001600160e01b03198216637965db0b60e01b14806105b157506301ffc9a760e01b6001600160e01b03198316145b92915050565b336001600160a01b037f000000000000000000000000000000000000000000000000000000000000000016146106365760405163073e64fd60e21b81523360048201526001600160a01b037f00000000000000000000000000000000000000000000000000000000000000001660248201526044015b60405180910390fd5b6106408282611483565b5050565b60008281526020819052604090206001015461065f8161169d565b61066983836116aa565b505050565b6001600160a01b03811633146106de5760405162461bcd60e51b815260206004820152602f60248201527f416363657373436f6e74726f6c3a2063616e206f6e6c792072656e6f756e636560448201526e103937b632b9903337b91039b2b63360891b606482015260840161062d565b610640828261172e565b600081815260066020526040808220815161016081019092528054829060ff16600281111561071957610719611e88565b600281111561072a5761072a611e88565b81528154602090910190610100900460ff16600281111561074d5761074d611e88565b600281111561075e5761075e611e88565b815260018201546020808301919091526002830154604080840191909152600380850154606085015260048501546001600160a01b039081166080860152600586015460a0860152600686015460c086015260078087015460e087015260089096015460ff81161515610100808801919091529004166101209094019390935260008781529390915290912080549293506107f892611bec565b5060008151600281111561080e5761080e611e88565b1461082f5760405163ea88069560e01b81526004810183905260240161062d565b806060015142106108535760405163aad504bb60e01b815260040160405180910390fd5b60008281526008602090815260408083206001600160a01b03871684529091529020541561089f5760405163cace269560e01b81526001600160a01b038416600482015260240161062d565b600380546001808201835560008381527fc2575a0e9e593c00f959f8c92f12db2869c3395a3b0502d05e2516446f71f85b90920180546001600160a01b0319166001600160a01b038816179055915490916108f99161205e565b60008481526008602090815260408083206001600160a01b0389168085529083529281902084905580519283529082018690529192507f9440a187284f66513c0bccfc0aca848c3b273f0430e03273fecfa791d12b2fc3910160405180910390a150505050565b6007602052816000526040600020818154811061097c57600080fd5b6000918252602090912001546001600160a01b03169150829050565b600981815481106109a857600080fd5b600091825260209091200154905081565b60405147906000906001600160a01b0384169083908381818185875af1925050503d8060008114610a06576040519150601f19603f3d011682016040523d82523d6000602084013e610a0b565b606091505b50509050806106695760405162461bcd60e51b81526020600482015260146024820152732330b4b632b2103a379039b2b7321022ba3432b960611b604482015260640161062d565b6000918252602082815260408084206001600160a01b0393909316845291905290205460ff1690565b6040516370a0823160e01b81523060048201526000906001600160a01b038316906370a0823190602401602060405180830381865afa158015610ac3573d6000803e3d6000fd5b505050506040513d601f19601f82011682018060405250810190610ae79190612071565b60405163a9059cbb60e01b81526001600160a01b0385811660048301526024820183905291925060009184169063a9059cbb906044016020604051808303816000875af1158015610b3c573d6000803e3d6000fd5b505050506040513d601f19601f82011682018060405250810190610b60919061208a565b905080610baf5760405162461bcd60e51b815260206004820152601b60248201527f4661696c656420455243323020546f6b656e205472616e736665720000000000604482015260640161062d565b50505050565b600081815260066020526040808220815161016081019092528054829060ff166002811115610be657610be6611e88565b6002811115610bf757610bf7611e88565b81528154602090910190610100900460ff166002811115610c1a57610c1a611e88565b6002811115610c2b57610c2b611e88565b815260018201546020808301919091526002830154604080840191909152600380850154606085015260048501546001600160a01b039081166080860152600586015460a0860152600686015460c086015260078087015460e087015260089096015460ff8116151561010080880191909152900416610120909401939093526000878152939091529091208054929350610cc592611bec565b50600081516002811115610cdb57610cdb611e88565b14610cfc5760405163ea88069560e01b81526004810183905260240161062d565b80606001514210610d205760405163aad504bb60e01b815260040160405180910390fd5b6000816101000151118015610d3a57508061010001513414155b15610d89578061010001513414610d895760405162461bcd60e51b81526020600482015260136024820152724d7573742073656e6420656e7472792066656560681b604482015260640161062d565b600082815260086020908152604080832033845290915290205415610dc35760405163cace269560e01b815233600482015260240161062d565b600380546001818101835560008381527fc2575a0e9e593c00f959f8c92f12db2869c3395a3b0502d05e2516446f71f85b90920180546001600160a01b0319163317905591549091610e149161205e565b6000848152600860209081526040808320338085529083529281902084905580519283529082018690529192507f9440a187284f66513c0bccfc0aca848c3b273f0430e03273fecfa791d12b2fc391015b60405180910390a1505050565b610ed260408051610160810190915280600081526020016000815260006020820181905260408201819052606082018190526080820181905260a0820181905260c0820181905260e0820181905261010082018190526101209091015290565b60008281526006602052604090819020815161016081019092528054829060ff166002811115610f0457610f04611e88565b6002811115610f1557610f15611e88565b81528154602090910190610100900460ff166002811115610f3857610f38611e88565b6002811115610f4957610f49611e88565b815260018201546020820152600282015460408201526003820154606082015260048201546001600160a01b039081166080830152600583015460a0830152600683015460c0830152600783015460e083015260089092015460ff811615156101008084019190915290049091166101209091015292915050565b600081815260066020526040808220815161016081019092528054829060ff166002811115610ff557610ff5611e88565b600281111561100657611006611e88565b81528154602090910190610100900460ff16600281111561102957611029611e88565b600281111561103a5761103a611e88565b815260018201546020808301919091526002830154604080840191909152600380850154606085015260048501546001600160a01b039081166080860152600586015460a0860152600686015460c086015260078087015460e087015260089096015460ff81161515610100808801919091529004166101209094019390935260008781529390915290912080549293506110d492611bec565b5080606001514210156110fa57604051634ac0e46760e01b815260040160405180910390fd5b60018160200151600281111561111257611112611e88565b1461116d5760008160200151600281111561112f5761112f611e88565b1461116d5760028160200151600281111561114c5761114c611e88565b1461116d5760405163ea88069560e01b81526004810183905260240161062d565b60018082526000838152600660205260409020825181548493839160ff19169083600281111561119f5761119f611e88565b021790555060208201518154829061ff0019166101008360028111156111c7576111c7611e88565b021790555060408201516001820155606082015160028201556080820151600382015560a08201516004820180546001600160a01b0319166001600160a01b0392831617905560c0830151600583015560e0830151600683015561010080840151600784015561012084015160089093018054610140909501516001600160a81b0319909516931515610100600160a81b03191693909317939091160291909117905561066982611793565b600042336040516020016112a392919091825260601b6bffffffffffffffffffffffff1916602082015260340190565b60408051601f19818403018152828252805160209091012061016083019091529150600090808281526020018960028111156112e1576112e1611e88565b8152602080820185905260408083018b90526000606084018190526001600160a01b038b16608085015260a084018a905260c0840189905260e08401889052610100840181905261012090930183905285835260069091529020815181549293508392829060ff1916600183600281111561135e5761135e611e88565b021790555060208201518154829061ff00191661010083600281111561138657611386611e88565b021790555060408201516001820155606082015160028201556080820151600382015560a08201516004820180546001600160a01b0319166001600160a01b0392831617905560c0830151600583015560e0830151600683015561010080840151600784015561012084015160089093018054610140909501516001600160a81b0319909516931515610100600160a81b031916939093179390911602919091179055509695505050505050565b60008281526020819052604090206001015461144f8161169d565b610669838361172e565b6003818154811061146957600080fd5b6000918252602090912001546001600160a01b0316905081565b600082815260046020526040902054610100900460ff166114da5760405162461bcd60e51b81526020600482015260116024820152701c995c5d595cdd081b9bdd08199bdd5b99607a1b604482015260640161062d565b6000828152600460209081526040909120805460ff191660019081178255835161150b939290910191840190611c3c565b5060008281526005602090815260408083205483526006909152808220815161016081019092528054829060ff16600281111561154a5761154a611e88565b600281111561155b5761155b611e88565b81528154602090910190610100900460ff16600281111561157e5761157e611e88565b600281111561158f5761158f611e88565b815260018281015460208084019190915260028401546040808501919091526003850154606085015260048501546001600160a01b03908116608086015260058087015460a0870152600687015460c0870152600787015460e087015260089096015460ff81161515610100808801919091529004166101209094019390935260008881529390529082200154845192935091849190611631576116316120ac565b602002602001015161164391906120c2565b61164e9060016120e4565b60808201526001610120820152600083815260056020526040908190205490517f62aaf02bf5ede75298ad389e3d4f46deac85c972c52075647ff8856089a8ef6b91610e6591869186916120f7565b6116a781336119de565b50565b6116b48282610a53565b610640576000828152602081815260408083206001600160a01b03851684529091529020805460ff191660011790556116ea3390565b6001600160a01b0316816001600160a01b0316837f2f8788117e7eff1d82e926ec794901d17c78024a50270940304540a733656f0d60405160405180910390a45050565b6117388282610a53565b15610640576000828152602081815260408083206001600160a01b0385168085529252808320805460ff1916905551339285917ff6391f5c32d9c69d2a47ea670b442974b53935d1edc7fd64eb21e047a839171b9190a45050565b6040516305d3b1d360e41b81527f0000000000000000000000000000000000000000000000000000000000000000600482015267ffffffffffffffff7f00000000000000000000000000000000000000000000000000000000000000001660248201526005604482015263ffffffff7f0000000000000000000000000000000000000000000000000000000000000000166064820152600160848201526000907f00000000000000000000000000000000000000000000000000000000000000006001600160a01b031690635d3b1d309060a4016020604051808303816000875af1158015611886573d6000803e3d6000fd5b505050506040513d601f19601f820116820180604052508101906118aa9190612071565b6040805160608101825260008082526001602080840182815285518481528083018752858701908152878552600483529590932084518154945161ffff1990951690151561ff0019161761010094151594909402939093178355935180519596509294919361191f9391850192910190611c3c565b50506009805460018181019092557f6e1540171b6c0c960b71a7020d9f60077f6af931a8bbf590da0223dacf75c7af01839055600a839055600084815260076020526040812054909250611973919061205e565b604080518082018252858152602080820184815260008781526005835284902092518355516001928301558251868152908101919091529192507fcc58b13ad3eab50626c6a6300b1d139cd6ebb1688a7cced9461c2f7e762665ee910160405180910390a150919050565b6119e88282610a53565b610640576119f581611a37565b611a00836020611a49565b604051602001611a11929190612172565b60408051601f198184030181529082905262461bcd60e51b825261062d916004016121e7565b60606105b16001600160a01b03831660145b60606000611a5883600261221a565b611a639060026120e4565b67ffffffffffffffff811115611a7b57611a7b611cb6565b6040519080825280601f01601f191660200182016040528015611aa5576020820181803683370190505b509050600360fc1b81600081518110611ac057611ac06120ac565b60200101906001600160f81b031916908160001a905350600f60fb1b81600181518110611aef57611aef6120ac565b60200101906001600160f81b031916908160001a9053506000611b1384600261221a565b611b1e9060016120e4565b90505b6001811115611b96576f181899199a1a9b1b9c1cb0b131b232b360811b85600f1660108110611b5257611b526120ac565b1a60f81b828281518110611b6857611b686120ac565b60200101906001600160f81b031916908160001a90535060049490941c93611b8f81612231565b9050611b21565b508315611be55760405162461bcd60e51b815260206004820181905260248201527f537472696e67733a20686578206c656e67746820696e73756666696369656e74604482015260640161062d565b9392505050565b828054828255906000526020600020908101928215611c2c5760005260206000209182015b82811115611c2c578254825591600101919060010190611c11565b50611c38929150611c77565b5090565b828054828255906000526020600020908101928215611c2c579160200282015b82811115611c2c578251825591602001919060010190611c5c565b5b80821115611c385760008155600101611c78565b600060208284031215611c9e57600080fd5b81356001600160e01b031981168114611be557600080fd5b634e487b7160e01b600052604160045260246000fd5b60008060408385031215611cdf57600080fd5b8235915060208084013567ffffffffffffffff80821115611cff57600080fd5b818601915086601f830112611d1357600080fd5b813581811115611d2557611d25611cb6565b8060051b604051601f19603f83011681018181108582111715611d4a57611d4a611cb6565b604052918252848201925083810185019189831115611d6857600080fd5b938501935b82851015611d8657843584529385019392850192611d6d565b8096505050505050509250929050565b600060208284031215611da857600080fd5b5035919050565b80356001600160a01b0381168114611dc657600080fd5b919050565b60008060408385031215611dde57600080fd5b82359150611dee60208401611daf565b90509250929050565b60008060408385031215611e0a57600080fd5b611e1383611daf565b946020939093013593505050565b60008060408385031215611e3457600080fd5b50508035926020909101359150565b600060208284031215611e5557600080fd5b611be582611daf565b60008060408385031215611e7157600080fd5b611e7a83611daf565b9150611dee60208401611daf565b634e487b7160e01b600052602160045260246000fd5b600381106116a757634e487b7160e01b600052602160045260246000fd5b611ec581611e9e565b9052565b600061016082019050611edd828451611ebc565b6020830151611eef6020840182611ebc565b5060408301516040830152606083015160608301526080830151608083015260a0830151611f2860a08401826001600160a01b03169052565b5060c083015160c083015260e083015160e083015261010080840151818401525061012080840151611f5d8285018215159052565b5050610140928301516001600160a01b0316919092015290565b60008060008060008060c08789031215611f9057600080fd5b863560038110611f9f57600080fd5b955060208701359450611fb460408801611daf565b9350606087013592506080870135915060a087013590509295509295509295565b6101608101611fe38d611e9e565b8c8252611fef8c611e9e565b602082019b909b526040810199909952606089019790975260808801959095526001600160a01b0393841660a088015260c087019290925260e08601526101008501529015156101208401521661014090910152919050565b634e487b7160e01b600052601160045260246000fd5b818103818111156105b1576105b1612048565b60006020828403121561208357600080fd5b5051919050565b60006020828403121561209c57600080fd5b81518015158114611be557600080fd5b634e487b7160e01b600052603260045260246000fd5b6000826120df57634e487b7160e01b600052601260045260246000fd5b500690565b808201808211156105b1576105b1612048565b6000606082018583526020606081850152818651808452608086019150828801935060005b818110156121385784518352938301939183019160010161211c565b5050809350505050826040830152949350505050565b60005b83811015612169578181015183820152602001612151565b50506000910152565b7f416363657373436f6e74726f6c3a206163636f756e74200000000000000000008152600083516121aa81601785016020880161214e565b7001034b99036b4b9b9b4b733903937b6329607d1b60179184019182015283516121db81602884016020880161214e565b01602801949350505050565b602081526000825180602084015261220681604085016020870161214e565b601f01601f19169190910160400192915050565b80820281158282048414176105b1576105b1612048565b60008161224057612240612048565b50600019019056fea2646970667358221220cc8c1c6edb6a03a898caab5f94f55167056d82cb0a7a826e4f1cf163e38f181264736f6c63430008130033","linkReferences":{}},"methodIdentifiers":{"DEFAULT_ADMIN_ROLE()":"a217fddf","addToRaffle(address,bytes32)":"507acdb7","ccip()":"7e77b36b","chainlinkRaffleInfo(uint256)":"cf7874a3","createRaffle(uint8,uint256,address,uint256,uint256,uint256)":"c85faded","enterRaffle(bytes32)":"99a5abd4","entrants(uint256)":"e7b4e5ab","getRaffleInfo(bytes32)":"9bdfa18e","getRoleAdmin(bytes32)":"248a9ca3","grantRole(bytes32,address)":"2f2ff15d","hasRole(bytes32,address)":"91d14854","lastRequestId()":"fc2a88c3","pickWinner(bytes32)":"b7f0aaa8","raffle(bytes32)":"e5e7dcfc","raffleEntrants(bytes32,uint256)":"671c5ce0","raffleEntryIndex(bytes32,address)":"53bca23e","rawFulfillRandomWords(uint256,uint256[])":"1fe543e3","renounceRole(bytes32,address)":"36568abe","requestIds(uint256)":"8796ba8c","revokeRole(bytes32,address)":"d547741f","s_requests(uint256)":"a168fa89","supportsInterface(bytes4)":"01ffc9a7","withdrawERC20TokenFees(address,address)":"948313d7","withdrawEthFees(address)":"8f56df3a"},"id":3}