{"abi":[{"type":"constructor","inputs":[{"name":"subscriptionId","type":"uint64","internalType":"uint64"},{"name":"gasLane","type":"bytes32","internalType":"bytes32"},{"name":"callbackGasLimit","type":"uint32","internalType":"uint32"},{"name":"vrfCoordinatorV2","type":"address","internalType":"address"}],"stateMutability":"nonpayable"},{"type":"receive","stateMutability":"payable"},{"type":"function","name":"addToRaffle","inputs":[{"name":"_usr","type":"address","internalType":"address"},{"name":"_raffleId","type":"bytes32","internalType":"bytes32"}],"outputs":[],"stateMutability":"nonpayable"},{"type":"function","name":"ccip","inputs":[],"outputs":[{"name":"","type":"address","internalType":"contract ITokenTransferor"}],"stateMutability":"view"},{"type":"function","name":"chainlinkRaffleInfo","inputs":[{"name":"","type":"uint256","internalType":"uint256"}],"outputs":[{"name":"id","type":"bytes32","internalType":"bytes32"},{"name":"size","type":"uint256","internalType":"uint256"}],"stateMutability":"view"},{"type":"function","name":"changeGasLimit","inputs":[{"name":"_newGasLimit","type":"uint32","internalType":"uint32"}],"outputs":[],"stateMutability":"nonpayable"},{"type":"function","name":"checkUpkeep","inputs":[{"name":"","type":"bytes","internalType":"bytes"}],"outputs":[{"name":"upkeepNeeded","type":"bool","internalType":"bool"},{"name":"performData","type":"bytes","internalType":"bytes"}],"stateMutability":"view"},{"type":"function","name":"createRaffle","inputs":[{"name":"_raffleType","type":"uint8","internalType":"enum Raffle.RaffleType"},{"name":"_endTime","type":"uint256","internalType":"uint256"},{"name":"_prize","type":"address","internalType":"address"},{"name":"_prizeId","type":"uint256","internalType":"uint256"},{"name":"_prizeAmount","type":"uint256","internalType":"uint256"},{"name":"_entryFee","type":"uint256","internalType":"uint256"}],"outputs":[{"name":"raffleId","type":"bytes32","internalType":"bytes32"}],"stateMutability":"nonpayable"},{"type":"function","name":"endRaffle","inputs":[{"name":"_raffleId","type":"bytes32","internalType":"bytes32"}],"outputs":[{"name":"winner","type":"address","internalType":"address"}],"stateMutability":"nonpayable"},{"type":"function","name":"enterRaffle","inputs":[{"name":"_raffleId","type":"bytes32","internalType":"bytes32"}],"outputs":[],"stateMutability":"payable"},{"type":"function","name":"entrantsArray","inputs":[{"name":"","type":"uint256","internalType":"uint256"}],"outputs":[{"name":"","type":"address","internalType":"address"}],"stateMutability":"view"},{"type":"function","name":"getCurrentGasLimit","inputs":[],"outputs":[{"name":"","type":"uint32","internalType":"uint32"}],"stateMutability":"view"},{"type":"function","name":"getRaffleCreator","inputs":[{"name":"_raffleId","type":"bytes32","internalType":"bytes32"}],"outputs":[{"name":"","type":"address","internalType":"address"}],"stateMutability":"view"},{"type":"function","name":"getRaffleEntrantsArray","inputs":[{"name":"_raffleId","type":"bytes32","internalType":"bytes32"}],"outputs":[{"name":"","type":"address[]","internalType":"address[]"}],"stateMutability":"view"},{"type":"function","name":"getRaffleInfo","inputs":[{"name":"_raffleId","type":"bytes32","internalType":"bytes32"}],"outputs":[{"name":"","type":"tuple","internalType":"struct Raffle.RaffleInfo","components":[{"name":"status","type":"uint8","internalType":"enum Raffle.Status"},{"name":"raffleType","type":"uint8","internalType":"enum Raffle.RaffleType"},{"name":"id","type":"bytes32","internalType":"bytes32"},{"name":"endTime","type":"uint256","internalType":"uint256"},{"name":"randomNumber","type":"uint256","internalType":"uint256"},{"name":"prize","type":"address","internalType":"address"},{"name":"prizeId","type":"uint256","internalType":"uint256"},{"name":"prizeAmount","type":"uint256","internalType":"uint256"},{"name":"entryFee","type":"uint256","internalType":"uint256"},{"name":"randomNumberAvailable","type":"bool","internalType":"bool"},{"name":"winner","type":"address","internalType":"address"}]}],"stateMutability":"view"},{"type":"function","name":"lastRequestId","inputs":[],"outputs":[{"name":"","type":"uint256","internalType":"uint256"}],"stateMutability":"view"},{"type":"function","name":"onERC1155BatchReceived","inputs":[{"name":"","type":"address","internalType":"address"},{"name":"","type":"address","internalType":"address"},{"name":"","type":"uint256[]","internalType":"uint256[]"},{"name":"","type":"uint256[]","internalType":"uint256[]"},{"name":"","type":"bytes","internalType":"bytes"}],"outputs":[{"name":"","type":"bytes4","internalType":"bytes4"}],"stateMutability":"pure"},{"type":"function","name":"onERC1155Received","inputs":[{"name":"","type":"address","internalType":"address"},{"name":"","type":"address","internalType":"address"},{"name":"","type":"uint256","internalType":"uint256"},{"name":"","type":"uint256","internalType":"uint256"},{"name":"","type":"bytes","internalType":"bytes"}],"outputs":[{"name":"","type":"bytes4","internalType":"bytes4"}],"stateMutability":"pure"},{"type":"function","name":"onERC721Received","inputs":[{"name":"","type":"address","internalType":"address"},{"name":"","type":"address","internalType":"address"},{"name":"","type":"uint256","internalType":"uint256"},{"name":"","type":"bytes","internalType":"bytes"}],"outputs":[{"name":"","type":"bytes4","internalType":"bytes4"}],"stateMutability":"pure"},{"type":"function","name":"owner","inputs":[],"outputs":[{"name":"","type":"address","internalType":"address"}],"stateMutability":"view"},{"type":"function","name":"performUpkeep","inputs":[{"name":"performData","type":"bytes","internalType":"bytes"}],"outputs":[],"stateMutability":"nonpayable"},{"type":"function","name":"pickWinner","inputs":[{"name":"_raffleId","type":"bytes32","internalType":"bytes32"}],"outputs":[{"name":"requestId","type":"uint256","internalType":"uint256"}],"stateMutability":"nonpayable"},{"type":"function","name":"raffle","inputs":[{"name":"","type":"bytes32","internalType":"bytes32"}],"outputs":[{"name":"status","type":"uint8","internalType":"enum Raffle.Status"},{"name":"raffleType","type":"uint8","internalType":"enum Raffle.RaffleType"},{"name":"id","type":"bytes32","internalType":"bytes32"},{"name":"endTime","type":"uint256","internalType":"uint256"},{"name":"randomNumber","type":"uint256","internalType":"uint256"},{"name":"prize","type":"address","internalType":"address"},{"name":"prizeId","type":"uint256","internalType":"uint256"},{"name":"prizeAmount","type":"uint256","internalType":"uint256"},{"name":"entryFee","type":"uint256","internalType":"uint256"},{"name":"randomNumberAvailable","type":"bool","internalType":"bool"},{"name":"winner","type":"address","internalType":"address"}],"stateMutability":"view"},{"type":"function","name":"raffleCreator","inputs":[{"name":"","type":"bytes32","internalType":"bytes32"}],"outputs":[{"name":"","type":"address","internalType":"address"}],"stateMutability":"view"},{"type":"function","name":"raffleEntrants","inputs":[{"name":"","type":"bytes32","internalType":"bytes32"},{"name":"","type":"uint256","internalType":"uint256"}],"outputs":[{"name":"","type":"address","internalType":"address"}],"stateMutability":"view"},{"type":"function","name":"raffleEntryIndex","inputs":[{"name":"","type":"bytes32","internalType":"bytes32"},{"name":"","type":"address","internalType":"address"}],"outputs":[{"name":"","type":"uint256","internalType":"uint256"}],"stateMutability":"view"},{"type":"function","name":"raffleIds","inputs":[{"name":"","type":"uint256","internalType":"uint256"}],"outputs":[{"name":"","type":"bytes32","internalType":"bytes32"}],"stateMutability":"view"},{"type":"function","name":"rawFulfillRandomWords","inputs":[{"name":"requestId","type":"uint256","internalType":"uint256"},{"name":"randomWords","type":"uint256[]","internalType":"uint256[]"}],"outputs":[],"stateMutability":"nonpayable"},{"type":"function","name":"renounceOwnership","inputs":[],"outputs":[],"stateMutability":"nonpayable"},{"type":"function","name":"requestIds","inputs":[{"name":"","type":"uint256","internalType":"uint256"}],"outputs":[{"name":"","type":"uint256","internalType":"uint256"}],"stateMutability":"view"},{"type":"function","name":"s_requests","inputs":[{"name":"","type":"uint256","internalType":"uint256"}],"outputs":[{"name":"fulfilled","type":"bool","internalType":"bool"},{"name":"exists","type":"bool","internalType":"bool"}],"stateMutability":"view"},{"type":"function","name":"stakePrize","inputs":[{"name":"_raffleId","type":"bytes32","internalType":"bytes32"}],"outputs":[],"stateMutability":"nonpayable"},{"type":"function","name":"transferOwnership","inputs":[{"name":"newOwner","type":"address","internalType":"address"}],"outputs":[],"stateMutability":"nonpayable"},{"type":"function","name":"withdrawERC1155","inputs":[{"name":"_to","type":"address","internalType":"address"},{"name":"_token","type":"address","internalType":"address"},{"name":"_tokenId","type":"uint256","internalType":"uint256"},{"name":"_amount","type":"uint256","internalType":"uint256"}],"outputs":[],"stateMutability":"nonpayable"},{"type":"function","name":"withdrawERC20TokenFees","inputs":[{"name":"_to","type":"address","internalType":"address"},{"name":"_token","type":"address","internalType":"address"}],"outputs":[],"stateMutability":"nonpayable"},{"type":"function","name":"withdrawERC721","inputs":[{"name":"_to","type":"address","internalType":"address"},{"name":"_token","type":"address","internalType":"address"},{"name":"_tokenId","type":"uint256","internalType":"uint256"}],"outputs":[],"stateMutability":"nonpayable"},{"type":"function","name":"withdrawEthFees","inputs":[{"name":"_to","type":"address","internalType":"address"}],"outputs":[],"stateMutability":"nonpayable"},{"type":"event","name":"AddedToRaffle","inputs":[{"name":"usr","type":"address","indexed":false,"internalType":"address"},{"name":"raffleId","type":"bytes32","indexed":false,"internalType":"bytes32"}],"anonymous":false},{"type":"event","name":"OwnershipTransferred","inputs":[{"name":"previousOwner","type":"address","indexed":true,"internalType":"address"},{"name":"newOwner","type":"address","indexed":true,"internalType":"address"}],"anonymous":false},{"type":"event","name":"RaffleCreated","inputs":[{"name":"raffleId","type":"bytes32","indexed":false,"internalType":"bytes32"},{"name":"endTime","type":"uint256","indexed":false,"internalType":"uint256"}],"anonymous":false},{"type":"event","name":"RaffleEnded","inputs":[{"name":"raffleId","type":"bytes32","indexed":false,"internalType":"bytes32"},{"name":"winner","type":"address","indexed":false,"internalType":"address"}],"anonymous":false},{"type":"event","name":"RaffleStarted","inputs":[{"name":"raffleId","type":"bytes32","indexed":false,"internalType":"bytes32"}],"anonymous":false},{"type":"event","name":"RequestFulfilled","inputs":[{"name":"requestId","type":"uint256","indexed":false,"internalType":"uint256"},{"name":"randomWords","type":"uint256[]","indexed":false,"internalType":"uint256[]"},{"name":"raffleId","type":"bytes32","indexed":false,"internalType":"bytes32"}],"anonymous":false},{"type":"event","name":"RequestSent","inputs":[{"name":"requestId","type":"uint256","indexed":false,"internalType":"uint256"},{"name":"numWords","type":"uint32","indexed":false,"internalType":"uint32"}],"anonymous":false},{"type":"error","name":"AlreadyEntered","inputs":[{"name":"_usr","type":"address","internalType":"address"}]},{"type":"error","name":"InvalidRaffle","inputs":[{"name":"_raffleId","type":"bytes32","internalType":"bytes32"}]},{"type":"error","name":"InvalidRaffleState","inputs":[{"name":"_status","type":"uint8","internalType":"enum Raffle.Status"}]},{"type":"error","name":"OnlyCoordinatorCanFulfill","inputs":[{"name":"have","type":"address","internalType":"address"},{"name":"want","type":"address","internalType":"address"}]},{"type":"error","name":"RaffleClosed","inputs":[]},{"type":"error","name":"RaffleStillOpen","inputs":[]},{"type":"error","name":"RandomNumberNotAvailable","inputs":[{"name":"_raffleId","type":"bytes32","internalType":"bytes32"}]}],"bytecode":{"object":"0x6101006040523480156200001257600080fd5b50604051620033de380380620033de8339810160408190526200003591620000d8565b80620000413362000088565b600180556001600160a01b039081166080521660a0526001600160401b039290921660c05260e052600d805463ffffffff191663ffffffff90921691909117905562000152565b600080546001600160a01b038381166001600160a01b0319831681178455604051919092169283917f8be0079c531659141344cd1fd0a4f28419497f9722a3daafe3b4186f6b6457e09190a35050565b60008060008060808587031215620000ef57600080fd5b84516001600160401b03811681146200010757600080fd5b60208601516040870151919550935063ffffffff811681146200012957600080fd5b60608601519092506001600160a01b03811681146200014757600080fd5b939692955090935050565b60805160a05160c05160e05161324b620001936000396000611c9601526000611cc401526000611d0901526000818161088001526108c2015261324b6000f3fe6080604052600436106102085760003560e01c80638f56df3a11610118578063bc197c81116100a0578063d65cd0101161006f578063d65cd010146106e4578063e5e7dcfc14610709578063f23a6e61146107a6578063f2fde38b146107d3578063fc2a88c3146107f357600080fd5b8063bc197c811461062c578063c1bccb3c1461065b578063c85faded1461067b578063cf7874a31461069b57600080fd5b80639e6c391c116100e75780639e6c391c1461055c578063a0edb48b1461057c578063a168fa891461059c578063adbe23fe146105ec578063b7f0aaa81461060c57600080fd5b80638f56df3a146104dc578063948313d7146104fc57806399a5abd41461051c5780639bdfa18e1461052f57600080fd5b8063577bc4e41161019b5780637e77b36b1161016a5780637e77b36b146104285780637ee41f731461044857806385da5679146104685780638796ba8c1461049e5780638da5cb5b146104be57600080fd5b8063577bc4e414610377578063671c5ce0146103c55780636e04ff0d146103e5578063715018a61461041357600080fd5b80634025feb2116101d75780634025feb2146102d15780634585e33b146102f1578063507acdb71461031157806353bca23e1461033157600080fd5b80631408a43414610214578063150b7a021461024a5780631fe543e31461028f57806335b9f359146102b157600080fd5b3661020f57005b600080fd5b34801561022057600080fd5b5061023461022f36600461285a565b610809565b6040516102419190612873565b60405180910390f35b34801561025657600080fd5b50610276610265366004612924565b630a85bd0160e11b95945050505050565b6040516001600160e01b03199091168152602001610241565b34801561029b57600080fd5b506102af6102aa3660046129d8565b610875565b005b3480156102bd57600080fd5b506102af6102cc366004612a89565b610902565b3480156102dd57600080fd5b506102af6102ec366004612aaf565b610926565b3480156102fd57600080fd5b506102af61030c366004612aeb565b61099b565b34801561031d57600080fd5b506102af61032c366004612b2c565b610aed565b34801561033d57600080fd5b5061036961034c366004612b56565b600960209081526000928352604080842090915290825290205481565b604051908152602001610241565b34801561038357600080fd5b506103ad61039236600461285a565b6000908152600a60205260409020546001600160a01b031690565b6040516001600160a01b039091168152602001610241565b3480156103d157600080fd5b506103ad6103e0366004612b82565b610d36565b3480156103f157600080fd5b50610405610400366004612ba4565b610d6e565b604051610241929190612c38565b34801561041f57600080fd5b506102af610e06565b34801561043457600080fd5b506002546103ad906001600160a01b031681565b34801561045457600080fd5b5061036961046336600461285a565b610e1a565b34801561047457600080fd5b506103ad61048336600461285a565b600a602052600090815260409020546001600160a01b031681565b3480156104aa57600080fd5b506103696104b936600461285a565b610e3b565b3480156104ca57600080fd5b506000546001600160a01b03166103ad565b3480156104e857600080fd5b506102af6104f7366004612c90565b610e4b565b34801561050857600080fd5b506102af610517366004612cab565b610ef2565b6102af61052a36600461285a565b611033565b34801561053b57600080fd5b5061054f61054a36600461285a565b6112ee565b6040516102419190612d0f565b34801561056857600080fd5b506103ad61057736600461285a565b611440565b34801561058857600080fd5b506102af610597366004612dbd565b61146a565b3480156105a857600080fd5b506105d56105b736600461285a565b60056020526000908152604090205460ff8082169161010090041682565b604080519215158352901515602083015201610241565b3480156105f857600080fd5b506103ad61060736600461285a565b6114dc565b34801561061857600080fd5b5061036961062736600461285a565b61165a565b34801561063857600080fd5b50610276610647366004612e43565b63bc197c8160e01b98975050505050505050565b34801561066757600080fd5b506102af61067636600461285a565b611787565b34801561068757600080fd5b50610369610696366004612efd565b6117e9565b3480156106a757600080fd5b506106cf6106b636600461285a565b6006602052600090815260409020805460019091015482565b60408051928352602083019190915201610241565b3480156106f057600080fd5b50600d5460405163ffffffff9091168152602001610241565b34801561071557600080fd5b5061078f61072436600461285a565b600760208190526000918252604090912080546001820154600283015460038401546004850154600586015460068701549787015460089097015460ff80881699610100988990048216999798969795966001600160a01b039586169694959194939283169204168b565b6040516102419b9a99989796959493929190612f5b565b3480156107b257600080fd5b506102766107c1366004612fcb565b63f23a6e6160e01b9695505050505050565b3480156107df57600080fd5b506102af6107ee366004612c90565b611a64565b3480156107ff57600080fd5b50610369600c5481565b60008181526008602090815260409182902080548351818402810184019094528084526060939283018282801561086957602002820191906000526020600020905b81546001600160a01b0316815260019091019060200180831161084b575b50505050509050919050565b336001600160a01b037f000000000000000000000000000000000000000000000000000000000000000016146108f45760405163073e64fd60e21b81523360048201526001600160a01b037f00000000000000000000000000000000000000000000000000000000000000001660248201526044015b60405180910390fd5b6108fe8282611add565b5050565b61090a611c2a565b600d805463ffffffff191663ffffffff92909216919091179055565b61092e611c2a565b604051632142170760e11b81523060048201526001600160a01b038481166024830152604482018390528316906342842e0e90606401600060405180830381600087803b15801561097e57600080fd5b505af1158015610992573d6000803e3d6000fd5b50505050505050565b60006109a98284018461285a565b600081815260076020908152604080832081519283019091528282529293506109d190610d6e565b50905080610a155760405162461bcd60e51b8152602060048201526011602482015270155c1ad9595c081b9bdd081b9959591959607a1b60448201526064016108eb565b6001825460ff166003811115610a2d57610a2d612cd5565b14610a735760405162461bcd60e51b8152602060048201526016602482015275526166666c6520696e2077726f6e672073746174757360501b60448201526064016108eb565b42826002015410610ad15760405162461bcd60e51b815260206004820152602260248201527f526166666c65206e6f742065787069726564206f7220736f6c64206f75742079604482015261195d60f21b60648201526084016108eb565b815460ff19166002178255610ae583611c84565b505050505050565b610af5611c2a565b600081815260076020526040808220815161016081019092528054829060ff166003811115610b2657610b26612cd5565b6003811115610b3757610b37612cd5565b81528154602090910190610100900460ff166002811115610b5a57610b5a612cd5565b6002811115610b6b57610b6b612cd5565b81526001828101546020830152600283015460408301526003830154606083015260048301546001600160a01b039081166080840152600584015460a0840152600684015460c0840152600784015460e084015260089093015460ff811615156101008085019190915290049092166101209091015290915081516003811115610bf757610bf7612cd5565b14610c185760405163ea88069560e01b8152600481018390526024016108eb565b80606001514210610c3c5760405163aad504bb60e01b815260040160405180910390fd5b60008281526009602090815260408083206001600160a01b038716845290915290205415610c885760405163cace269560e01b81526001600160a01b03841660048201526024016108eb565b600082815260086020908152604082208054600180820183558285529284200180546001600160a01b0319166001600160a01b03881617905584835254610ccf9190613058565b60008481526009602090815260408083206001600160a01b0389168085529083529281902084905580519283529082018690529192507f9440a187284f66513c0bccfc0aca848c3b273f0430e03273fecfa791d12b2fc3910160405180910390a150505050565b60086020528160005260406000208181548110610d5257600080fd5b6000918252602090912001546001600160a01b03169150829050565b6000606060005b600454811015610e0057600060048281548110610d9457610d94613071565b9060005260206000200154905060006007600083815260200190815260200160002090504281600201541094508415610deb5760408051602081018490520160405160208183030381529060405293505050610e00565b50508080610df890613087565b915050610d75565b50915091565b610e0e611c2a565b610e186000611eb2565b565b60048181548110610e2a57600080fd5b600091825260209091200154905081565b600b8181548110610e2a57600080fd5b610e53611c2a565b60405147906000906001600160a01b0384169083908381818185875af1925050503d8060008114610ea0576040519150601f19603f3d011682016040523d82523d6000602084013e610ea5565b606091505b5050905080610eed5760405162461bcd60e51b81526020600482015260146024820152732330b4b632b2103a379039b2b7321022ba3432b960611b60448201526064016108eb565b505050565b610efa611c2a565b6040516370a0823160e01b81523060048201526000906001600160a01b038316906370a0823190602401602060405180830381865afa158015610f41573d6000803e3d6000fd5b505050506040513d601f19601f82011682018060405250810190610f6591906130a0565b60405163a9059cbb60e01b81526001600160a01b0385811660048301526024820183905291925060009184169063a9059cbb906044016020604051808303816000875af1158015610fba573d6000803e3d6000fd5b505050506040513d601f19601f82011682018060405250810190610fde91906130b9565b90508061102d5760405162461bcd60e51b815260206004820152601b60248201527f4661696c656420455243323020546f6b656e205472616e73666572000000000060448201526064016108eb565b50505050565b600081815260076020526040808220815161016081019092528054829060ff16600381111561106457611064612cd5565b600381111561107557611075612cd5565b81528154602090910190610100900460ff16600281111561109857611098612cd5565b60028111156110a9576110a9612cd5565b815260018201546020808301919091526002830154604080840191909152600380850154606085015260048501546001600160a01b039081166080860152600586015460a0860152600686015460c0860152600786015460e086015260089586015460ff8116151561010080880191909152900416610120909401939093526000878152939091529091208054929350611142926127ba565b5060018151600381111561115857611158612cd5565b146111795760405163ea88069560e01b8152600481018390526024016108eb565b8060600151421061119d5760405163aad504bb60e01b815260040160405180910390fd5b60008161010001511180156111b757508061010001513414155b156112065780610100015134146112065760405162461bcd60e51b81526020600482015260136024820152724d7573742073656e6420656e7472792066656560681b60448201526064016108eb565b6000828152600960209081526040808320338452909152902054156112405760405163cace269560e01b81523360048201526024016108eb565b600380546001818101835560008381527fc2575a0e9e593c00f959f8c92f12db2869c3395a3b0502d05e2516446f71f85b90920180546001600160a01b031916331790559154909161129191613058565b6000848152600960209081526040808320338085529083529281902084905580519283529082018690529192507f9440a187284f66513c0bccfc0aca848c3b273f0430e03273fecfa791d12b2fc3910160405180910390a1505050565b61134e60408051610160810190915280600081526020016000815260006020820181905260408201819052606082018190526080820181905260a0820181905260c0820181905260e0820181905261010082018190526101209091015290565b60008281526007602052604090819020815161016081019092528054829060ff16600381111561138057611380612cd5565b600381111561139157611391612cd5565b81528154602090910190610100900460ff1660028111156113b4576113b4612cd5565b60028111156113c5576113c5612cd5565b815260018201546020820152600282015460408201526003820154606082015260048201546001600160a01b039081166080830152600583015460a0830152600683015460c0830152600783015460e083015260089092015460ff811615156101008084019190915290049091166101209091015292915050565b6003818154811061145057600080fd5b6000918252602090912001546001600160a01b0316905081565b611472611c2a565b604051637921219560e11b81526001600160a01b0384169063f242432a906114a49030908890879087906004016130db565b600060405180830381600087803b1580156114be57600080fd5b505af11580156114d2573d6000803e3d6000fd5b5050505050505050565b6000818152600760205260408120600281015442101561150f57604051634ac0e46760e01b815260040160405180910390fd5b600881015460ff16151560000361153c576040516311d1b27960e11b8152600481018490526024016108eb565b6002815460ff16600381111561155457611554612cd5565b1461157857805460405163f5439b0360e01b81526108eb9160ff1690600401613113565b60008381526008602052604090208054611594916003916127ba565b5060038160030154815481106115ac576115ac613071565b6000918252602090912001546008820180546001600160a01b0390921661010002610100600160a81b03199092169190911790556115e983611f02565b805460ff191660031781556008810154604080518581526001600160a01b036101009093049290921660208301527f718a6fe50355e59b2959176b778975eb7d30c04d7071d41e6c42dc3579d410b5910160405180910390a16008015461010090046001600160a01b031692915050565b60008181526007602052604080822081516101608101909252805483929190829060ff16600381111561168f5761168f612cd5565b60038111156116a0576116a0612cd5565b81528154602090910190610100900460ff1660028111156116c3576116c3612cd5565b60028111156116d4576116d4612cd5565b81526001820154602082015260028083015460408301526003830154606083015260048301546001600160a01b039081166080840152600584015460a0840152600684015460c0840152600784015460e084015260089093015460ff81161515610100808501919091529004909216610120909101529091508181905250606081015142101561177757604051634ac0e46760e01b815260040160405180910390fd5b61178083611c84565b9392505050565b61178f611c2a565b61179881612370565b600081815260076020908152604091829020805460ff1916600117815591518381527f2cd8dd22cdb5fd5563e46a582a36f10cf74a7d5a541c4d499b5b724dc1d34d2e910160405180910390a15050565b60006117f3611c2a565b5060408051426020808301919091523360601b6bffffffffffffffffffffffff1916828401528251603481840301815260548301808552815191909201206101b4830190935260008082529160740189600281111561185457611854612cd5565b815260200183815260200188815260200160008152602001876001600160a01b0316815260200186815260200185815260200184815260200160001515815260200160006001600160a01b031681525090506008600083815260200190815260200160002060039080546118c99291906127ba565b5060008281526007602052604090208151815483929190829060ff191660018360038111156118fa576118fa612cd5565b021790555060208201518154829061ff00191661010083600281111561192257611922612cd5565b021790555060408281015160018084019190915560608085015160028501556080850151600385015560a0850151600480860180546001600160a01b039384166001600160a01b03199182161790915560c0880151600588015560e0880151600688015561010080890151600789015561012089015160089098018054610140909a015190941602610100600160a81b0319971515979097166001600160a81b03199098169790971795909517905583549182019093557f8a35acfbc15ff81a39ae7d344fd709f28e8600b4aa8c65c6b64bfe7fe36bd19b018590556000858152600a6020528190208054909316331790925582015190517fba83fcc7e14d39942691012509a5c132df13e567ec3ea7055747ee6c3264431b91611a5191859190918252602082015260400190565b60405180910390a1509695505050505050565b611a6c611c2a565b6001600160a01b038116611ad15760405162461bcd60e51b815260206004820152602660248201527f4f776e61626c653a206e6577206f776e657220697320746865207a65726f206160448201526564647265737360d01b60648201526084016108eb565b611ada81611eb2565b50565b600082815260056020526040902054610100900460ff16611b345760405162461bcd60e51b81526020600482015260116024820152701c995c5d595cdd081b9bdd08199bdd5b99607a1b60448201526064016108eb565b6000828152600560209081526040909120805460ff1916600190811782558351611b6593929091019184019061280a565b50600082815260066020818152604080842080548552600783529084208685529290915260010154835191929091849190611ba257611ba2613071565b6020026020010151611bb49190613121565b611bbf906001613143565b600382015560088101805460ff19166001179055600083815260066020526040908190205490517f62aaf02bf5ede75298ad389e3d4f46deac85c972c52075647ff8856089a8ef6b91611c159186918691613191565b60405180910390a161102d81600101546114dc565b6000546001600160a01b03163314610e185760405162461bcd60e51b815260206004820181905260248201527f4f776e61626c653a2063616c6c6572206973206e6f7420746865206f776e657260448201526064016108eb565b600d546040516305d3b1d360e41b81527f000000000000000000000000000000000000000000000000000000000000000060048201526001600160401b037f00000000000000000000000000000000000000000000000000000000000000001660248201526005604482015263ffffffff9091166064820152600160848201526000907f00000000000000000000000000000000000000000000000000000000000000006001600160a01b031690635d3b1d309060a4016020604051808303816000875af1158015611d5a573d6000803e3d6000fd5b505050506040513d601f19601f82011682018060405250810190611d7e91906130a0565b6040805160608101825260008082526001602080840182815285518481528083018752858701908152878552600583529590932084518154945161ffff1990951690151561ff00191617610100941515949094029390931783559351805195965092949193611df3939185019291019061280a565b5050600b805460018181019092557f0175b7a638427703f0dbe7bb9bbf987a2551717b34e79f33b5b1008d1fa01db901839055600c839055600084815260086020526040812054909250611e479190613058565b604080518082018252858152602080820184815260008781526006835284902092518355516001928301558251868152908101919091529192507fcc58b13ad3eab50626c6a6300b1d139cd6ebb1688a7cced9461c2f7e762665ee910160405180910390a150919050565b600080546001600160a01b038381166001600160a01b0319831681178455604051919092169283917f8be0079c531659141344cd1fd0a4f28419497f9722a3daafe3b4186f6b6457e09190a35050565b600081815260076020526040808220815161016081019092528054829060ff166003811115611f3357611f33612cd5565b6003811115611f4457611f44612cd5565b81528154602090910190610100900460ff166002811115611f6757611f67612cd5565b6002811115611f7857611f78612cd5565b815260018201546020820152600282015460408201526003820154606082015260048201546001600160a01b039081166080830152600583015460a0830152600683015460c0830152600783015460e083015260089092015460ff8116151561010080840191909152900490911661012090910152905060008160200151600281111561200757612007612cd5565b14801561201857508060e001516001145b15612097578060a001516001600160a01b031663f242432a308361014001518460c001518560e001516040518563ffffffff1660e01b815260040161206094939291906130db565b600060405180830381600087803b15801561207a57600080fd5b505af115801561208e573d6000803e3d6000fd5b5050505061222e565b6000816020015160028111156120af576120af612cd5565b1480156120c0575060018160e00151115b1561222e5760008160e001516001600160401b038111156120e3576120e3612992565b60405190808252806020026020018201604052801561210c578160200160208202803683370190505b50905060008260e001516001600160401b0381111561212d5761212d612992565b604051908082528060200260200182016040528015612156578160200160208202803683370190505b50905060005b8360c001518110156121bd578360c0015183828151811061217f5761217f613071565b6020026020010181815250508360e001518282815181106121a2576121a2613071565b60209081029190910101526121b681613087565b905061215c565b508260a001516001600160a01b0316632eb2c2d63085610140015185856040518563ffffffff1660e01b81526004016121f994939291906131ba565b600060405180830381600087803b15801561221357600080fd5b505af1158015612227573d6000803e3d6000fd5b5050505050505b60018160200151600281111561224657612246612cd5565b036122ce5760a081015161014082015160c0830151604051635c46a7ef60e11b81523060048201526001600160a01b0392831660248201526044810191909152608060648201526000608482015291169063b88d4fde9060a401600060405180830381600087803b1580156122ba57600080fd5b505af1158015610ae5573d6000803e3d6000fd5b6002816020015160028111156122e6576122e6612cd5565b036108fe5760a081015161014082015160e083015160405163a9059cbb60e01b81526001600160a01b039283166004820152602481019190915291169063a9059cbb906044015b6020604051808303816000875af115801561234c573d6000803e3d6000fd5b505050506040513d601f19601f82011682018060405250810190610eed91906130b9565b600081815260076020526040808220815161016081019092528054829060ff1660038111156123a1576123a1612cd5565b60038111156123b2576123b2612cd5565b81528154602090910190610100900460ff1660028111156123d5576123d5612cd5565b60028111156123e6576123e6612cd5565b815260018201546020820152600282015460408201526003820154606082015260048201546001600160a01b039081166080830152600583015460a0830152600683015460c0830152600783015460e083015260089092015460ff8116151561010080840191909152900490911661012090910152905060008151600381111561247257612472612cd5565b1461249357805160405163f5439b0360e01b81526108eb9190600401613113565b6000816020015160028111156124ab576124ab612cd5565b1480156124bc57508060e001516001145b15612536578060a001516001600160a01b031663f242432a33308460c001518560e001516040518563ffffffff1660e01b81526004016124ff94939291906130db565b600060405180830381600087803b15801561251957600080fd5b505af115801561252d573d6000803e3d6000fd5b505050506126c8565b60008160200151600281111561254e5761254e612cd5565b14801561255f575060018160e00151115b156126c85760008160e001516001600160401b0381111561258257612582612992565b6040519080825280602002602001820160405280156125ab578160200160208202803683370190505b50905060008260e001516001600160401b038111156125cc576125cc612992565b6040519080825280602002602001820160405280156125f5578160200160208202803683370190505b50905060005b8360c0015181101561265c578360c0015183828151811061261e5761261e613071565b6020026020010181815250508360e0015182828151811061264157612641613071565b602090810291909101015261265581613087565b90506125fb565b508260a001516001600160a01b0316632eb2c2d6333085856040518563ffffffff1660e01b815260040161269394939291906131ba565b600060405180830381600087803b1580156126ad57600080fd5b505af11580156126c1573d6000803e3d6000fd5b5050505050505b6001816020015160028111156126e0576126e0612cd5565b036127585760a081015160c0820151604051632142170760e11b815233600482015230602482015260448101919091526001600160a01b03909116906342842e0e90606401600060405180830381600087803b15801561273f57600080fd5b505af1158015612753573d6000803e3d6000fd5b505050505b60028160200151600281111561277057612770612cd5565b036108fe5760a081015160e08201516040516323b872dd60e01b815233600482015230602482015260448101919091526001600160a01b03909116906323b872dd9060640161232d565b8280548282559060005260206000209081019282156127fa5760005260206000209182015b828111156127fa5782548255916001019190600101906127df565b50612806929150612845565b5090565b8280548282559060005260206000209081019282156127fa579160200282015b828111156127fa57825182559160200191906001019061282a565b5b808211156128065760008155600101612846565b60006020828403121561286c57600080fd5b5035919050565b6020808252825182820181905260009190848201906040850190845b818110156128b45783516001600160a01b03168352928401929184019160010161288f565b50909695505050505050565b80356001600160a01b03811681146128d757600080fd5b919050565b60008083601f8401126128ee57600080fd5b5081356001600160401b0381111561290557600080fd5b60208301915083602082850101111561291d57600080fd5b9250929050565b60008060008060006080868803121561293c57600080fd5b612945866128c0565b9450612953602087016128c0565b93506040860135925060608601356001600160401b0381111561297557600080fd5b612981888289016128dc565b969995985093965092949392505050565b634e487b7160e01b600052604160045260246000fd5b604051601f8201601f191681016001600160401b03811182821017156129d0576129d0612992565b604052919050565b600080604083850312156129eb57600080fd5b823591506020808401356001600160401b0380821115612a0a57600080fd5b818601915086601f830112612a1e57600080fd5b813581811115612a3057612a30612992565b8060051b9150612a418483016129a8565b8181529183018401918481019089841115612a5b57600080fd5b938501935b83851015612a7957843582529385019390850190612a60565b8096505050505050509250929050565b600060208284031215612a9b57600080fd5b813563ffffffff8116811461178057600080fd5b600080600060608486031215612ac457600080fd5b612acd846128c0565b9250612adb602085016128c0565b9150604084013590509250925092565b60008060208385031215612afe57600080fd5b82356001600160401b03811115612b1457600080fd5b612b20858286016128dc565b90969095509350505050565b60008060408385031215612b3f57600080fd5b612b48836128c0565b946020939093013593505050565b60008060408385031215612b6957600080fd5b82359150612b79602084016128c0565b90509250929050565b60008060408385031215612b9557600080fd5b50508035926020909101359150565b60006020808385031215612bb757600080fd5b82356001600160401b0380821115612bce57600080fd5b818501915085601f830112612be257600080fd5b813581811115612bf457612bf4612992565b612c06601f8201601f191685016129a8565b91508082528684828501011115612c1c57600080fd5b8084840185840137600090820190930192909252509392505050565b821515815260006020604081840152835180604085015260005b81811015612c6e57858101830151858201606001528201612c52565b506000606082860101526060601f19601f830116850101925050509392505050565b600060208284031215612ca257600080fd5b611780826128c0565b60008060408385031215612cbe57600080fd5b612cc7836128c0565b9150612b79602084016128c0565b634e487b7160e01b600052602160045260246000fd5b60048110612cfb57612cfb612cd5565b9052565b60038110612cfb57612cfb612cd5565b600061016082019050612d23828451612ceb565b6020830151612d356020840182612cff565b5060408301516040830152606083015160608301526080830151608083015260a0830151612d6e60a08401826001600160a01b03169052565b5060c083015160c083015260e083015160e083015261010080840151818401525061012080840151612da38285018215159052565b5050610140928301516001600160a01b0316919092015290565b60008060008060808587031215612dd357600080fd5b612ddc856128c0565b9350612dea602086016128c0565b93969395505050506040820135916060013590565b60008083601f840112612e1157600080fd5b5081356001600160401b03811115612e2857600080fd5b6020830191508360208260051b850101111561291d57600080fd5b60008060008060008060008060a0898b031215612e5f57600080fd5b612e68896128c0565b9750612e7660208a016128c0565b965060408901356001600160401b0380821115612e9257600080fd5b612e9e8c838d01612dff565b909850965060608b0135915080821115612eb757600080fd5b612ec38c838d01612dff565b909650945060808b0135915080821115612edc57600080fd5b50612ee98b828c016128dc565b999c989b5096995094979396929594505050565b60008060008060008060c08789031215612f1657600080fd5b863560038110612f2557600080fd5b955060208701359450612f3a604088016128c0565b9350606087013592506080870135915060a087013590509295509295509295565b6101608101612f6a828e612ceb565b612f77602083018d612cff565b604082019a909a52606081019890985260808801969096526001600160a01b0394851660a088015260c087019390935260e08601919091526101008501521515610120840152166101409091015292915050565b60008060008060008060a08789031215612fe457600080fd5b612fed876128c0565b9550612ffb602088016128c0565b9450604087013593506060870135925060808701356001600160401b0381111561302457600080fd5b61303089828a016128dc565b979a9699509497509295939492505050565b634e487b7160e01b600052601160045260246000fd5b8181038181111561306b5761306b613042565b92915050565b634e487b7160e01b600052603260045260246000fd5b60006001820161309957613099613042565b5060010190565b6000602082840312156130b257600080fd5b5051919050565b6000602082840312156130cb57600080fd5b8151801515811461178057600080fd5b6001600160a01b0394851681529290931660208301526040820152606081019190915260a06080820181905260009082015260c00190565b6020810161306b8284612ceb565b60008261313e57634e487b7160e01b600052601260045260246000fd5b500690565b8082018082111561306b5761306b613042565b600081518084526020808501945080840160005b838110156131865781518752958201959082019060010161316a565b509495945050505050565b8381526060602082015260006131aa6060830185613156565b9050826040830152949350505050565b6001600160a01b0385811682528416602082015260a0604082018190526000906131e690830185613156565b82810360608401526131f88185613156565b83810360809094019390935250506000815260200194935050505056fea264697066735822122019e7d91fa2011672e2411dae978b5bf26913aa9f9d0b01c454d55d8a59ebb7b164736f6c63430008130033","linkReferences":{}},"methodIdentifiers":{"addToRaffle(address,bytes32)":"507acdb7","ccip()":"7e77b36b","chainlinkRaffleInfo(uint256)":"cf7874a3","changeGasLimit(uint32)":"35b9f359","checkUpkeep(bytes)":"6e04ff0d","createRaffle(uint8,uint256,address,uint256,uint256,uint256)":"c85faded","endRaffle(bytes32)":"adbe23fe","enterRaffle(bytes32)":"99a5abd4","entrantsArray(uint256)":"9e6c391c","getCurrentGasLimit()":"d65cd010","getRaffleCreator(bytes32)":"577bc4e4","getRaffleEntrantsArray(bytes32)":"1408a434","getRaffleInfo(bytes32)":"9bdfa18e","lastRequestId()":"fc2a88c3","onERC1155BatchReceived(address,address,uint256[],uint256[],bytes)":"bc197c81","onERC1155Received(address,address,uint256,uint256,bytes)":"f23a6e61","onERC721Received(address,address,uint256,bytes)":"150b7a02","owner()":"8da5cb5b","performUpkeep(bytes)":"4585e33b","pickWinner(bytes32)":"b7f0aaa8","raffle(bytes32)":"e5e7dcfc","raffleCreator(bytes32)":"85da5679","raffleEntrants(bytes32,uint256)":"671c5ce0","raffleEntryIndex(bytes32,address)":"53bca23e","raffleIds(uint256)":"7ee41f73","rawFulfillRandomWords(uint256,uint256[])":"1fe543e3","renounceOwnership()":"715018a6","requestIds(uint256)":"8796ba8c","s_requests(uint256)":"a168fa89","stakePrize(bytes32)":"c1bccb3c","transferOwnership(address)":"f2fde38b","withdrawERC1155(address,address,uint256,uint256)":"a0edb48b","withdrawERC20TokenFees(address,address)":"948313d7","withdrawERC721(address,address,uint256)":"4025feb2","withdrawEthFees(address)":"8f56df3a"},"id":2}