{"abi":[{"type":"constructor","inputs":[{"name":"subscriptionId","type":"uint64","internalType":"uint64"},{"name":"gasLane","type":"bytes32","internalType":"bytes32"},{"name":"callbackGasLimit","type":"uint32","internalType":"uint32"},{"name":"vrfCoordinatorV2","type":"address","internalType":"address"}],"stateMutability":"nonpayable"},{"type":"receive","stateMutability":"payable"},{"type":"function","name":"addToRaffle","inputs":[{"name":"_usr","type":"address","internalType":"address"},{"name":"_raffleId","type":"bytes32","internalType":"bytes32"}],"outputs":[],"stateMutability":"nonpayable"},{"type":"function","name":"ccip","inputs":[],"outputs":[{"name":"","type":"address","internalType":"contract ITokenTransferor"}],"stateMutability":"view"},{"type":"function","name":"chainlinkRaffleInfo","inputs":[{"name":"","type":"uint256","internalType":"uint256"}],"outputs":[{"name":"id","type":"bytes32","internalType":"bytes32"},{"name":"size","type":"uint256","internalType":"uint256"}],"stateMutability":"view"},{"type":"function","name":"changeGasLimit","inputs":[{"name":"_newGasLimit","type":"uint32","internalType":"uint32"}],"outputs":[],"stateMutability":"nonpayable"},{"type":"function","name":"createRaffle","inputs":[{"name":"_raffleType","type":"uint8","internalType":"enum Raffle.RaffleType"},{"name":"_endTime","type":"uint256","internalType":"uint256"},{"name":"_prize","type":"address","internalType":"address"},{"name":"_prizeId","type":"uint256","internalType":"uint256"},{"name":"_prizeAmount","type":"uint256","internalType":"uint256"},{"name":"_entryFee","type":"uint256","internalType":"uint256"}],"outputs":[{"name":"raffleId","type":"bytes32","internalType":"bytes32"}],"stateMutability":"nonpayable"},{"type":"function","name":"endRaffle","inputs":[{"name":"_raffleId","type":"bytes32","internalType":"bytes32"}],"outputs":[{"name":"winner","type":"address","internalType":"address"}],"stateMutability":"nonpayable"},{"type":"function","name":"enterRaffle","inputs":[{"name":"_raffleId","type":"bytes32","internalType":"bytes32"}],"outputs":[],"stateMutability":"payable"},{"type":"function","name":"entrantsArray","inputs":[{"name":"","type":"uint256","internalType":"uint256"}],"outputs":[{"name":"","type":"address","internalType":"address"}],"stateMutability":"view"},{"type":"function","name":"getCurrentGasLimit","inputs":[],"outputs":[{"name":"","type":"uint32","internalType":"uint32"}],"stateMutability":"view"},{"type":"function","name":"getRaffleCreator","inputs":[{"name":"_raffleId","type":"bytes32","internalType":"bytes32"}],"outputs":[{"name":"","type":"address","internalType":"address"}],"stateMutability":"view"},{"type":"function","name":"getRaffleEntrantsArray","inputs":[{"name":"_raffleId","type":"bytes32","internalType":"bytes32"}],"outputs":[{"name":"","type":"address[]","internalType":"address[]"}],"stateMutability":"view"},{"type":"function","name":"getRaffleInfo","inputs":[{"name":"_raffleId","type":"bytes32","internalType":"bytes32"}],"outputs":[{"name":"","type":"tuple","internalType":"struct Raffle.RaffleInfo","components":[{"name":"status","type":"uint8","internalType":"enum Raffle.Status"},{"name":"raffleType","type":"uint8","internalType":"enum Raffle.RaffleType"},{"name":"id","type":"bytes32","internalType":"bytes32"},{"name":"endTime","type":"uint256","internalType":"uint256"},{"name":"randomNumber","type":"uint256","internalType":"uint256"},{"name":"prize","type":"address","internalType":"address"},{"name":"prizeId","type":"uint256","internalType":"uint256"},{"name":"prizeAmount","type":"uint256","internalType":"uint256"},{"name":"entryFee","type":"uint256","internalType":"uint256"},{"name":"randomNumberAvailable","type":"bool","internalType":"bool"},{"name":"winner","type":"address","internalType":"address"}]}],"stateMutability":"view"},{"type":"function","name":"lastRequestId","inputs":[],"outputs":[{"name":"","type":"uint256","internalType":"uint256"}],"stateMutability":"view"},{"type":"function","name":"onERC1155BatchReceived","inputs":[{"name":"","type":"address","internalType":"address"},{"name":"","type":"address","internalType":"address"},{"name":"","type":"uint256[]","internalType":"uint256[]"},{"name":"","type":"uint256[]","internalType":"uint256[]"},{"name":"","type":"bytes","internalType":"bytes"}],"outputs":[{"name":"","type":"bytes4","internalType":"bytes4"}],"stateMutability":"pure"},{"type":"function","name":"onERC1155Received","inputs":[{"name":"","type":"address","internalType":"address"},{"name":"","type":"address","internalType":"address"},{"name":"","type":"uint256","internalType":"uint256"},{"name":"","type":"uint256","internalType":"uint256"},{"name":"","type":"bytes","internalType":"bytes"}],"outputs":[{"name":"","type":"bytes4","internalType":"bytes4"}],"stateMutability":"pure"},{"type":"function","name":"onERC721Received","inputs":[{"name":"","type":"address","internalType":"address"},{"name":"","type":"address","internalType":"address"},{"name":"","type":"uint256","internalType":"uint256"},{"name":"","type":"bytes","internalType":"bytes"}],"outputs":[{"name":"","type":"bytes4","internalType":"bytes4"}],"stateMutability":"pure"},{"type":"function","name":"owner","inputs":[],"outputs":[{"name":"","type":"address","internalType":"address"}],"stateMutability":"view"},{"type":"function","name":"pickWinner","inputs":[{"name":"_raffleId","type":"bytes32","internalType":"bytes32"}],"outputs":[{"name":"requestId","type":"uint256","internalType":"uint256"}],"stateMutability":"nonpayable"},{"type":"function","name":"raffle","inputs":[{"name":"","type":"bytes32","internalType":"bytes32"}],"outputs":[{"name":"status","type":"uint8","internalType":"enum Raffle.Status"},{"name":"raffleType","type":"uint8","internalType":"enum Raffle.RaffleType"},{"name":"id","type":"bytes32","internalType":"bytes32"},{"name":"endTime","type":"uint256","internalType":"uint256"},{"name":"randomNumber","type":"uint256","internalType":"uint256"},{"name":"prize","type":"address","internalType":"address"},{"name":"prizeId","type":"uint256","internalType":"uint256"},{"name":"prizeAmount","type":"uint256","internalType":"uint256"},{"name":"entryFee","type":"uint256","internalType":"uint256"},{"name":"randomNumberAvailable","type":"bool","internalType":"bool"},{"name":"winner","type":"address","internalType":"address"}],"stateMutability":"view"},{"type":"function","name":"raffleCreator","inputs":[{"name":"","type":"bytes32","internalType":"bytes32"}],"outputs":[{"name":"","type":"address","internalType":"address"}],"stateMutability":"view"},{"type":"function","name":"raffleEntrants","inputs":[{"name":"","type":"bytes32","internalType":"bytes32"},{"name":"","type":"uint256","internalType":"uint256"}],"outputs":[{"name":"","type":"address","internalType":"address"}],"stateMutability":"view"},{"type":"function","name":"raffleEntryIndex","inputs":[{"name":"","type":"bytes32","internalType":"bytes32"},{"name":"","type":"address","internalType":"address"}],"outputs":[{"name":"","type":"uint256","internalType":"uint256"}],"stateMutability":"view"},{"type":"function","name":"rawFulfillRandomWords","inputs":[{"name":"requestId","type":"uint256","internalType":"uint256"},{"name":"randomWords","type":"uint256[]","internalType":"uint256[]"}],"outputs":[],"stateMutability":"nonpayable"},{"type":"function","name":"renounceOwnership","inputs":[],"outputs":[],"stateMutability":"nonpayable"},{"type":"function","name":"requestIds","inputs":[{"name":"","type":"uint256","internalType":"uint256"}],"outputs":[{"name":"","type":"uint256","internalType":"uint256"}],"stateMutability":"view"},{"type":"function","name":"s_requests","inputs":[{"name":"","type":"uint256","internalType":"uint256"}],"outputs":[{"name":"fulfilled","type":"bool","internalType":"bool"},{"name":"exists","type":"bool","internalType":"bool"}],"stateMutability":"view"},{"type":"function","name":"stakePrize","inputs":[{"name":"_raffleId","type":"bytes32","internalType":"bytes32"}],"outputs":[],"stateMutability":"nonpayable"},{"type":"function","name":"transferOwnership","inputs":[{"name":"newOwner","type":"address","internalType":"address"}],"outputs":[],"stateMutability":"nonpayable"},{"type":"function","name":"withdrawERC1155","inputs":[{"name":"_to","type":"address","internalType":"address"},{"name":"_token","type":"address","internalType":"address"},{"name":"_tokenId","type":"uint256","internalType":"uint256"},{"name":"_amount","type":"uint256","internalType":"uint256"}],"outputs":[],"stateMutability":"nonpayable"},{"type":"function","name":"withdrawERC20TokenFees","inputs":[{"name":"_to","type":"address","internalType":"address"},{"name":"_token","type":"address","internalType":"address"}],"outputs":[],"stateMutability":"nonpayable"},{"type":"function","name":"withdrawERC721","inputs":[{"name":"_to","type":"address","internalType":"address"},{"name":"_token","type":"address","internalType":"address"},{"name":"_tokenId","type":"uint256","internalType":"uint256"}],"outputs":[],"stateMutability":"nonpayable"},{"type":"function","name":"withdrawEthFees","inputs":[{"name":"_to","type":"address","internalType":"address"}],"outputs":[],"stateMutability":"nonpayable"},{"type":"event","name":"AddedToRaffle","inputs":[{"name":"usr","type":"address","indexed":false,"internalType":"address"},{"name":"raffleId","type":"bytes32","indexed":false,"internalType":"bytes32"}],"anonymous":false},{"type":"event","name":"OwnershipTransferred","inputs":[{"name":"previousOwner","type":"address","indexed":true,"internalType":"address"},{"name":"newOwner","type":"address","indexed":true,"internalType":"address"}],"anonymous":false},{"type":"event","name":"RaffleCreated","inputs":[{"name":"_raffleId","type":"bytes32","indexed":false,"internalType":"bytes32"}],"anonymous":false},{"type":"event","name":"RequestFulfilled","inputs":[{"name":"requestId","type":"uint256","indexed":false,"internalType":"uint256"},{"name":"randomWords","type":"uint256[]","indexed":false,"internalType":"uint256[]"},{"name":"raffleId","type":"bytes32","indexed":false,"internalType":"bytes32"}],"anonymous":false},{"type":"event","name":"RequestSent","inputs":[{"name":"requestId","type":"uint256","indexed":false,"internalType":"uint256"},{"name":"numWords","type":"uint32","indexed":false,"internalType":"uint32"}],"anonymous":false},{"type":"error","name":"AlreadyEntered","inputs":[{"name":"_usr","type":"address","internalType":"address"}]},{"type":"error","name":"InvalidRaffle","inputs":[{"name":"_raffleId","type":"bytes32","internalType":"bytes32"}]},{"type":"error","name":"OnlyCoordinatorCanFulfill","inputs":[{"name":"have","type":"address","internalType":"address"},{"name":"want","type":"address","internalType":"address"}]},{"type":"error","name":"RaffleClosed","inputs":[]},{"type":"error","name":"RaffleStillOpen","inputs":[]},{"type":"error","name":"RandomNumberNotAvailable","inputs":[{"name":"_raffleId","type":"bytes32","internalType":"bytes32"}]}],"bytecode":{"object":"0x6101006040523480156200001257600080fd5b5060405162002ec538038062002ec58339810160408190526200003591620000d8565b80620000413362000088565b600180556001600160a01b039081166080521660a0526001600160401b039290921660c05260e052600c805463ffffffff191663ffffffff90921691909117905562000152565b600080546001600160a01b038381166001600160a01b0319831681178455604051919092169283917f8be0079c531659141344cd1fd0a4f28419497f9722a3daafe3b4186f6b6457e09190a35050565b60008060008060808587031215620000ef57600080fd5b84516001600160401b03811681146200010757600080fd5b60208601516040870151919550935063ffffffff811681146200012957600080fd5b60608601519092506001600160a01b03811681146200014757600080fd5b939692955090935050565b60805160a05160c05160e051612d32620001936000396000611db101526000611de001526000611e250152600081816107f001526108320152612d326000f3fe6080604052600436106101e75760003560e01c806399a5abd411610102578063c1bccb3c11610095578063e5e7dcfc11610064578063e5e7dcfc1461067a578063f23a6e6114610716578063f2fde38b14610743578063fc2a88c31461076357600080fd5b8063c1bccb3c146105cc578063c85faded146105ec578063cf7874a31461060c578063d65cd0101461065557600080fd5b8063a168fa89116100d1578063a168fa891461050d578063adbe23fe1461055d578063b7f0aaa81461057d578063bc197c811461059d57600080fd5b806399a5abd41461048d5780639bdfa18e146104a05780639e6c391c146104cd578063a0edb48b146104ed57600080fd5b8063671c5ce01161017a5780638796ba8c116101495780638796ba8c1461040f5780638da5cb5b1461042f5780638f56df3a1461044d578063948313d71461046d57600080fd5b8063671c5ce014610384578063715018a6146103a45780637e77b36b146103b957806385da5679146103d957600080fd5b80634025feb2116101b65780634025feb2146102b0578063507acdb7146102d057806353bca23e146102f0578063577bc4e41461033657600080fd5b80631408a434146101f3578063150b7a02146102295780631fe543e31461026e57806335b9f3591461029057600080fd5b366101ee57005b600080fd5b3480156101ff57600080fd5b5061021361020e366004612484565b610779565b604051610220919061249d565b60405180910390f35b34801561023557600080fd5b5061025561024436600461254f565b630a85bd0160e11b95945050505050565b6040516001600160e01b03199091168152602001610220565b34801561027a57600080fd5b5061028e6102893660046125d4565b6107e5565b005b34801561029c57600080fd5b5061028e6102ab36600461269e565b610872565b3480156102bc57600080fd5b5061028e6102cb3660046126c4565b610896565b3480156102dc57600080fd5b5061028e6102eb366004612700565b61090b565b3480156102fc57600080fd5b5061032861030b36600461272a565b600860209081526000928352604080842090915290825290205481565b604051908152602001610220565b34801561034257600080fd5b5061036c610351366004612484565b6000908152600960205260409020546001600160a01b031690565b6040516001600160a01b039091168152602001610220565b34801561039057600080fd5b5061036c61039f366004612756565b610b54565b3480156103b057600080fd5b5061028e610b8c565b3480156103c557600080fd5b5060025461036c906001600160a01b031681565b3480156103e557600080fd5b5061036c6103f4366004612484565b6009602052600090815260409020546001600160a01b031681565b34801561041b57600080fd5b5061032861042a366004612484565b610ba0565b34801561043b57600080fd5b506000546001600160a01b031661036c565b34801561045957600080fd5b5061028e610468366004612778565b610bc1565b34801561047957600080fd5b5061028e610488366004612793565b610c68565b61028e61049b366004612484565b610da9565b3480156104ac57600080fd5b506104c06104bb366004612484565b611065565b60405161022091906127fe565b3480156104d957600080fd5b5061036c6104e8366004612484565b6111b7565b3480156104f957600080fd5b5061028e6105083660046128ac565b6111e1565b34801561051957600080fd5b50610546610528366004612484565b60046020526000908152604090205460ff8082169161010090041682565b604080519215158352901515602083015201610220565b34801561056957600080fd5b5061036c610578366004612484565b611253565b34801561058957600080fd5b50610328610598366004612484565b61133c565b3480156105a957600080fd5b506102556105b8366004612933565b63bc197c8160e01b98975050505050505050565b3480156105d857600080fd5b5061028e6105e7366004612484565b611469565b3480156105f857600080fd5b506103286106073660046129ee565b61147d565b34801561061857600080fd5b50610640610627366004612484565b6005602052600090815260409020805460019091015482565b60408051928352602083019190915201610220565b34801561066157600080fd5b50600c5460405163ffffffff9091168152602001610220565b34801561068657600080fd5b506106ff610695366004612484565b600660208190526000918252604090912080546001820154600283015460038401546004850154600586015496860154600787015460089097015460ff80881699610100988990048216999798969795966001600160a01b0395861696919591939283169204168b565b6040516102209b9a99989796959493929190612a4c565b34801561072257600080fd5b50610255610731366004612abf565b63f23a6e6160e01b9695505050505050565b34801561074f57600080fd5b5061028e61075e366004612778565b6116ba565b34801561076f57600080fd5b50610328600b5481565b6000818152600760209081526040918290208054835181840281018401909452808452606093928301828280156107d957602002820191906000526020600020905b81546001600160a01b031681526001909101906020018083116107bb575b50505050509050919050565b336001600160a01b037f000000000000000000000000000000000000000000000000000000000000000016146108645760405163073e64fd60e21b81523360048201526001600160a01b037f00000000000000000000000000000000000000000000000000000000000000001660248201526044015b60405180910390fd5b61086e8282611730565b5050565b61087a61187d565b600c805463ffffffff191663ffffffff92909216919091179055565b61089e61187d565b604051632142170760e11b81523060048201526001600160a01b038481166024830152604482018390528316906342842e0e90606401600060405180830381600087803b1580156108ee57600080fd5b505af1158015610902573d6000803e3d6000fd5b50505050505050565b61091361187d565b600081815260066020526040808220815161016081019092528054829060ff166002811115610944576109446127bd565b6002811115610955576109556127bd565b81528154602090910190610100900460ff166002811115610978576109786127bd565b6002811115610989576109896127bd565b815260018201546020820152600282015460408201526003820154606082015260048201546001600160a01b039081166080830152600583015460a0830152600683015460c0830152600783015460e083015260089092015460ff81161515610100808401919091529004909116610120909101529050600081516002811115610a1557610a156127bd565b14610a365760405163ea88069560e01b81526004810183905260240161085b565b80606001514210610a5a5760405163aad504bb60e01b815260040160405180910390fd5b60008281526008602090815260408083206001600160a01b038716845290915290205415610aa65760405163cace269560e01b81526001600160a01b038416600482015260240161085b565b600082815260076020908152604082208054600180820183558285529284200180546001600160a01b0319166001600160a01b03881617905584835254610aed9190612b4d565b60008481526008602090815260408083206001600160a01b0389168085529083529281902084905580519283529082018690529192507f9440a187284f66513c0bccfc0aca848c3b273f0430e03273fecfa791d12b2fc3910160405180910390a150505050565b60076020528160005260406000208181548110610b7057600080fd5b6000918252602090912001546001600160a01b03169150829050565b610b9461187d565b610b9e60006118d7565b565b600a8181548110610bb057600080fd5b600091825260209091200154905081565b610bc961187d565b60405147906000906001600160a01b0384169083908381818185875af1925050503d8060008114610c16576040519150601f19603f3d011682016040523d82523d6000602084013e610c1b565b606091505b5050905080610c635760405162461bcd60e51b81526020600482015260146024820152732330b4b632b2103a379039b2b7321022ba3432b960611b604482015260640161085b565b505050565b610c7061187d565b6040516370a0823160e01b81523060048201526000906001600160a01b038316906370a0823190602401602060405180830381865afa158015610cb7573d6000803e3d6000fd5b505050506040513d601f19601f82011682018060405250810190610cdb9190612b66565b60405163a9059cbb60e01b81526001600160a01b0385811660048301526024820183905291925060009184169063a9059cbb906044016020604051808303816000875af1158015610d30573d6000803e3d6000fd5b505050506040513d601f19601f82011682018060405250810190610d549190612b7f565b905080610da35760405162461bcd60e51b815260206004820152601b60248201527f4661696c656420455243323020546f6b656e205472616e736665720000000000604482015260640161085b565b50505050565b600081815260066020526040808220815161016081019092528054829060ff166002811115610dda57610dda6127bd565b6002811115610deb57610deb6127bd565b81528154602090910190610100900460ff166002811115610e0e57610e0e6127bd565b6002811115610e1f57610e1f6127bd565b815260018201546020808301919091526002830154604080840191909152600380850154606085015260048501546001600160a01b039081166080860152600586015460a0860152600686015460c086015260078087015460e087015260089096015460ff8116151561010080880191909152900416610120909401939093526000878152939091529091208054929350610eb9926123e4565b50600081516002811115610ecf57610ecf6127bd565b14610ef05760405163ea88069560e01b81526004810183905260240161085b565b80606001514210610f145760405163aad504bb60e01b815260040160405180910390fd5b6000816101000151118015610f2e57508061010001513414155b15610f7d578061010001513414610f7d5760405162461bcd60e51b81526020600482015260136024820152724d7573742073656e6420656e7472792066656560681b604482015260640161085b565b600082815260086020908152604080832033845290915290205415610fb75760405163cace269560e01b815233600482015260240161085b565b600380546001818101835560008381527fc2575a0e9e593c00f959f8c92f12db2869c3395a3b0502d05e2516446f71f85b90920180546001600160a01b031916331790559154909161100891612b4d565b6000848152600860209081526040808320338085529083529281902084905580519283529082018690529192507f9440a187284f66513c0bccfc0aca848c3b273f0430e03273fecfa791d12b2fc3910160405180910390a1505050565b6110c560408051610160810190915280600081526020016000815260006020820181905260408201819052606082018190526080820181905260a0820181905260c0820181905260e0820181905261010082018190526101209091015290565b60008281526006602052604090819020815161016081019092528054829060ff1660028111156110f7576110f76127bd565b6002811115611108576111086127bd565b81528154602090910190610100900460ff16600281111561112b5761112b6127bd565b600281111561113c5761113c6127bd565b815260018201546020820152600282015460408201526003820154606082015260048201546001600160a01b039081166080830152600583015460a0830152600683015460c0830152600783015460e083015260089092015460ff811615156101008084019190915290049091166101209091015292915050565b600381815481106111c757600080fd5b6000918252602090912001546001600160a01b0316905081565b6111e961187d565b604051637921219560e11b81526001600160a01b0384169063f242432a9061121b903090889087908790600401612ba1565b600060405180830381600087803b15801561123557600080fd5b505af1158015611249573d6000803e3d6000fd5b5050505050505050565b6000818152600660205260408120600281015442101561128657604051634ac0e46760e01b815260040160405180910390fd5b600881015460ff1615156000036112b3576040516311d1b27960e11b81526004810184905260240161085b565b600083815260076020526040902080546112cf916003916123e4565b5060038160030154815481106112e7576112e7612bd9565b6000918252602090912001546008820180546001600160a01b0390921661010002610100600160a81b031990921691909117905561132483611927565b6008015461010090046001600160a01b031692915050565b60008181526006602052604080822081516101608101909252805483929190829060ff166002811115611371576113716127bd565b6002811115611382576113826127bd565b81528154602090910190610100900460ff1660028111156113a5576113a56127bd565b60028111156113b6576113b66127bd565b81526001828101546020830152600283015460408301526003830154606083015260048301546001600160a01b039081166080840152600584015460a0840152600684015460c0840152600784015460e084015260089093015460ff81161515610100808501919091529004909216610120909101529091508181905250606081015142101561145957604051634ac0e46760e01b815260040160405180910390fd5b61146283611d9f565b9392505050565b61147161187d565b61147a81611fce565b50565b600061148761187d565b5060408051426020808301919091523360601b6bffffffffffffffffffffffff1916828401528251603481840301815260548301808552815191909201206101b483019093526000808252916074018960028111156114e8576114e86127bd565b815260200183815260200188815260200160008152602001876001600160a01b0316815260200186815260200185815260200184815260200160001515815260200160006001600160a01b0316815250905060076000838152602001908152602001600020600390805461155d9291906123e4565b5060008281526006602052604090208151815483929190829060ff1916600183600281111561158e5761158e6127bd565b021790555060208201518154829061ff0019166101008360028111156115b6576115b66127bd565b02179055506040828101516001830155606083015160028301556080830151600383015560a08301516004830180546001600160a01b039283166001600160a01b03199182161790915560c0850151600585015560e08501516006850155610100808601516007860155610120860151600890950180546101409097015190931602610100600160a81b0319941515949094166001600160a81b031990951694909417929092179091556000848152600960205281902080549092163317909155517f8585714df5da43e410463935efec826ec671c007cd993af47c37adfe1d2c310f906116a79084815260200190565b60405180910390a1509695505050505050565b6116c261187d565b6001600160a01b0381166117275760405162461bcd60e51b815260206004820152602660248201527f4f776e61626c653a206e6577206f776e657220697320746865207a65726f206160448201526564647265737360d01b606482015260840161085b565b61147a816118d7565b600082815260046020526040902054610100900460ff166117875760405162461bcd60e51b81526020600482015260116024820152701c995c5d595cdd081b9bdd08199bdd5b99607a1b604482015260640161085b565b6000828152600460209081526040909120805460ff19166001908117825583516117b8939290910191840190612434565b506000828152600560208181526040808420805485526006835290842086855292909152600101548351919290918491906117f5576117f5612bd9565b60200260200101516118079190612bef565b611812906001612c11565b600382015560088101805460ff19166001179055600083815260056020526040908190205490517f62aaf02bf5ede75298ad389e3d4f46deac85c972c52075647ff8856089a8ef6b916118689186918691612c5f565b60405180910390a1610da38160010154611253565b6000546001600160a01b03163314610b9e5760405162461bcd60e51b815260206004820181905260248201527f4f776e61626c653a2063616c6c6572206973206e6f7420746865206f776e6572604482015260640161085b565b600080546001600160a01b038381166001600160a01b0319831681178455604051919092169283917f8be0079c531659141344cd1fd0a4f28419497f9722a3daafe3b4186f6b6457e09190a35050565b600081815260066020526040808220815161016081019092528054829060ff166002811115611958576119586127bd565b6002811115611969576119696127bd565b81528154602090910190610100900460ff16600281111561198c5761198c6127bd565b600281111561199d5761199d6127bd565b815260018201546020820152600282015460408201526003820154606082015260048201546001600160a01b039081166080830152600583015460a0830152600683015460c0830152600783015460e083015260089092015460ff81161515610100808401919091529004909116610120909101529050600081602001516002811115611a2c57611a2c6127bd565b148015611a3d57508060e001516001145b15611abc578060a001516001600160a01b031663f242432a308361014001518460c001518560e001516040518563ffffffff1660e01b8152600401611a859493929190612ba1565b600060405180830381600087803b158015611a9f57600080fd5b505af1158015611ab3573d6000803e3d6000fd5b50505050611c55565b600081602001516002811115611ad457611ad46127bd565b148015611ae5575060018160e00151115b15611c555760008160e0015167ffffffffffffffff811115611b0957611b096125be565b604051908082528060200260200182016040528015611b32578160200160208202803683370190505b50905060008260e0015167ffffffffffffffff811115611b5457611b546125be565b604051908082528060200260200182016040528015611b7d578160200160208202803683370190505b50905060005b8360c00151811015611be4578360c00151838281518110611ba657611ba6612bd9565b6020026020010181815250508360e00151828281518110611bc957611bc9612bd9565b6020908102919091010152611bdd81612c88565b9050611b83565b508260a001516001600160a01b0316632eb2c2d63085610140015185856040518563ffffffff1660e01b8152600401611c209493929190612ca1565b600060405180830381600087803b158015611c3a57600080fd5b505af1158015611c4e573d6000803e3d6000fd5b5050505050505b600181602001516002811115611c6d57611c6d6127bd565b03611cfd5760a081015161014082015160c0830151604051635c46a7ef60e11b81523060048201526001600160a01b0392831660248201526044810191909152608060648201526000608482015291169063b88d4fde9060a401600060405180830381600087803b158015611ce157600080fd5b505af1158015611cf5573d6000803e3d6000fd5b505050505050565b600281602001516002811115611d1557611d156127bd565b0361086e5760a081015161014082015160e083015160405163a9059cbb60e01b81526001600160a01b039283166004820152602481019190915291169063a9059cbb906044015b6020604051808303816000875af1158015611d7b573d6000803e3d6000fd5b505050506040513d601f19601f82011682018060405250810190610c639190612b7f565b600c546040516305d3b1d360e41b81527f0000000000000000000000000000000000000000000000000000000000000000600482015267ffffffffffffffff7f00000000000000000000000000000000000000000000000000000000000000001660248201526005604482015263ffffffff9091166064820152600160848201526000907f00000000000000000000000000000000000000000000000000000000000000006001600160a01b031690635d3b1d309060a4016020604051808303816000875af1158015611e76573d6000803e3d6000fd5b505050506040513d601f19601f82011682018060405250810190611e9a9190612b66565b6040805160608101825260008082526001602080840182815285518481528083018752858701908152878552600483529590932084518154945161ffff1990951690151561ff00191617610100941515949094029390931783559351805195965092949193611f0f9391850192910190612434565b5050600a805460018181019092557fc65a7bb8d6351c1cf70c95a316cc6a92839c986682d98bc35f958f4883f9d2a801839055600b839055600084815260076020526040812054909250611f639190612b4d565b604080518082018252858152602080820184815260008781526005835284902092518355516001928301558251868152908101919091529192507fcc58b13ad3eab50626c6a6300b1d139cd6ebb1688a7cced9461c2f7e762665ee910160405180910390a150919050565b600081815260066020526040808220815161016081019092528054829060ff166002811115611fff57611fff6127bd565b6002811115612010576120106127bd565b81528154602090910190610100900460ff166002811115612033576120336127bd565b6002811115612044576120446127bd565b815260018201546020820152600282015460408201526003820154606082015260048201546001600160a01b039081166080830152600583015460a0830152600683015460c0830152600783015460e083015260089092015460ff811615156101008084019190915290049091166101209091015290506000816020015160028111156120d3576120d36127bd565b1480156120e457508060e001516001145b1561215e578060a001516001600160a01b031663f242432a33308460c001518560e001516040518563ffffffff1660e01b81526004016121279493929190612ba1565b600060405180830381600087803b15801561214157600080fd5b505af1158015612155573d6000803e3d6000fd5b505050506122f2565b600081602001516002811115612176576121766127bd565b148015612187575060018160e00151115b156122f25760008160e0015167ffffffffffffffff8111156121ab576121ab6125be565b6040519080825280602002602001820160405280156121d4578160200160208202803683370190505b50905060008260e0015167ffffffffffffffff8111156121f6576121f66125be565b60405190808252806020026020018201604052801561221f578160200160208202803683370190505b50905060005b8360c00151811015612286578360c0015183828151811061224857612248612bd9565b6020026020010181815250508360e0015182828151811061226b5761226b612bd9565b602090810291909101015261227f81612c88565b9050612225565b508260a001516001600160a01b0316632eb2c2d6333085856040518563ffffffff1660e01b81526004016122bd9493929190612ca1565b600060405180830381600087803b1580156122d757600080fd5b505af11580156122eb573d6000803e3d6000fd5b5050505050505b60018160200151600281111561230a5761230a6127bd565b036123825760a081015160c0820151604051632142170760e11b815233600482015230602482015260448101919091526001600160a01b03909116906342842e0e90606401600060405180830381600087803b15801561236957600080fd5b505af115801561237d573d6000803e3d6000fd5b505050505b60028160200151600281111561239a5761239a6127bd565b0361086e5760a081015160e08201516040516323b872dd60e01b815233600482015230602482015260448101919091526001600160a01b03909116906323b872dd90606401611d5c565b8280548282559060005260206000209081019282156124245760005260206000209182015b82811115612424578254825591600101919060010190612409565b5061243092915061246f565b5090565b828054828255906000526020600020908101928215612424579160200282015b82811115612424578251825591602001919060010190612454565b5b808211156124305760008155600101612470565b60006020828403121561249657600080fd5b5035919050565b6020808252825182820181905260009190848201906040850190845b818110156124de5783516001600160a01b0316835292840192918401916001016124b9565b50909695505050505050565b80356001600160a01b038116811461250157600080fd5b919050565b60008083601f84011261251857600080fd5b50813567ffffffffffffffff81111561253057600080fd5b60208301915083602082850101111561254857600080fd5b9250929050565b60008060008060006080868803121561256757600080fd5b612570866124ea565b945061257e602087016124ea565b935060408601359250606086013567ffffffffffffffff8111156125a157600080fd5b6125ad88828901612506565b969995985093965092949392505050565b634e487b7160e01b600052604160045260246000fd5b600080604083850312156125e757600080fd5b8235915060208084013567ffffffffffffffff8082111561260757600080fd5b818601915086601f83011261261b57600080fd5b81358181111561262d5761262d6125be565b8060051b604051601f19603f83011681018181108582111715612652576126526125be565b60405291825284820192508381018501918983111561267057600080fd5b938501935b8285101561268e57843584529385019392850192612675565b8096505050505050509250929050565b6000602082840312156126b057600080fd5b813563ffffffff8116811461146257600080fd5b6000806000606084860312156126d957600080fd5b6126e2846124ea565b92506126f0602085016124ea565b9150604084013590509250925092565b6000806040838503121561271357600080fd5b61271c836124ea565b946020939093013593505050565b6000806040838503121561273d57600080fd5b8235915061274d602084016124ea565b90509250929050565b6000806040838503121561276957600080fd5b50508035926020909101359150565b60006020828403121561278a57600080fd5b611462826124ea565b600080604083850312156127a657600080fd5b6127af836124ea565b915061274d602084016124ea565b634e487b7160e01b600052602160045260246000fd5b6003811061147a57634e487b7160e01b600052602160045260246000fd5b6127fa816127d3565b9052565b6000610160820190506128128284516127f1565b602083015161282460208401826127f1565b5060408301516040830152606083015160608301526080830151608083015260a083015161285d60a08401826001600160a01b03169052565b5060c083015160c083015260e083015160e0830152610100808401518184015250610120808401516128928285018215159052565b5050610140928301516001600160a01b0316919092015290565b600080600080608085870312156128c257600080fd5b6128cb856124ea565b93506128d9602086016124ea565b93969395505050506040820135916060013590565b60008083601f84011261290057600080fd5b50813567ffffffffffffffff81111561291857600080fd5b6020830191508360208260051b850101111561254857600080fd5b60008060008060008060008060a0898b03121561294f57600080fd5b612958896124ea565b975061296660208a016124ea565b9650604089013567ffffffffffffffff8082111561298357600080fd5b61298f8c838d016128ee565b909850965060608b01359150808211156129a857600080fd5b6129b48c838d016128ee565b909650945060808b01359150808211156129cd57600080fd5b506129da8b828c01612506565b999c989b5096995094979396929594505050565b60008060008060008060c08789031215612a0757600080fd5b863560038110612a1657600080fd5b955060208701359450612a2b604088016124ea565b9350606087013592506080870135915060a087013590509295509295509295565b6101608101612a5a8d6127d3565b8c8252612a668c6127d3565b602082019b909b526040810199909952606089019790975260808801959095526001600160a01b0393841660a088015260c087019290925260e08601526101008501529015156101208401521661014090910152919050565b60008060008060008060a08789031215612ad857600080fd5b612ae1876124ea565b9550612aef602088016124ea565b94506040870135935060608701359250608087013567ffffffffffffffff811115612b1957600080fd5b612b2589828a01612506565b979a9699509497509295939492505050565b634e487b7160e01b600052601160045260246000fd5b81810381811115612b6057612b60612b37565b92915050565b600060208284031215612b7857600080fd5b5051919050565b600060208284031215612b9157600080fd5b8151801515811461146257600080fd5b6001600160a01b0394851681529290931660208301526040820152606081019190915260a06080820181905260009082015260c00190565b634e487b7160e01b600052603260045260246000fd5b600082612c0c57634e487b7160e01b600052601260045260246000fd5b500690565b80820180821115612b6057612b60612b37565b600081518084526020808501945080840160005b83811015612c5457815187529582019590820190600101612c38565b509495945050505050565b838152606060208201526000612c786060830185612c24565b9050826040830152949350505050565b600060018201612c9a57612c9a612b37565b5060010190565b6001600160a01b0385811682528416602082015260a060408201819052600090612ccd90830185612c24565b8281036060840152612cdf8185612c24565b83810360809094019390935250506000815260200194935050505056fea2646970667358221220c011eb63d25ce2692c301324e6c9e0050f0e1e7a46934f1510c5c47bd695bba564736f6c63430008130033","linkReferences":{}},"methodIdentifiers":{"addToRaffle(address,bytes32)":"507acdb7","ccip()":"7e77b36b","chainlinkRaffleInfo(uint256)":"cf7874a3","changeGasLimit(uint32)":"35b9f359","createRaffle(uint8,uint256,address,uint256,uint256,uint256)":"c85faded","endRaffle(bytes32)":"adbe23fe","enterRaffle(bytes32)":"99a5abd4","entrantsArray(uint256)":"9e6c391c","getCurrentGasLimit()":"d65cd010","getRaffleCreator(bytes32)":"577bc4e4","getRaffleEntrantsArray(bytes32)":"1408a434","getRaffleInfo(bytes32)":"9bdfa18e","lastRequestId()":"fc2a88c3","onERC1155BatchReceived(address,address,uint256[],uint256[],bytes)":"bc197c81","onERC1155Received(address,address,uint256,uint256,bytes)":"f23a6e61","onERC721Received(address,address,uint256,bytes)":"150b7a02","owner()":"8da5cb5b","pickWinner(bytes32)":"b7f0aaa8","raffle(bytes32)":"e5e7dcfc","raffleCreator(bytes32)":"85da5679","raffleEntrants(bytes32,uint256)":"671c5ce0","raffleEntryIndex(bytes32,address)":"53bca23e","rawFulfillRandomWords(uint256,uint256[])":"1fe543e3","renounceOwnership()":"715018a6","requestIds(uint256)":"8796ba8c","s_requests(uint256)":"a168fa89","stakePrize(bytes32)":"c1bccb3c","transferOwnership(address)":"f2fde38b","withdrawERC1155(address,address,uint256,uint256)":"a0edb48b","withdrawERC20TokenFees(address,address)":"948313d7","withdrawERC721(address,address,uint256)":"4025feb2","withdrawEthFees(address)":"8f56df3a"},"id":0}