{"abi":[{"type":"constructor","inputs":[{"name":"name","type":"string","internalType":"string"},{"name":"symbol","type":"string","internalType":"string"}],"stateMutability":"nonpayable"},{"type":"function","name":"approve","inputs":[{"name":"to","type":"address","internalType":"address"},{"name":"tokenId","type":"uint256","internalType":"uint256"}],"outputs":[],"stateMutability":"nonpayable"},{"type":"function","name":"balanceOf","inputs":[{"name":"owner","type":"address","internalType":"address"}],"outputs":[{"name":"","type":"uint256","internalType":"uint256"}],"stateMutability":"view"},{"type":"function","name":"baseURI","inputs":[],"outputs":[{"name":"","type":"string","internalType":"string"}],"stateMutability":"view"},{"type":"function","name":"burn","inputs":[{"name":"tokenId","type":"uint256","internalType":"uint256"}],"outputs":[],"stateMutability":"nonpayable"},{"type":"function","name":"exists","inputs":[{"name":"tokenId","type":"uint256","internalType":"uint256"}],"outputs":[{"name":"","type":"bool","internalType":"bool"}],"stateMutability":"view"},{"type":"function","name":"getApproved","inputs":[{"name":"tokenId","type":"uint256","internalType":"uint256"}],"outputs":[{"name":"","type":"address","internalType":"address"}],"stateMutability":"view"},{"type":"function","name":"isApprovedForAll","inputs":[{"name":"owner","type":"address","internalType":"address"},{"name":"operator","type":"address","internalType":"address"}],"outputs":[{"name":"","type":"bool","internalType":"bool"}],"stateMutability":"view"},{"type":"function","name":"mint","inputs":[{"name":"to","type":"address","internalType":"address"},{"name":"tokenId","type":"uint256","internalType":"uint256"}],"outputs":[],"stateMutability":"nonpayable"},{"type":"function","name":"name","inputs":[],"outputs":[{"name":"","type":"string","internalType":"string"}],"stateMutability":"view"},{"type":"function","name":"ownerOf","inputs":[{"name":"tokenId","type":"uint256","internalType":"uint256"}],"outputs":[{"name":"","type":"address","internalType":"address"}],"stateMutability":"view"},{"type":"function","name":"safeMint","inputs":[{"name":"to","type":"address","internalType":"address"},{"name":"tokenId","type":"uint256","internalType":"uint256"},{"name":"_data","type":"bytes","internalType":"bytes"}],"outputs":[],"stateMutability":"nonpayable"},{"type":"function","name":"safeMint","inputs":[{"name":"to","type":"address","internalType":"address"},{"name":"tokenId","type":"uint256","internalType":"uint256"}],"outputs":[],"stateMutability":"nonpayable"},{"type":"function","name":"safeTransferFrom","inputs":[{"name":"from","type":"address","internalType":"address"},{"name":"to","type":"address","internalType":"address"},{"name":"tokenId","type":"uint256","internalType":"uint256"}],"outputs":[],"stateMutability":"nonpayable"},{"type":"function","name":"safeTransferFrom","inputs":[{"name":"from","type":"address","internalType":"address"},{"name":"to","type":"address","internalType":"address"},{"name":"tokenId","type":"uint256","internalType":"uint256"},{"name":"data","type":"bytes","internalType":"bytes"}],"outputs":[],"stateMutability":"nonpayable"},{"type":"function","name":"setApprovalForAll","inputs":[{"name":"operator","type":"address","internalType":"address"},{"name":"approved","type":"bool","internalType":"bool"}],"outputs":[],"stateMutability":"nonpayable"},{"type":"function","name":"supportsInterface","inputs":[{"name":"interfaceId","type":"bytes4","internalType":"bytes4"}],"outputs":[{"name":"","type":"bool","internalType":"bool"}],"stateMutability":"view"},{"type":"function","name":"symbol","inputs":[],"outputs":[{"name":"","type":"string","internalType":"string"}],"stateMutability":"view"},{"type":"function","name":"tokenURI","inputs":[{"name":"tokenId","type":"uint256","internalType":"uint256"}],"outputs":[{"name":"","type":"string","internalType":"string"}],"stateMutability":"view"},{"type":"function","name":"transferFrom","inputs":[{"name":"from","type":"address","internalType":"address"},{"name":"to","type":"address","internalType":"address"},{"name":"tokenId","type":"uint256","internalType":"uint256"}],"outputs":[],"stateMutability":"nonpayable"},{"type":"event","name":"Approval","inputs":[{"name":"owner","type":"address","indexed":true,"internalType":"address"},{"name":"approved","type":"address","indexed":true,"internalType":"address"},{"name":"tokenId","type":"uint256","indexed":true,"internalType":"uint256"}],"anonymous":false},{"type":"event","name":"ApprovalForAll","inputs":[{"name":"owner","type":"address","indexed":true,"internalType":"address"},{"name":"operator","type":"address","indexed":true,"internalType":"address"},{"name":"approved","type":"bool","indexed":false,"internalType":"bool"}],"anonymous":false},{"type":"event","name":"Transfer","inputs":[{"name":"from","type":"address","indexed":true,"internalType":"address"},{"name":"to","type":"address","indexed":true,"internalType":"address"},{"name":"tokenId","type":"uint256","indexed":true,"internalType":"uint256"}],"anonymous":false}],"bytecode":{"object":"0x60806040523480156200001157600080fd5b50604051620018b6380380620018b6833981016040819052620000349162000123565b818160006200004483826200021c565b5060016200005382826200021c565b5050505050620002e8565b634e487b7160e01b600052604160045260246000fd5b600082601f8301126200008657600080fd5b81516001600160401b0380821115620000a357620000a36200005e565b604051601f8301601f19908116603f01168101908282118183101715620000ce57620000ce6200005e565b81604052838152602092508683858801011115620000eb57600080fd5b600091505b838210156200010f5785820183015181830184015290820190620000f0565b600093810190920192909252949350505050565b600080604083850312156200013757600080fd5b82516001600160401b03808211156200014f57600080fd5b6200015d8683870162000074565b935060208501519150808211156200017457600080fd5b50620001838582860162000074565b9150509250929050565b600181811c90821680620001a257607f821691505b602082108103620001c357634e487b7160e01b600052602260045260246000fd5b50919050565b601f8211156200021757600081815260208120601f850160051c81016020861015620001f25750805b601f850160051c820191505b818110156200021357828155600101620001fe565b5050505b505050565b81516001600160401b038111156200023857620002386200005e565b62000250816200024984546200018d565b84620001c9565b602080601f8311600181146200028857600084156200026f5750858301515b600019600386901b1c1916600185901b17855562000213565b600085815260208120601f198616915b82811015620002b95788860151825594840194600190910190840162000298565b5085821015620002d85787850151600019600388901b60f8161c191681555b5050505050600190811b01905550565b6115be80620002f86000396000f3fe608060405234801561001057600080fd5b50600436106101215760003560e01c80636352211e116100ad578063a144819411610071578063a144819414610259578063a22cb4651461026c578063b88d4fde1461027f578063c87b56dd14610292578063e985e9c5146102a557600080fd5b80636352211e146102025780636c0360eb1461021557806370a082311461021d5780638832e6e31461023e57806395d89b411461025157600080fd5b806323b872dd116100f457806323b872dd146101a357806340c10f19146101b657806342842e0e146101c957806342966c68146101dc5780634f558e79146101ef57600080fd5b806301ffc9a71461012657806306fdde031461014e578063081812fc14610163578063095ea7b31461018e575b600080fd5b61013961013436600461109e565b6102b8565b60405190151581526020015b60405180910390f35b61015661030a565b604051610145919061110b565b61017661017136600461111e565b61039c565b6040516001600160a01b039091168152602001610145565b6101a161019c366004611153565b6103c3565b005b6101a16101b136600461117d565b6104dd565b6101a16101c4366004611153565b61050e565b6101a16101d736600461117d565b61051c565b6101a16101ea36600461111e565b610537565b6101396101fd36600461111e565b610543565b61017661021036600461111e565b610562565b6101566105c2565b61023061022b3660046111b9565b6105de565b604051908152602001610145565b6101a161024c366004611277565b610664565b61015661066f565b6101a1610267366004611153565b61067e565b6101a161027a3660046112ce565b610688565b6101a161028d36600461130a565b610693565b6101566102a036600461111e565b6106cb565b6101396102b3366004611372565b61073f565b60006001600160e01b031982166380ac58cd60e01b14806102e957506001600160e01b03198216635b5e139f60e01b145b8061030457506301ffc9a760e01b6001600160e01b03198316145b92915050565b606060008054610319906113a5565b80601f0160208091040260200160405190810160405280929190818152602001828054610345906113a5565b80156103925780601f1061036757610100808354040283529160200191610392565b820191906000526020600020905b81548152906001019060200180831161037557829003601f168201915b5050505050905090565b60006103a78261076d565b506000908152600460205260409020546001600160a01b031690565b60006103ce82610562565b9050806001600160a01b0316836001600160a01b0316036104405760405162461bcd60e51b815260206004820152602160248201527f4552433732313a20617070726f76616c20746f2063757272656e74206f776e656044820152603960f91b60648201526084015b60405180910390fd5b336001600160a01b038216148061045c575061045c813361073f565b6104ce5760405162461bcd60e51b815260206004820152603d60248201527f4552433732313a20617070726f76652063616c6c6572206973206e6f7420746f60448201527f6b656e206f776e6572206f7220617070726f76656420666f7220616c6c0000006064820152608401610437565b6104d883836107cc565b505050565b6104e7338261083a565b6105035760405162461bcd60e51b8152600401610437906113df565b6104d8838383610899565b6105188282610a0a565b5050565b6104d883838360405180602001604052806000815250610693565b61054081610ba3565b50565b6000818152600260205260408120546001600160a01b03161515610304565b6000818152600260205260408120546001600160a01b0316806103045760405162461bcd60e51b8152602060048201526018602482015277115490cdcc8c4e881a5b9d985b1a59081d1bdad95b88125160421b6044820152606401610437565b60606105d960408051602081019091526000815290565b905090565b60006001600160a01b0382166106485760405162461bcd60e51b815260206004820152602960248201527f4552433732313a2061646472657373207a65726f206973206e6f7420612076616044820152683634b21037bbb732b960b91b6064820152608401610437565b506001600160a01b031660009081526003602052604090205490565b6104d8838383610c46565b606060018054610319906113a5565b6105188282610c79565b610518338383610c93565b61069d338361083a565b6106b95760405162461bcd60e51b8152600401610437906113df565b6106c584848484610d61565b50505050565b60606106d68261076d565b60006106ed60408051602081019091526000815290565b9050600081511161070d5760405180602001604052806000815250610738565b8061071784610d94565b60405160200161072892919061142c565b6040516020818303038152906040525b9392505050565b6001600160a01b03918216600090815260056020908152604080832093909416825291909152205460ff1690565b6000818152600260205260409020546001600160a01b03166105405760405162461bcd60e51b8152602060048201526018602482015277115490cdcc8c4e881a5b9d985b1a59081d1bdad95b88125160421b6044820152606401610437565b600081815260046020526040902080546001600160a01b0319166001600160a01b038416908117909155819061080182610562565b6001600160a01b03167f8c5be1e5ebec7d5bd14f71427d1e84f3dd0314c0f7b2291e5b200ac8c7c3b92560405160405180910390a45050565b60008061084683610562565b9050806001600160a01b0316846001600160a01b0316148061086d575061086d818561073f565b806108915750836001600160a01b03166108868461039c565b6001600160a01b0316145b949350505050565b826001600160a01b03166108ac82610562565b6001600160a01b0316146108d25760405162461bcd60e51b81526004016104379061145b565b6001600160a01b0382166109345760405162461bcd60e51b8152602060048201526024808201527f4552433732313a207472616e7366657220746f20746865207a65726f206164646044820152637265737360e01b6064820152608401610437565b6109418383836001610e27565b826001600160a01b031661095482610562565b6001600160a01b03161461097a5760405162461bcd60e51b81526004016104379061145b565b600081815260046020908152604080832080546001600160a01b03199081169091556001600160a01b0387811680865260038552838620805460001901905590871680865283862080546001019055868652600290945282852080549092168417909155905184937fddf252ad1be2c89b69c2b068fc378daa952ba7f163c4a11628f55a4df523b3ef91a4505050565b6001600160a01b038216610a605760405162461bcd60e51b815260206004820181905260248201527f4552433732313a206d696e7420746f20746865207a65726f20616464726573736044820152606401610437565b6000818152600260205260409020546001600160a01b031615610ac55760405162461bcd60e51b815260206004820152601c60248201527f4552433732313a20746f6b656e20616c7265616479206d696e746564000000006044820152606401610437565b610ad3600083836001610e27565b6000818152600260205260409020546001600160a01b031615610b385760405162461bcd60e51b815260206004820152601c60248201527f4552433732313a20746f6b656e20616c7265616479206d696e746564000000006044820152606401610437565b6001600160a01b038216600081815260036020908152604080832080546001019055848352600290915280822080546001600160a01b0319168417905551839291907fddf252ad1be2c89b69c2b068fc378daa952ba7f163c4a11628f55a4df523b3ef908290a45050565b6000610bae82610562565b9050610bbe816000846001610e27565b610bc782610562565b600083815260046020908152604080832080546001600160a01b03199081169091556001600160a01b0385168085526003845282852080546000190190558785526002909352818420805490911690555192935084927fddf252ad1be2c89b69c2b068fc378daa952ba7f163c4a11628f55a4df523b3ef908390a45050565b610c508383610a0a565b610c5d6000848484610eaf565b6104d85760405162461bcd60e51b8152600401610437906114a0565b610518828260405180602001604052806000815250610c46565b816001600160a01b0316836001600160a01b031603610cf45760405162461bcd60e51b815260206004820152601960248201527f4552433732313a20617070726f766520746f2063616c6c6572000000000000006044820152606401610437565b6001600160a01b03838116600081815260056020908152604080832094871680845294825291829020805460ff191686151590811790915591519182527f17307eab39ab6107e8899845ad3d59bd9653f200f220920489ca2b5937696c31910160405180910390a3505050565b610d6c848484610899565b610d7884848484610eaf565b6106c55760405162461bcd60e51b8152600401610437906114a0565b60606000610da183610fb0565b600101905060008167ffffffffffffffff811115610dc157610dc16111d4565b6040519080825280601f01601f191660200182016040528015610deb576020820181803683370190505b5090508181016020015b600019016f181899199a1a9b1b9c1cb0b131b232b360811b600a86061a8153600a8504945084610df557509392505050565b60018111156106c5576001600160a01b03841615610e6d576001600160a01b03841660009081526003602052604081208054839290610e67908490611508565b90915550505b6001600160a01b038316156106c5576001600160a01b03831660009081526003602052604081208054839290610ea490849061151b565b909155505050505050565b60006001600160a01b0384163b15610fa557604051630a85bd0160e11b81526001600160a01b0385169063150b7a0290610ef390339089908890889060040161152e565b6020604051808303816000875af1925050508015610f2e575060408051601f3d908101601f19168201909252610f2b9181019061156b565b60015b610f8b573d808015610f5c576040519150601f19603f3d011682016040523d82523d6000602084013e610f61565b606091505b508051600003610f835760405162461bcd60e51b8152600401610437906114a0565b805181602001fd5b6001600160e01b031916630a85bd0160e11b149050610891565b506001949350505050565b60008072184f03e93ff9f4daa797ed6e38ed64bf6a1f0160401b8310610fef5772184f03e93ff9f4daa797ed6e38ed64bf6a1f0160401b830492506040015b6d04ee2d6d415b85acef8100000000831061101b576d04ee2d6d415b85acef8100000000830492506020015b662386f26fc10000831061103957662386f26fc10000830492506010015b6305f5e1008310611051576305f5e100830492506008015b612710831061106557612710830492506004015b60648310611077576064830492506002015b600a83106103045760010192915050565b6001600160e01b03198116811461054057600080fd5b6000602082840312156110b057600080fd5b813561073881611088565b60005b838110156110d65781810151838201526020016110be565b50506000910152565b600081518084526110f78160208601602086016110bb565b601f01601f19169290920160200192915050565b60208152600061073860208301846110df565b60006020828403121561113057600080fd5b5035919050565b80356001600160a01b038116811461114e57600080fd5b919050565b6000806040838503121561116657600080fd5b61116f83611137565b946020939093013593505050565b60008060006060848603121561119257600080fd5b61119b84611137565b92506111a960208501611137565b9150604084013590509250925092565b6000602082840312156111cb57600080fd5b61073882611137565b634e487b7160e01b600052604160045260246000fd5b600082601f8301126111fb57600080fd5b813567ffffffffffffffff80821115611216576112166111d4565b604051601f8301601f19908116603f0116810190828211818310171561123e5761123e6111d4565b8160405283815286602085880101111561125757600080fd5b836020870160208301376000602085830101528094505050505092915050565b60008060006060848603121561128c57600080fd5b61129584611137565b925060208401359150604084013567ffffffffffffffff8111156112b857600080fd5b6112c4868287016111ea565b9150509250925092565b600080604083850312156112e157600080fd5b6112ea83611137565b9150602083013580151581146112ff57600080fd5b809150509250929050565b6000806000806080858703121561132057600080fd5b61132985611137565b935061133760208601611137565b925060408501359150606085013567ffffffffffffffff81111561135a57600080fd5b611366878288016111ea565b91505092959194509250565b6000806040838503121561138557600080fd5b61138e83611137565b915061139c60208401611137565b90509250929050565b600181811c908216806113b957607f821691505b6020821081036113d957634e487b7160e01b600052602260045260246000fd5b50919050565b6020808252602d908201527f4552433732313a2063616c6c6572206973206e6f7420746f6b656e206f776e6560408201526c1c881bdc88185c1c1c9bdd9959609a1b606082015260800190565b6000835161143e8184602088016110bb565b8351908301906114528183602088016110bb565b01949350505050565b60208082526025908201527f4552433732313a207472616e736665722066726f6d20696e636f72726563742060408201526437bbb732b960d91b606082015260800190565b60208082526032908201527f4552433732313a207472616e7366657220746f206e6f6e20455243373231526560408201527131b2b4bb32b91034b6b83632b6b2b73a32b960711b606082015260800190565b634e487b7160e01b600052601160045260246000fd5b81810381811115610304576103046114f2565b80820180821115610304576103046114f2565b6001600160a01b0385811682528416602082015260408101839052608060608201819052600090611561908301846110df565b9695505050505050565b60006020828403121561157d57600080fd5b81516107388161108856fea26469706673582212200db7f5ea0ce23bb71d61e707993ef3fb7c559699931861367e9974737c8a827164736f6c63430008130033","linkReferences":{}},"methodIdentifiers":{"approve(address,uint256)":"095ea7b3","balanceOf(address)":"70a08231","baseURI()":"6c0360eb","burn(uint256)":"42966c68","exists(uint256)":"4f558e79","getApproved(uint256)":"081812fc","isApprovedForAll(address,address)":"e985e9c5","mint(address,uint256)":"40c10f19","name()":"06fdde03","ownerOf(uint256)":"6352211e","safeMint(address,uint256)":"a1448194","safeMint(address,uint256,bytes)":"8832e6e3","safeTransferFrom(address,address,uint256)":"42842e0e","safeTransferFrom(address,address,uint256,bytes)":"b88d4fde","setApprovalForAll(address,bool)":"a22cb465","supportsInterface(bytes4)":"01ffc9a7","symbol()":"95d89b41","tokenURI(uint256)":"c87b56dd","transferFrom(address,address,uint256)":"23b872dd"},"id":41}