{"abi":[{"type":"receive","stateMutability":"payable"},{"type":"function","name":"addToRaffle","inputs":[{"name":"_usr","type":"address","internalType":"address"},{"name":"_raffleId","type":"bytes32","internalType":"bytes32"}],"outputs":[],"stateMutability":"nonpayable"},{"type":"function","name":"createRaffle","inputs":[{"name":"_raffleType","type":"uint8","internalType":"enum RaffleNoVrf.RaffleType"},{"name":"_endTime","type":"uint256","internalType":"uint256"},{"name":"_prize","type":"address","internalType":"address"},{"name":"_prizeId","type":"uint256","internalType":"uint256"},{"name":"_prizeAmount","type":"uint256","internalType":"uint256"},{"name":"_entryFee","type":"uint256","internalType":"uint256"}],"outputs":[{"name":"raffleId","type":"bytes32","internalType":"bytes32"}],"stateMutability":"nonpayable"},{"type":"function","name":"enterRaffle","inputs":[{"name":"_raffleId","type":"bytes32","internalType":"bytes32"}],"outputs":[],"stateMutability":"payable"},{"type":"function","name":"entrants","inputs":[{"name":"","type":"uint256","internalType":"uint256"}],"outputs":[{"name":"","type":"address","internalType":"address"}],"stateMutability":"view"},{"type":"function","name":"getRaffleInfo","inputs":[{"name":"_raffleId","type":"bytes32","internalType":"bytes32"}],"outputs":[{"name":"","type":"tuple","internalType":"struct RaffleNoVrf.RaffleInfo","components":[{"name":"status","type":"uint8","internalType":"enum RaffleNoVrf.Status"},{"name":"raffleType","type":"uint8","internalType":"enum RaffleNoVrf.RaffleType"},{"name":"id","type":"bytes32","internalType":"bytes32"},{"name":"endTime","type":"uint256","internalType":"uint256"},{"name":"randomNumber","type":"uint256","internalType":"uint256"},{"name":"prize","type":"address","internalType":"address"},{"name":"prizeId","type":"uint256","internalType":"uint256"},{"name":"prizeAmount","type":"uint256","internalType":"uint256"},{"name":"entryFee","type":"uint256","internalType":"uint256"},{"name":"randomNumberAvailable","type":"bool","internalType":"bool"},{"name":"winner","type":"address","internalType":"address"}]}],"stateMutability":"view"},{"type":"function","name":"pickWinner","inputs":[{"name":"_raffleId","type":"bytes32","internalType":"bytes32"}],"outputs":[],"stateMutability":"nonpayable"},{"type":"function","name":"raffle","inputs":[{"name":"","type":"bytes32","internalType":"bytes32"}],"outputs":[{"name":"status","type":"uint8","internalType":"enum RaffleNoVrf.Status"},{"name":"raffleType","type":"uint8","internalType":"enum RaffleNoVrf.RaffleType"},{"name":"id","type":"bytes32","internalType":"bytes32"},{"name":"endTime","type":"uint256","internalType":"uint256"},{"name":"randomNumber","type":"uint256","internalType":"uint256"},{"name":"prize","type":"address","internalType":"address"},{"name":"prizeId","type":"uint256","internalType":"uint256"},{"name":"prizeAmount","type":"uint256","internalType":"uint256"},{"name":"entryFee","type":"uint256","internalType":"uint256"},{"name":"randomNumberAvailable","type":"bool","internalType":"bool"},{"name":"winner","type":"address","internalType":"address"}],"stateMutability":"view"},{"type":"function","name":"raffleEntrants","inputs":[{"name":"","type":"bytes32","internalType":"bytes32"},{"name":"","type":"uint256","internalType":"uint256"}],"outputs":[{"name":"","type":"address","internalType":"address"}],"stateMutability":"view"},{"type":"function","name":"raffleEntryIndex","inputs":[{"name":"","type":"bytes32","internalType":"bytes32"},{"name":"","type":"address","internalType":"address"}],"outputs":[{"name":"","type":"uint256","internalType":"uint256"}],"stateMutability":"view"},{"type":"function","name":"s_requests","inputs":[{"name":"","type":"uint256","internalType":"uint256"}],"outputs":[{"name":"fulfilled","type":"bool","internalType":"bool"},{"name":"exists","type":"bool","internalType":"bool"}],"stateMutability":"view"},{"type":"function","name":"withdrawERC20TokenFees","inputs":[{"name":"_to","type":"address","internalType":"address"},{"name":"_token","type":"address","internalType":"address"}],"outputs":[],"stateMutability":"nonpayable"},{"type":"function","name":"withdrawEthFees","inputs":[{"name":"_to","type":"address","internalType":"address"}],"outputs":[],"stateMutability":"nonpayable"},{"type":"event","name":"AddedToRaffle","inputs":[{"name":"usr","type":"address","indexed":false,"internalType":"address"},{"name":"raffleId","type":"bytes32","indexed":false,"internalType":"bytes32"}],"anonymous":false},{"type":"event","name":"RequestFulfilled","inputs":[{"name":"requestId","type":"uint256","indexed":false,"internalType":"uint256"},{"name":"randomWords","type":"uint256[]","indexed":false,"internalType":"uint256[]"},{"name":"raffleId","type":"uint256","indexed":false,"internalType":"uint256"}],"anonymous":false},{"type":"event","name":"RequestSent","inputs":[{"name":"requestId","type":"uint256","indexed":false,"internalType":"uint256"},{"name":"numWords","type":"uint32","indexed":false,"internalType":"uint32"}],"anonymous":false},{"type":"error","name":"AlreadyEntered","inputs":[{"name":"_usr","type":"address","internalType":"address"}]},{"type":"error","name":"InvalidRaffle","inputs":[{"name":"_raffleId","type":"bytes32","internalType":"bytes32"}]},{"type":"error","name":"RaffleClosed","inputs":[]},{"type":"error","name":"RaffleStillOpen","inputs":[]}],"bytecode":{"object":"0x608060405234801561001057600080fd5b50611434806100206000396000f3fe6080604052600436106100ab5760003560e01c80639bdfa18e116100645780639bdfa18e146101af578063a168fa89146101dc578063b7f0aaa81461022c578063c85faded1461024c578063e5e7dcfc1461026c578063e7b4e5ab1461030257600080fd5b8063507acdb7146100b757806353bca23e146100d9578063671c5ce0146101245780638f56df3a1461015c578063948313d71461017c57806399a5abd41461019c57600080fd5b366100b257005b600080fd5b3480156100c357600080fd5b506100d76100d23660046110fc565b610322565b005b3480156100e557600080fd5b506101116100f4366004611126565b600460209081526000928352604080842090915290825290205481565b6040519081526020015b60405180910390f35b34801561013057600080fd5b5061014461013f366004611152565b6105a2565b6040516001600160a01b03909116815260200161011b565b34801561016857600080fd5b506100d7610177366004611174565b6105da565b34801561018857600080fd5b506100d7610197366004611196565b610679565b6100d76101aa3660046111c0565b6107b2565b3480156101bb57600080fd5b506101cf6101ca3660046111c0565b610a71565b60405161011b919061121d565b3480156101e857600080fd5b506102156101f73660046111c0565b60016020526000908152604090205460ff8082169161010090041682565b60408051921515835290151560208301520161011b565b34801561023857600080fd5b506100d76102473660046111c0565b610bc6565b34801561025857600080fd5b506101116102673660046112cb565b610e7d565b34801561027857600080fd5b506102eb6102873660046111c0565b600260208190526000918252604090912080546001820154928201546003830154600484015460058501546006860154600787015460089097015460ff808816996101009889900482169990986001600160a01b039687169691939283169204168b565b60405161011b9b9a99989796959493929190611329565b34801561030e57600080fd5b5061014461031d3660046111c0565b611051565b600081815260026020819052604080832081516101608101909252805491929091839160ff9091169081111561035a5761035a6111d9565b600281111561036b5761036b6111d9565b81528154602090910190610100900460ff16600281111561038e5761038e6111d9565b600281111561039f5761039f6111d9565b815260018201546020808301919091526002830154604080840191909152600380850154606085015260048501546001600160a01b039081166080860152600586015460a0860152600686015460c0860152600786015460e086015260089095015460ff81161515610100808701919091529004909416610120909301929092526000868152929052812080549293506104389261107b565b5060008151600281111561044e5761044e6111d9565b146104745760405163ea88069560e01b8152600481018390526024015b60405180910390fd5b806060015142106104985760405163aad504bb60e01b815260040160405180910390fd5b60008281526004602090815260408083206001600160a01b0387168452909152902054156104e45760405163cace269560e01b81526001600160a01b038416600482015260240161046b565b60008054600180820183558280527f290decd9548b62a8d60345a988386fc84ba6bc95484008f6362f93160ef3e56390910180546001600160a01b0319166001600160a01b038716179055815461053b919061139c565b60008481526004602090815260408083206001600160a01b0389168085529083529281902084905580519283529082018690529192507f9440a187284f66513c0bccfc0aca848c3b273f0430e03273fecfa791d12b2fc3910160405180910390a150505050565b600360205281600052604060002081815481106105be57600080fd5b6000918252602090912001546001600160a01b03169150829050565b60405147906000906001600160a01b0384169083908381818185875af1925050503d8060008114610627576040519150601f19603f3d011682016040523d82523d6000602084013e61062c565b606091505b50509050806106745760405162461bcd60e51b81526020600482015260146024820152732330b4b632b2103a379039b2b7321022ba3432b960611b604482015260640161046b565b505050565b6040516370a0823160e01b81523060048201526000906001600160a01b038316906370a0823190602401602060405180830381865afa1580156106c0573d6000803e3d6000fd5b505050506040513d601f19601f820116820180604052508101906106e491906113c3565b60405163a9059cbb60e01b81526001600160a01b0385811660048301526024820183905291925060009184169063a9059cbb906044016020604051808303816000875af1158015610739573d6000803e3d6000fd5b505050506040513d601f19601f8201168201806040525081019061075d91906113dc565b9050806107ac5760405162461bcd60e51b815260206004820152601b60248201527f4661696c656420455243323020546f6b656e205472616e736665720000000000604482015260640161046b565b50505050565b600081815260026020819052604080832081516101608101909252805491929091839160ff909116908111156107ea576107ea6111d9565b60028111156107fb576107fb6111d9565b81528154602090910190610100900460ff16600281111561081e5761081e6111d9565b600281111561082f5761082f6111d9565b815260018201546020808301919091526002830154604080840191909152600380850154606085015260048501546001600160a01b039081166080860152600586015460a0860152600686015460c0860152600786015460e086015260089095015460ff81161515610100808701919091529004909416610120909301929092526000868152929052812080549293506108c89261107b565b506000815160028111156108de576108de6111d9565b146108ff5760405163ea88069560e01b81526004810183905260240161046b565b806060015142106109235760405163aad504bb60e01b815260040160405180910390fd5b600081610100015111801561093d57508061010001513414155b1561098c57806101000151341461098c5760405162461bcd60e51b81526020600482015260136024820152724d7573742073656e6420656e7472792066656560681b604482015260640161046b565b6000828152600460209081526040808320338452909152902054156109c65760405163cace269560e01b815233600482015260240161046b565b60008054600181810183558280527f290decd9548b62a8d60345a988386fc84ba6bc95484008f6362f93160ef3e56390910180546001600160a01b031916331790558154610a14919061139c565b6000848152600460209081526040808320338085529083529281902084905580519283529082018690529192507f9440a187284f66513c0bccfc0aca848c3b273f0430e03273fecfa791d12b2fc3910160405180910390a1505050565b610ad160408051610160810190915280600081526020016000815260006020820181905260408201819052606082018190526080820181905260a0820181905260c0820181905260e0820181905261010082018190526101209091015290565b6000828152600260208190526040918290208251610160810190935280549091839160ff1690811115610b0657610b066111d9565b6002811115610b1757610b176111d9565b81528154602090910190610100900460ff166002811115610b3a57610b3a6111d9565b6002811115610b4b57610b4b6111d9565b815260018201546020820152600282015460408201526003820154606082015260048201546001600160a01b039081166080830152600583015460a0830152600683015460c0830152600783015460e083015260089092015460ff811615156101008084019190915290049091166101209091015292915050565b600081815260026020819052604080832081516101608101909252805491929091839160ff90911690811115610bfe57610bfe6111d9565b6002811115610c0f57610c0f6111d9565b81528154602090910190610100900460ff166002811115610c3257610c326111d9565b6002811115610c4357610c436111d9565b815260018201546020808301919091526002830154604080840191909152600380850154606085015260048501546001600160a01b039081166080860152600586015460a0860152600686015460c0860152600786015460e086015260089095015460ff8116151561010080870191909152900490941661012090930192909252600086815292905281208054929350610cdc9261107b565b508060600151421015610d0257604051634ac0e46760e01b815260040160405180910390fd5b600181602001516002811115610d1a57610d1a6111d9565b14610d7557600081602001516002811115610d3757610d376111d9565b14610d7557600281602001516002811115610d5457610d546111d9565b14610d755760405163ea88069560e01b81526004810183905260240161046b565b600181819052506000828152600260208190526040909120825181548493839160ff1916906001908490811115610dae57610dae6111d9565b021790555060208201518154829061ff001916610100836002811115610dd657610dd66111d9565b021790555060408201516001820155606082015160028201556080820151600382015560a08201516004820180546001600160a01b0319166001600160a01b0392831617905560c0830151600583015560e0830151600683015561010080840151600784015561012084015160089093018054610140909501516001600160a81b0319909516931515610100600160a81b0319169390931793909116029190911790555050565b60004233604051602001610ead92919091825260601b6bffffffffffffffffffffffff1916602082015260340190565b60408051601f1981840301815282825280516020909101206101608301909152915060009080828152602001896002811115610eeb57610eeb6111d9565b815260200183815260200188815260200160008152602001876001600160a01b0316815260200186815260200185815260200184815260200160001515815260200160006001600160a01b03168152509050806002600084815260200190815260200160002060008201518160000160006101000a81548160ff02191690836002811115610f7b57610f7b6111d9565b021790555060208201518154829061ff001916610100836002811115610fa357610fa36111d9565b021790555060408201516001820155606082015160028201556080820151600382015560a08201516004820180546001600160a01b0319166001600160a01b0392831617905560c0830151600583015560e0830151600683015561010080840151600784015561012084015160089093018054610140909501516001600160a81b0319909516931515610100600160a81b031916939093179390911602919091179055509695505050505050565b6000818154811061106157600080fd5b6000918252602090912001546001600160a01b0316905081565b8280548282559060005260206000209081019282156110bb5760005260206000209182015b828111156110bb5782548255916001019190600101906110a0565b506110c79291506110cb565b5090565b5b808211156110c757600081556001016110cc565b80356001600160a01b03811681146110f757600080fd5b919050565b6000806040838503121561110f57600080fd5b611118836110e0565b946020939093013593505050565b6000806040838503121561113957600080fd5b82359150611149602084016110e0565b90509250929050565b6000806040838503121561116557600080fd5b50508035926020909101359150565b60006020828403121561118657600080fd5b61118f826110e0565b9392505050565b600080604083850312156111a957600080fd5b6111b2836110e0565b9150611149602084016110e0565b6000602082840312156111d257600080fd5b5035919050565b634e487b7160e01b600052602160045260246000fd5b6003811061120d57634e487b7160e01b600052602160045260246000fd5b50565b611219816111ef565b9052565b600061016082019050611231828451611210565b60208301516112436020840182611210565b5060408301516040830152606083015160608301526080830151608083015260a083015161127c60a08401826001600160a01b03169052565b5060c083015160c083015260e083015160e0830152610100808401518184015250610120808401516112b18285018215159052565b5050610140928301516001600160a01b0316919092015290565b60008060008060008060c087890312156112e457600080fd5b8635600381106112f357600080fd5b955060208701359450611308604088016110e0565b9350606087013592506080870135915060a087013590509295509295509295565b61016081016113378d6111ef565b8c82526113438c6111ef565b602082019b909b526040810199909952606089019790975260808801959095526001600160a01b0393841660a088015260c087019290925260e08601526101008501529015156101208401521661014090910152919050565b818103818111156113bd57634e487b7160e01b600052601160045260246000fd5b92915050565b6000602082840312156113d557600080fd5b5051919050565b6000602082840312156113ee57600080fd5b8151801515811461118f57600080fdfea2646970667358221220482f06bb621cb217a416821f5ef1b121246083a2c84970a089072e258355d48464736f6c63430008130033","linkReferences":{}},"methodIdentifiers":{"addToRaffle(address,bytes32)":"507acdb7","createRaffle(uint8,uint256,address,uint256,uint256,uint256)":"c85faded","enterRaffle(bytes32)":"99a5abd4","entrants(uint256)":"e7b4e5ab","getRaffleInfo(bytes32)":"9bdfa18e","pickWinner(bytes32)":"b7f0aaa8","raffle(bytes32)":"e5e7dcfc","raffleEntrants(bytes32,uint256)":"671c5ce0","raffleEntryIndex(bytes32,address)":"53bca23e","s_requests(uint256)":"a168fa89","withdrawERC20TokenFees(address,address)":"948313d7","withdrawEthFees(address)":"8f56df3a"},"id":4}