{"abi":[{"type":"constructor","inputs":[{"name":"_ccipTokenTranferor","type":"address","internalType":"address"},{"name":"_bnmToken","type":"address","internalType":"address"}],"stateMutability":"nonpayable"},{"type":"function","name":"addEmployee","inputs":[{"name":"_employeeAddress","type":"address","internalType":"address"},{"name":"_isSalary","type":"bool","internalType":"bool"},{"name":"_payRate","type":"uint256","internalType":"uint256"}],"outputs":[],"stateMutability":"nonpayable"},{"type":"function","name":"automationAddress","inputs":[],"outputs":[{"name":"","type":"address","internalType":"address"}],"stateMutability":"view"},{"type":"function","name":"bnmToken","inputs":[],"outputs":[{"name":"","type":"address","internalType":"contract IERC20"}],"stateMutability":"view"},{"type":"function","name":"ccip","inputs":[],"outputs":[{"name":"","type":"address","internalType":"contract ITokenTransferor"}],"stateMutability":"view"},{"type":"function","name":"changePrimaryWalletAddress","inputs":[{"name":"_oldAddress","type":"address","internalType":"address"},{"name":"_newAddress","type":"address","internalType":"address"}],"outputs":[],"stateMutability":"nonpayable"},{"type":"function","name":"employeeIds","inputs":[{"name":"","type":"bytes32","internalType":"bytes32"}],"outputs":[{"name":"employeeId","type":"bytes32","internalType":"bytes32"},{"name":"primaryWallet","type":"address","internalType":"address"},{"name":"isSalary","type":"bool","internalType":"bool"},{"name":"payRate","type":"uint256","internalType":"uint256"},{"name":"paymentSplits","type":"tuple","internalType":"struct Payroll.PaymentSplit","components":[{"name":"paySplitPercentageNative","type":"uint8","internalType":"uint8"},{"name":"paySplitPercentage1","type":"uint8","internalType":"uint8"},{"name":"paySplitPercentage2","type":"uint8","internalType":"uint8"},{"name":"paySplitPercentage3","type":"uint8","internalType":"uint8"},{"name":"paySplitPercentage4","type":"uint8","internalType":"uint8"},{"name":"paySplitPercentage5","type":"uint8","internalType":"uint8"}]}],"stateMutability":"view"},{"type":"function","name":"employees","inputs":[{"name":"","type":"address","internalType":"address"}],"outputs":[{"name":"employeeId","type":"bytes32","internalType":"bytes32"},{"name":"primaryWallet","type":"address","internalType":"address"},{"name":"isSalary","type":"bool","internalType":"bool"},{"name":"payRate","type":"uint256","internalType":"uint256"},{"name":"paymentSplits","type":"tuple","internalType":"struct Payroll.PaymentSplit","components":[{"name":"paySplitPercentageNative","type":"uint8","internalType":"uint8"},{"name":"paySplitPercentage1","type":"uint8","internalType":"uint8"},{"name":"paySplitPercentage2","type":"uint8","internalType":"uint8"},{"name":"paySplitPercentage3","type":"uint8","internalType":"uint8"},{"name":"paySplitPercentage4","type":"uint8","internalType":"uint8"},{"name":"paySplitPercentage5","type":"uint8","internalType":"uint8"}]}],"stateMutability":"view"},{"type":"function","name":"getAutomationAddress","inputs":[],"outputs":[{"name":"","type":"address","internalType":"address"}],"stateMutability":"view"},{"type":"function","name":"getEmployee","inputs":[{"name":"_employeeAddress","type":"address","internalType":"address"}],"outputs":[{"name":"","type":"tuple","internalType":"struct Payroll.Employee","components":[{"name":"employeeId","type":"bytes32","internalType":"bytes32"},{"name":"primaryWallet","type":"address","internalType":"address"},{"name":"isSalary","type":"bool","internalType":"bool"},{"name":"payRate","type":"uint256","internalType":"uint256"},{"name":"paymentSplits","type":"tuple","internalType":"struct Payroll.PaymentSplit","components":[{"name":"paySplitPercentageNative","type":"uint8","internalType":"uint8"},{"name":"paySplitPercentage1","type":"uint8","internalType":"uint8"},{"name":"paySplitPercentage2","type":"uint8","internalType":"uint8"},{"name":"paySplitPercentage3","type":"uint8","internalType":"uint8"},{"name":"paySplitPercentage4","type":"uint8","internalType":"uint8"},{"name":"paySplitPercentage5","type":"uint8","internalType":"uint8"}]}]}],"stateMutability":"view"},{"type":"function","name":"getEmployeePaymentSplits","inputs":[{"name":"_employeeAddress","type":"address","internalType":"address"}],"outputs":[{"name":"","type":"tuple","internalType":"struct Payroll.PaymentSplit","components":[{"name":"paySplitPercentageNative","type":"uint8","internalType":"uint8"},{"name":"paySplitPercentage1","type":"uint8","internalType":"uint8"},{"name":"paySplitPercentage2","type":"uint8","internalType":"uint8"},{"name":"paySplitPercentage3","type":"uint8","internalType":"uint8"},{"name":"paySplitPercentage4","type":"uint8","internalType":"uint8"},{"name":"paySplitPercentage5","type":"uint8","internalType":"uint8"}]}],"stateMutability":"view"},{"type":"function","name":"getHourlyEmployees","inputs":[],"outputs":[{"name":"","type":"address[]","internalType":"address[]"}],"stateMutability":"view"},{"type":"function","name":"getSalariedEmployees","inputs":[],"outputs":[{"name":"","type":"address[]","internalType":"address[]"}],"stateMutability":"view"},{"type":"function","name":"hourlyEmployeeIndex","inputs":[{"name":"","type":"address","internalType":"address"}],"outputs":[{"name":"","type":"uint256","internalType":"uint256"}],"stateMutability":"view"},{"type":"function","name":"hourlyEmployees","inputs":[{"name":"","type":"uint256","internalType":"uint256"}],"outputs":[{"name":"","type":"address","internalType":"address"}],"stateMutability":"view"},{"type":"function","name":"i_destinationChainIDdOP","inputs":[],"outputs":[{"name":"","type":"uint64","internalType":"uint64"}],"stateMutability":"view"},{"type":"function","name":"i_destinationChainIdBase","inputs":[],"outputs":[{"name":"","type":"uint64","internalType":"uint64"}],"stateMutability":"view"},{"type":"function","name":"i_destinationChainIdBnb","inputs":[],"outputs":[{"name":"","type":"uint64","internalType":"uint64"}],"stateMutability":"view"},{"type":"function","name":"i_destinationChainIdEth","inputs":[],"outputs":[{"name":"","type":"uint64","internalType":"uint64"}],"stateMutability":"view"},{"type":"function","name":"i_destinationChainIdPolygon","inputs":[],"outputs":[{"name":"","type":"uint64","internalType":"uint64"}],"stateMutability":"view"},{"type":"function","name":"owner","inputs":[],"outputs":[{"name":"","type":"address","internalType":"address"}],"stateMutability":"view"},{"type":"function","name":"pay","inputs":[{"name":"_destinationChainSelector","type":"uint64","internalType":"uint64"},{"name":"_employeeAddress","type":"address","internalType":"address"},{"name":"_token","type":"address","internalType":"address"},{"name":"_amount","type":"uint256","internalType":"uint256"}],"outputs":[{"name":"messageId","type":"bytes32","internalType":"bytes32"}],"stateMutability":"nonpayable"},{"type":"function","name":"payAllEmployees","inputs":[{"name":"_hoursWorked","type":"uint8[]","internalType":"uint8[]"}],"outputs":[],"stateMutability":"nonpayable"},{"type":"function","name":"payAllHourlyEmployees","inputs":[{"name":"_hoursWorked","type":"uint8[]","internalType":"uint8[]"}],"outputs":[],"stateMutability":"nonpayable"},{"type":"function","name":"payAllSallaryEmployees","inputs":[],"outputs":[],"stateMutability":"nonpayable"},{"type":"function","name":"paySingleEmployee","inputs":[{"name":"_employeeAddress","type":"address","internalType":"address"},{"name":"_hoursWorked","type":"uint8","internalType":"uint8"}],"outputs":[],"stateMutability":"nonpayable"},{"type":"function","name":"paymentSplits","inputs":[{"name":"","type":"bytes32","internalType":"bytes32"}],"outputs":[{"name":"paySplitPercentageNative","type":"uint8","internalType":"uint8"},{"name":"paySplitPercentage1","type":"uint8","internalType":"uint8"},{"name":"paySplitPercentage2","type":"uint8","internalType":"uint8"},{"name":"paySplitPercentage3","type":"uint8","internalType":"uint8"},{"name":"paySplitPercentage4","type":"uint8","internalType":"uint8"},{"name":"paySplitPercentage5","type":"uint8","internalType":"uint8"}],"stateMutability":"view"},{"type":"function","name":"recieve","inputs":[],"outputs":[],"stateMutability":"payable"},{"type":"function","name":"removeEmployee","inputs":[{"name":"_employeeAddress","type":"address","internalType":"address"}],"outputs":[],"stateMutability":"nonpayable"},{"type":"function","name":"renounceOwnership","inputs":[],"outputs":[],"stateMutability":"nonpayable"},{"type":"function","name":"salariedEmployeeIndex","inputs":[{"name":"","type":"address","internalType":"address"}],"outputs":[{"name":"","type":"uint256","internalType":"uint256"}],"stateMutability":"view"},{"type":"function","name":"salariedEmployees","inputs":[{"name":"","type":"uint256","internalType":"uint256"}],"outputs":[{"name":"","type":"address","internalType":"address"}],"stateMutability":"view"},{"type":"function","name":"setAutomationAddress","inputs":[{"name":"_automationAddress","type":"address","internalType":"address"}],"outputs":[],"stateMutability":"nonpayable"},{"type":"function","name":"setEmployeeSalary","inputs":[{"name":"_employeeAddress","type":"address","internalType":"address"},{"name":"_isSalary","type":"bool","internalType":"bool"},{"name":"_payRate","type":"uint256","internalType":"uint256"}],"outputs":[],"stateMutability":"nonpayable"},{"type":"function","name":"setPaymentSplits","inputs":[{"name":"_employeeAddress","type":"address","internalType":"address"},{"name":"_paySplitPercentages","type":"uint8[6]","internalType":"uint8[6]"}],"outputs":[],"stateMutability":"nonpayable"},{"type":"function","name":"transferOwnership","inputs":[{"name":"newOwner","type":"address","internalType":"address"}],"outputs":[],"stateMutability":"nonpayable"},{"type":"function","name":"viewPaymentSplit","inputs":[{"name":"_employeeAddress","type":"address","internalType":"address"}],"outputs":[{"name":"","type":"tuple","internalType":"struct Payroll.PaymentSplit","components":[{"name":"paySplitPercentageNative","type":"uint8","internalType":"uint8"},{"name":"paySplitPercentage1","type":"uint8","internalType":"uint8"},{"name":"paySplitPercentage2","type":"uint8","internalType":"uint8"},{"name":"paySplitPercentage3","type":"uint8","internalType":"uint8"},{"name":"paySplitPercentage4","type":"uint8","internalType":"uint8"},{"name":"paySplitPercentage5","type":"uint8","internalType":"uint8"}]}],"stateMutability":"view"},{"type":"function","name":"withdraw","inputs":[{"name":"_to","type":"address","internalType":"address payable"}],"outputs":[],"stateMutability":"nonpayable"},{"type":"event","name":"AllEmployeesPaid","inputs":[],"anonymous":false},{"type":"event","name":"AllHourlyEmployeesPaid","inputs":[],"anonymous":false},{"type":"event","name":"AllSallaryEmployeesPaid","inputs":[],"anonymous":false},{"type":"event","name":"BalanceWithdrawn","inputs":[{"name":"amount","type":"uint256","indexed":false,"internalType":"uint256"}],"anonymous":false},{"type":"event","name":"EmployeeAdded","inputs":[{"name":"_employeeAddress","type":"address","indexed":false,"internalType":"address"}],"anonymous":false},{"type":"event","name":"EmployeeFired","inputs":[{"name":"_employeeAddress","type":"address","indexed":false,"internalType":"address"}],"anonymous":false},{"type":"event","name":"OwnershipTransferred","inputs":[{"name":"previousOwner","type":"address","indexed":true,"internalType":"address"},{"name":"newOwner","type":"address","indexed":true,"internalType":"address"}],"anonymous":false},{"type":"event","name":"PaymentSplitSet","inputs":[{"name":"_employeeAddress","type":"address","indexed":false,"internalType":"address"},{"name":"_paySplitPercentages","type":"uint8[6]","indexed":false,"internalType":"uint8[6]"}],"anonymous":false},{"type":"event","name":"SalarySet","inputs":[{"name":"_employeeAddress","type":"address","indexed":false,"internalType":"address"}],"anonymous":false},{"type":"event","name":"SingleEmployeePaid","inputs":[{"name":"_employeeAddress","type":"address","indexed":false,"internalType":"address"},{"name":"_amount","type":"uint256","indexed":false,"internalType":"uint256"}],"anonymous":false},{"type":"event","name":"TransferToChain","inputs":[{"name":"_receiver","type":"address","indexed":false,"internalType":"address"},{"name":"_destinationChainSelector","type":"uint64","indexed":false,"internalType":"uint64"},{"name":"messageId","type":"bytes32","indexed":false,"internalType":"bytes32"}],"anonymous":false},{"type":"event","name":"WalletAddressChanged","inputs":[{"name":"_oldAddress","type":"address","indexed":false,"internalType":"address"},{"name":"_newAddress","type":"address","indexed":false,"internalType":"address"}],"anonymous":false},{"type":"error","name":"EmployeeAlreadyExists","inputs":[]},{"type":"error","name":"EmployeeDoesNotExists","inputs":[]},{"type":"error","name":"EmployeeIsNotHourly","inputs":[]},{"type":"error","name":"EmployeeIsNotSalary","inputs":[]},{"type":"error","name":"HoursWorkedArrayDoesNotMatchEmployees","inputs":[{"name":"","type":"uint8[]","internalType":"uint8[]"}]},{"type":"error","name":"InvalidAddress","inputs":[]},{"type":"error","name":"MustHavePayRate","inputs":[]},{"type":"error","name":"OwnerCantBeEmployee","inputs":[]},{"type":"error","name":"PercentageMustEqual100","inputs":[]}],"bytecode":{"object":"0x61012060405267de41ba4fc9d91ad96080526724f9b897ef58a92260a05267adecc60412ce25a560c05267b8159170038f96fb60e05267505d17e36030dae9610100523480156200004f57600080fd5b50604051620035b7380380620035b783398101604081905262000072916200011c565b6200007d33620000af565b600280546001600160a01b039384166001600160a01b0319918216179091556001805492909316911617905562000154565b600080546001600160a01b038381166001600160a01b0319831681178455604051919092169283917f8be0079c531659141344cd1fd0a4f28419497f9722a3daafe3b4186f6b6457e09190a35050565b80516001600160a01b03811681146200011757600080fd5b919050565b600080604083850312156200013057600080fd5b6200013b83620000ff565b91506200014b60208401620000ff565b90509250929050565b60805160a05160c05160e051610100516133b5620002026000396000818161065a0152818161100001528181611ffa01526124200152600081816107c501528181610fa701528181611fa101526123c701526000818161068e01528181610f4e01528181611f48015261236e01526000818161062601528181610ef501528181611eef01526123150152600081816104d201528181610e8d01528181611e9601526122bc01526133b56000f3fe60806040526004361061021a5760003560e01c806396d92e0511610123578063d386bfa0116100ab578063e4a928881161006f578063e4a92888146108f7578063e7dd96d214610917578063e99bbfea14610937578063ec83e4aa14610957578063f2fde38b1461097757600080fd5b8063d386bfa0146107b3578063d517c479146107e7578063d71ade1414610805578063de59302c14610825578063e47f103a146108d757600080fd5b8063b7e64273116100f2578063b7e6427314610648578063b9a2d09b1461067c578063cdfa77ce146106b0578063d0678947146106d0578063d108177a1461079357600080fd5b806396d92e05146102ae5780639965ddee146105e7578063a9e10bf21461027f578063ad7adc391461061457600080fd5b80635e0c0d80116101a65780637e77b36b116101755780637e77b36b146104a05780637fb8c876146104c05780638da5cb5b1461050d5780638e479e4d1461052b57806391ac24c8146105c757600080fd5b80635e0c0d801461041057806364cb2ecb14610430578063715018a61461046b578063753b7ffe1461048057600080fd5b806334a7bb48116101ed57806334a7bb48146102ae57806351cff8d9146103835780635ac3505b146103a35780635afcc5da146103b85780635b1ae837146103d857600080fd5b806305e262411461021f57806314c710b51461024a5780632130854a1461025f57806332648e0914610281575b600080fd5b34801561022b57600080fd5b50610234610997565b6040516102419190612dfc565b60405180910390f35b34801561025657600080fd5b506102346109f9565b34801561026b57600080fd5b5061027f61027a366004612e49565b610a59565b005b34801561028d57600080fd5b506102a161029c366004612ed3565b610ae0565b6040516102419190612f39565b3480156102ba57600080fd5b506103766102c9366004612ed3565b6040805160c081018252600080825260208201819052918101829052606081018290526080810182905260a0810191909152506001600160a01b0316600090815260056020908152604091829020825160c08101845260039091015460ff808216835261010082048116938301939093526201000081048316938201939093526301000000830482166060820152600160201b830482166080820152600160281b9092041660a082015290565b6040516102419190612f85565b34801561038f57600080fd5b5061027f61039e366004612ed3565b610ba9565b3480156103af57600080fd5b5061027f610cab565b3480156103c457600080fd5b5061027f6103d3366004612fa1565b61107e565b3480156103e457600080fd5b506103f86103f3366004612fe2565b61114d565b6040516001600160a01b039091168152602001610241565b34801561041c57600080fd5b5061027f61042b366004612ffb565b611177565b34801561043c57600080fd5b5061045d61044b366004612ed3565b60086020526000908152604090205481565b604051908152602001610241565b34801561047757600080fd5b5061027f6115b5565b34801561048c57600080fd5b506001546103f8906001600160a01b031681565b3480156104ac57600080fd5b506002546103f8906001600160a01b031681565b3480156104cc57600080fd5b506104f47f000000000000000000000000000000000000000000000000000000000000000081565b60405167ffffffffffffffff9091168152602001610241565b34801561051957600080fd5b506000546001600160a01b03166103f8565b34801561053757600080fd5b5061058b610546366004612fe2565b60066020526000908152604090205460ff80821691610100810482169162010000820481169163010000008104821691600160201b8204811691600160281b90041686565b6040805160ff978816815295871660208701529386169385019390935290841660608401528316608083015290911660a082015260c001610241565b3480156105d357600080fd5b5061027f6105e2366004612fa1565b6115c9565b3480156105f357600080fd5b5061045d610602366004612ed3565b600a6020526000908152604090205481565b34801561062057600080fd5b506104f47f000000000000000000000000000000000000000000000000000000000000000081565b34801561065457600080fd5b506104f47f000000000000000000000000000000000000000000000000000000000000000081565b34801561068857600080fd5b506104f47f000000000000000000000000000000000000000000000000000000000000000081565b3480156106bc57600080fd5b506003546103f8906001600160a01b031681565b3480156106dc57600080fd5b506107826106eb366004612ed3565b600560209081526000918252604091829020805460018201546002830154855160c08101875260039094015460ff808216865261010082048116968601969096526201000081048616968501969096526301000000860485166060850152600160201b860485166080850152600160281b909504841660a084015290936001600160a01b03821693600160a01b9092049091169185565b604051610241959493929190613034565b34801561079f57600080fd5b5061027f6107ae366004612ed3565b611b29565b3480156107bf57600080fd5b506104f47f000000000000000000000000000000000000000000000000000000000000000081565b3480156107f357600080fd5b506003546001600160a01b03166103f8565b34801561081157600080fd5b5061027f610820366004612e49565b611c67565b34801561083157600080fd5b50610782610840366004612fe2565b600460209081526000918252604091829020805460018201546002830154855160c08101875260039094015460ff808216865261010082048116968601969096526201000081048616968501969096526301000000860485166060850152600160201b860485166080850152600160281b909504841660a084015290936001600160a01b03821693600160a01b9092049091169185565b3480156108e357600080fd5b5061027f6108f236600461307d565b61207a565b34801561090357600080fd5b5061045d6109123660046130b2565b6124a6565b34801561092357600080fd5b5061027f610932366004612ed3565b61265b565b34801561094357600080fd5b5061027f610952366004613110565b612685565b34801561096357600080fd5b506103f8610972366004612fe2565b61291c565b34801561098357600080fd5b5061027f610992366004612ed3565b61292c565b606060078054806020026020016040519081016040528092919081815260200182805480156109ef57602002820191906000526020600020905b81546001600160a01b031681526001909101906020018083116109d1575b5050505050905090565b606060098054806020026020016040519081016040528092919081815260200182805480156109ef576020028201919060005260206000209081546001600160a01b031681526001909101906020018083116109d1575050505050905090565b6003546001600160a01b0316331480610a7c57506000546001600160a01b031633145b610aa15760405162461bcd60e51b8152600401610a989061314c565b60405180910390fd5b610aa9610cab565b610ab38282611c67565b6040517fe408f9fbc619e5d2ca44c1a356e4c2eb37b1f23a8062156c7452ec7f3072a09390600090a15050565b610ae8612d97565b506001600160a01b03908116600090815260056020908152604091829020825160a080820185528254825260018301549586168285015260ff600160a01b90960486161515828601526002830154606080840191909152855160c0810187526003909401548088168552610100810488169585019590955262010000850487169584019590955263010000008404861694830194909452600160201b83048516608083810191909152600160281b9093049094169281019290925282015290565b610bb16129a5565b6001600160a01b038116610bd85760405163e6c4247b60e01b815260040160405180910390fd5b60405147906000906001600160a01b0384169083908381818185875af1925050503d8060008114610c25576040519150601f19603f3d011682016040523d82523d6000602084013e610c2a565b606091505b5050905080610c725760405162461bcd60e51b81526020600482015260146024820152732330b4b632b2103a379039b2b7321022ba3432b960611b6044820152606401610a98565b6040518281527f39f8b889424a1684bd36857c25ab79691ed71adf60bbeca32820cb4de3c5884c906020015b60405180910390a1505050565b6003546001600160a01b0316331480610cce57506000546001600160a01b031633145b610cea5760405162461bcd60e51b8152600401610a989061314c565b60005b60075481101561105257600060078281548110610d0c57610d0c61319b565b60009182526020822001546001600160a01b03169150610d2b826129ff565b6001600160a01b038316600090815260056020908152604091829020825160c08101845260039091015460ff80821680845261010083048216948401949094526201000082048116948301949094526301000000810484166060830152600160201b810484166080830152600160281b900490921660a08301529192509015610e725760015481516000916001600160a01b03169063a9059cbb908690606490610dd89060ff16886131c7565b610de291906131de565b6040516001600160e01b031960e085901b1681526001600160a01b03909216600483015260248201526044016020604051808303816000875af1158015610e2d573d6000803e3d6000fd5b505050506040513d601f19601f82011682018060405250810190610e519190613200565b905080610e705760405162461bcd60e51b8152600401610a989061321d565b505b602081015160ff1615610eda576001546020820151610ed8917f00000000000000000000000000000000000000000000000000000000000000009186916001600160a01b031690606490610ec99060ff16886131c7565b610ed391906131de565b612a2d565b505b604081015160ff1615610f33576001546040820151610f31917f00000000000000000000000000000000000000000000000000000000000000009186916001600160a01b031690606490610ec99060ff16886131c7565b505b606081015160ff1615610f8c576001546060820151610f8a917f00000000000000000000000000000000000000000000000000000000000000009186916001600160a01b031690606490610ec99060ff16886131c7565b505b608081015160ff1615610fe5576001546080820151610fe3917f00000000000000000000000000000000000000000000000000000000000000009186916001600160a01b031690606490610ec99060ff16886131c7565b505b60a081015160ff161561103e5760015460a082015161103c917f00000000000000000000000000000000000000000000000000000000000000009186916001600160a01b031690606490610ec99060ff16886131c7565b505b5050508061104b9061324c565b9050610ced565b506040517f1747d57e65e669e1aee8c41fd5df94e26df3137ce98fa92a33de2c037705083490600090a1565b6110866129a5565b6001600160a01b0383166110ad5760405163e6c4247b60e01b815260040160405180910390fd5b6001600160a01b03831660009081526005602052604081205490036110e5576040516312636c6d60e21b815260040160405180910390fd5b6001600160a01b03831660008181526005602090815260409182902060018101805460ff60a01b1916600160a01b8815150217905560020184905590519182527fcbe1ac3a739a6056ceab8ccc2fdf1eb8bc778acad285b3dd81099b438cd8e9079101610c9e565b6007818154811061115d57600080fd5b6000918252602090912001546001600160a01b0316905081565b3360009081526005602052604081205490036111e35760405162461bcd60e51b815260206004820152602560248201527f4f6e6c7920656d706c6f796565732063616e2063616c6c20746869732066756e60448201526431ba34b7b760d91b6064820152608401610a98565b6001600160a01b03811661120a5760405163e6c4247b60e01b815260040160405180910390fd5b6001600160a01b0382166000908152600560205260408120549003611242576040516312636c6d60e21b815260040160405180910390fd5b6001600160a01b038083166000818152600560208181526040808420815160a0808201845282548252600180840154808b1684880190815260ff600160a01b909204821615158588018190526002870154606080880191909152885160c081018a52600390980154808516895261010081048516898c015262010000810485169989019990995263010000008904841690880152600160201b88048316608088810191909152600160281b9098049092169386019390935294830193909352978916909752949093525290036113b1576001600160a01b038316600090815260086020526040902054611336816007612c37565b600780546001808201835560008381527fa66cc928b5edb82af9bd49922954155ab7b0942694bea4ce44661d9a8736c68890920180546001600160a01b0319166001600160a01b0388161790559154909161139091613265565b6001600160a01b0385166000908152600860205260409020555061144b9050565b6001600160a01b0383166000908152600a60205260409020546113d5816009612c37565b600980546001808201835560008381527f6e1540171b6c0c960b71a7020d9f60077f6af931a8bbf590da0223dacf75c7af90920180546001600160a01b0319166001600160a01b0388161790559154909161142f91613265565b6001600160a01b0385166000908152600a602052604090205550505b6001600160a01b038084166000908152600560209081526040808320838155600180820180546001600160a81b031990811690915560028084018790556003938401805465ffffffffffff19169055898816875295849020885181558886015192810180548a8701511515600160a01b0293169390981692909217179095556060808701519486019490945560808087015180519690920180549483015183850151968401519284015160a09094015160ff908116600160281b02948116600160201b0265ff0000000000191665ffff0000000019948216630100000002988216620100000263ff000000191663ffff0000199383166101000261ffff19999099169a90921699909917969096171694909417949094179390931693909317919091179055517f5555e92e6e43fa030c858b58d55eb7229f493a44dc66f35b2eec1ac27da6450a90610c9e90859085906001600160a01b0392831681529116602082015260400190565b6115bd6129a5565b6115c76000612d16565b565b6115d16129a5565b6001600160a01b0383166115f85760405163e6c4247b60e01b815260040160405180910390fd5b6001600160a01b0383166000908152600560205260409020541561162f5760405163117059fd60e21b815260040160405180910390fd5b6000546001600160a01b03166001600160a01b0316836001600160a01b03160361166c57604051630e216b2f60e01b815260040160405180910390fd5b8060000361168d5760405163b4c339fd60e01b815260040160405180910390fd5b6040516bffffffffffffffffffffffff19606085901b16602082015242603482015260009060540160405160208183030381529060405280519060200120905060006040518060a00160405280838152602001866001600160a01b0316815260200185151581526020018481526020016040518060c00160405280606460ff168152602001600060ff168152602001600060ff168152602001600060ff168152602001600060ff168152602001600060ff1681525081525090508060056000876001600160a01b03166001600160a01b031681526020019081526020016000206000820151816000015560208201518160010160006101000a8154816001600160a01b0302191690836001600160a01b0316021790555060408201518160010160146101000a81548160ff0219169083151502179055506060820151816002015560808201518160030160008201518160000160006101000a81548160ff021916908360ff16021790555060208201518160000160016101000a81548160ff021916908360ff16021790555060408201518160000160026101000a81548160ff021916908360ff16021790555060608201518160000160036101000a81548160ff021916908360ff16021790555060808201518160000160046101000a81548160ff021916908360ff16021790555060a08201518160000160056101000a81548160ff021916908360ff160217905550505090505080600460008481526020019081526020016000206000820151816000015560208201518160010160006101000a8154816001600160a01b0302191690836001600160a01b0316021790555060408201518160010160146101000a81548160ff0219169083151502179055506060820151816002015560808201518160030160008201518160000160006101000a81548160ff021916908360ff16021790555060208201518160000160016101000a81548160ff021916908360ff16021790555060408201518160000160026101000a81548160ff021916908360ff16021790555060608201518160000160036101000a81548160ff021916908360ff16021790555060808201518160000160046101000a81548160ff021916908360ff16021790555060a08201518160000160056101000a81548160ff021916908360ff16021790555050509050508315156001151503611a7057600780546001808201835560008381527fa66cc928b5edb82af9bd49922954155ab7b0942694bea4ce44661d9a8736c68890920180546001600160a01b0319166001600160a01b038a1617905591549091611a5191613265565b6001600160a01b03871660009081526008602052604090205550611ae5565b600980546001808201835560008381527f6e1540171b6c0c960b71a7020d9f60077f6af931a8bbf590da0223dacf75c7af90920180546001600160a01b0319166001600160a01b038a1617905591549091611aca91613265565b6001600160a01b0387166000908152600a6020526040902055505b6040516001600160a01b03861681527f041109cfe10cfa549abb66b986d0a294ecc6c9ad39000abcb9c2afd422c8bd64906020015b60405180910390a15050505050565b611b316129a5565b6001600160a01b0381166000908152600560205260408120549003611b69576040516312636c6d60e21b815260040160405180910390fd5b6001600160a01b0381166000908152600560205260409020600180820154600160a01b900460ff1615159003611bc3576001600160a01b038216600090815260086020526040902054611bbd816007612c37565b50611be9565b6001600160a01b0382166000908152600a6020526040902054611be7816009612c37565b505b6001600160a01b03821660008181526005602090815260408083208381556001810180546001600160a81b031916905560028101939093556003909201805465ffffffffffff1916905590519182527fc34a832d757b9fb8d21f0fa1ffd683119f285dc6472ac419b8c1bbb81c4a8ca0910160405180910390a15050565b6003546001600160a01b0316331480611c8a57506000546001600160a01b031633145b611ca65760405162461bcd60e51b8152600401610a989061314c565b6009548114611ccc5781816040516321c5b13b60e01b8152600401610a98929190613278565b60005b60095481101561204c57600060098281548110611cee57611cee61319b565b60009182526020822001546001600160a01b03169150611d3482868686818110611d1a57611d1a61319b565b9050602002016020810190611d2f91906132be565b612d66565b6001600160a01b038316600090815260056020908152604091829020825160c08101845260039091015460ff80821680845261010083048216948401949094526201000082048116948301949094526301000000810484166060830152600160201b810484166080830152600160281b900490921660a08301529192509015611e7b5760015481516000916001600160a01b03169063a9059cbb908690606490611de19060ff16886131c7565b611deb91906131de565b6040516001600160e01b031960e085901b1681526001600160a01b03909216600483015260248201526044016020604051808303816000875af1158015611e36573d6000803e3d6000fd5b505050506040513d601f19601f82011682018060405250810190611e5a9190613200565b905080611e795760405162461bcd60e51b8152600401610a989061321d565b505b602081015160ff1615611ed4576001546020820151611ed2917f00000000000000000000000000000000000000000000000000000000000000009186916001600160a01b031690606490610ec99060ff16886131c7565b505b604081015160ff1615611f2d576001546040820151611f2b917f00000000000000000000000000000000000000000000000000000000000000009186916001600160a01b031690606490610ec99060ff16886131c7565b505b606081015160ff1615611f86576001546060820151611f84917f00000000000000000000000000000000000000000000000000000000000000009186916001600160a01b031690606490610ec99060ff16886131c7565b505b608081015160ff1615611fdf576001546080820151611fdd917f00000000000000000000000000000000000000000000000000000000000000009186916001600160a01b031690606490610ec99060ff16886131c7565b505b60a081015160ff16156120385760015460a0820151612036917f00000000000000000000000000000000000000000000000000000000000000009186916001600160a01b031690606490610ec99060ff16886131c7565b505b505050806120459061324c565b9050611ccf565b506040517fa99f64305c0d90bd344c32396b923e0ac8a8b7e50103404260d4dd3dbd38511c90600090a15050565b6003546001600160a01b031633148061209d57506000546001600160a01b031633145b6120b95760405162461bcd60e51b8152600401610a989061314c565b6001600160a01b0382166120e05760405163e6c4247b60e01b815260040160405180910390fd5b6001600160a01b0382166000908152600560205260408120549003612118576040516312636c6d60e21b815260040160405180910390fd5b6001600160a01b038216600090815260056020526040812060010154600160a01b900460ff166121515761214c8383612d66565b61215a565b61215a836129ff565b6001600160a01b038416600090815260056020908152604091829020825160c08101845260039091015460ff80821680845261010083048216948401949094526201000082048116948301949094526301000000810484166060830152600160201b810484166080830152600160281b900490921660a083015291925090156122a15760015481516000916001600160a01b03169063a9059cbb9087906064906122079060ff16886131c7565b61221191906131de565b6040516001600160e01b031960e085901b1681526001600160a01b03909216600483015260248201526044016020604051808303816000875af115801561225c573d6000803e3d6000fd5b505050506040513d601f19601f820116820180604052508101906122809190613200565b90508061229f5760405162461bcd60e51b8152600401610a989061321d565b505b602081015160ff16156122fa5760015460208201516122f8917f00000000000000000000000000000000000000000000000000000000000000009187916001600160a01b031690606490610ec99060ff16886131c7565b505b604081015160ff1615612353576001546040820151612351917f00000000000000000000000000000000000000000000000000000000000000009187916001600160a01b031690606490610ec99060ff16886131c7565b505b606081015160ff16156123ac5760015460608201516123aa917f00000000000000000000000000000000000000000000000000000000000000009187916001600160a01b031690606490610ec99060ff16886131c7565b505b608081015160ff1615612405576001546080820151612403917f00000000000000000000000000000000000000000000000000000000000000009187916001600160a01b031690606490610ec99060ff16886131c7565b505b60a081015160ff161561245e5760015460a082015161245c917f00000000000000000000000000000000000000000000000000000000000000009187916001600160a01b031690606490610ec99060ff16886131c7565b505b604080516001600160a01b0386168152602081018490527f8e5857bb83f52e5f709290339eee483421b96fa61acfcb733cbf043255537c8b910160405180910390a150505050565b60015460025460405163095ea7b360e01b81526001600160a01b03918216600482015260248101849052600092919091169063095ea7b3906044016020604051808303816000875af1158015612500573d6000803e3d6000fd5b505050506040513d601f19601f820116820180604052508101906125249190613200565b5060015460025460405163a9059cbb60e01b81526001600160a01b03918216600482015260248101859052600092919091169063a9059cbb906044016020604051808303816000875af115801561257f573d6000803e3d6000fd5b505050506040513d601f19601f820116820180604052508101906125a39190613200565b9050806125c25760405162461bcd60e51b8152600401610a989061321d565b6002546040516351419b4b60e01b815267ffffffffffffffff881660048201526001600160a01b038781166024830152868116604483015260648201869052909116906351419b4b906084016020604051808303816000875af115801561262d573d6000803e3d6000fd5b505050506040513d601f19601f8201168201806040525081019061265191906132d9565b9695505050505050565b6126636129a5565b600380546001600160a01b0319166001600160a01b0392909216919091179055565b336000908152600560205260409020541515806126ac57506000546001600160a01b031633145b61270f5760405162461bcd60e51b815260206004820152602e60248201527f4f6e6c7920656d706c6f79656573206f72206f776e65722063616e2063616c6c60448201526d103a3434b990333ab731ba34b7b760911b6064820152608401610a98565b6000805b600681101561275d5782816006811061272e5761272e61319b565b60200201602081019061274191906132be565b61274b90836132f2565b91506127568161324c565b9050612713565b508060ff16606414612782576040516323f6fe9560e11b815260040160405180910390fd5b60006040518060c00160405280846000600681106127a2576127a261319b565b6020020160208101906127b591906132be565b60ff1681526020908101906127d090604087019087016132be565b60ff1681526020016127e860608601604087016132be565b60ff16815260200161280060808601606087016132be565b60ff16815260200161281860a08601608087016132be565b60ff16815260200161283060c0860160a087016132be565b60ff9081169091526001600160a01b03861660009081526005602090815260409182902084516003820180549387015187860151606089015160808a015160a08b0151958a1661ffff1990981697909717610100938a16939093029290921763ffff00001916620100009189169190910263ff0000001916176301000000918816919091021765ffff000000001916600160201b9487169490940265ff0000000000191693909317600160281b919095160293909317905551919250907f67976b696fcae40879ed6dd7c9738d281ac9d30197f97f4cf93692c96860040190611b1a908790879061330b565b6009818154811061115d57600080fd5b6129346129a5565b6001600160a01b0381166129995760405162461bcd60e51b815260206004820152602660248201527f4f776e61626c653a206e6577206f776e657220697320746865207a65726f206160448201526564647265737360d01b6064820152608401610a98565b6129a281612d16565b50565b6000546001600160a01b031633146115c75760405162461bcd60e51b815260206004820181905260248201527f4f776e61626c653a2063616c6c6572206973206e6f7420746865206f776e65726044820152606401610a98565b6001600160a01b038116600090815260056020526040812060020154612a27906034906131de565b92915050565b60015460025460405163095ea7b360e01b81526001600160a01b03918216600482015260248101849052600092919091169063095ea7b3906044016020604051808303816000875af1158015612a87573d6000803e3d6000fd5b505050506040513d601f19601f82011682018060405250810190612aab9190613200565b5060015460025460405163a9059cbb60e01b81526001600160a01b03918216600482015260248101859052600092919091169063a9059cbb906044016020604051808303816000875af1158015612b06573d6000803e3d6000fd5b505050506040513d601f19601f82011682018060405250810190612b2a9190613200565b905080612b495760405162461bcd60e51b8152600401610a989061321d565b6002546040516351419b4b60e01b815267ffffffffffffffff881660048201526001600160a01b038781166024830152868116604483015260648201869052909116906351419b4b906084016020604051808303816000875af1158015612bb4573d6000803e3d6000fd5b505050506040513d601f19601f82011682018060405250810190612bd891906132d9565b604080516001600160a01b038816815267ffffffffffffffff891660208201529081018290529092507f6501a56449fa702afcee63b0dd88cbee358e2aaac6aa2abab4e508dbea9431439060600160405180910390a150949350505050565b80548210612c43575050565b815b8154612c5390600190613265565b811015612cdf5781612c66826001613356565b81548110612c7657612c7661319b565b9060005260206000200160009054906101000a90046001600160a01b0316828281548110612ca657612ca661319b565b600091825260209091200180546001600160a01b0319166001600160a01b0392909216919091179055612cd88161324c565b9050612c45565b5080805480612cf057612cf0613369565b600082815260209020810160001990810180546001600160a01b03191690550190555050565b600080546001600160a01b038381166001600160a01b0319831681178455604051919092169283917f8be0079c531659141344cd1fd0a4f28419497f9722a3daafe3b4186f6b6457e09190a35050565b6001600160a01b038216600090815260056020526040812060020154612d909060ff8416906131c7565b9392505050565b6040805160a081018252600080825260208201819052918101829052606081019190915260808101612df76040805160c081018252600080825260208201819052918101829052606081018290526080810182905260a081019190915290565b905290565b6020808252825182820181905260009190848201906040850190845b81811015612e3d5783516001600160a01b031683529284019291840191600101612e18565b50909695505050505050565b60008060208385031215612e5c57600080fd5b823567ffffffffffffffff80821115612e7457600080fd5b818501915085601f830112612e8857600080fd5b813581811115612e9757600080fd5b8660208260051b8501011115612eac57600080fd5b60209290920196919550909350505050565b6001600160a01b03811681146129a257600080fd5b600060208284031215612ee557600080fd5b8135612d9081612ebe565b60ff8082511683528060208301511660208401528060408301511660408401528060608301511660608401528060808301511660808401528060a08301511660a0840152505050565b815181526020808301516001600160a01b03169082015260408083015115159082015260608083015190820152608080830151610140830191612f7e90840182612ef0565b5092915050565b60c08101612a278284612ef0565b80151581146129a257600080fd5b600080600060608486031215612fb657600080fd5b8335612fc181612ebe565b92506020840135612fd181612f93565b929592945050506040919091013590565b600060208284031215612ff457600080fd5b5035919050565b6000806040838503121561300e57600080fd5b823561301981612ebe565b9150602083013561302981612ebe565b809150509250929050565b8581526001600160a01b038516602082015283151560408201526060810183905261014081016126516080830184612ef0565b803560ff8116811461307857600080fd5b919050565b6000806040838503121561309057600080fd5b823561309b81612ebe565b91506130a960208401613067565b90509250929050565b600080600080608085870312156130c857600080fd5b843567ffffffffffffffff811681146130e057600080fd5b935060208501356130f081612ebe565b9250604085013561310081612ebe565b9396929550929360600135925050565b60008060e0838503121561312357600080fd5b823561312e81612ebe565b915060e0830184101561314057600080fd5b50926020919091019150565b6020808252602f908201527f4f6e6c79206175746f6d6174696f6e206f72206f776e65722063616e2063616c60408201526e36103a3434b990333ab731ba34b7b760891b606082015260800190565b634e487b7160e01b600052603260045260246000fd5b634e487b7160e01b600052601160045260246000fd5b8082028115828204841417612a2757612a276131b1565b6000826131fb57634e487b7160e01b600052601260045260246000fd5b500490565b60006020828403121561321257600080fd5b8151612d9081612f93565b602080825260159082015274151bdad95b881d1c985b9cd9995c8819985a5b1959605a1b604082015260600190565b60006001820161325e5761325e6131b1565b5060010190565b81810381811115612a2757612a276131b1565b60208082528181018390526000908460408401835b868110156132b35760ff6132a084613067565b168252918301919083019060010161328d565b509695505050505050565b6000602082840312156132d057600080fd5b612d9082613067565b6000602082840312156132eb57600080fd5b5051919050565b60ff8181168382160190811115612a2757612a276131b1565b6001600160a01b038316815260e0810160208083018460005b600681101561334b5760ff61333883613067565b1683529183019190830190600101613324565b505050509392505050565b80820180821115612a2757612a276131b1565b634e487b7160e01b600052603160045260246000fdfea264697066735822122069ee4416150fdc9541fce08e78cdcd65d36479c490f12bc5f23b794663110ddc64736f6c63430008130033","linkReferences":{}},"methodIdentifiers":{"addEmployee(address,bool,uint256)":"91ac24c8","automationAddress()":"cdfa77ce","bnmToken()":"753b7ffe","ccip()":"7e77b36b","changePrimaryWalletAddress(address,address)":"5e0c0d80","employeeIds(bytes32)":"de59302c","employees(address)":"d0678947","getAutomationAddress()":"d517c479","getEmployee(address)":"32648e09","getEmployeePaymentSplits(address)":"34a7bb48","getHourlyEmployees()":"14c710b5","getSalariedEmployees()":"05e26241","hourlyEmployeeIndex(address)":"9965ddee","hourlyEmployees(uint256)":"ec83e4aa","i_destinationChainIDdOP()":"ad7adc39","i_destinationChainIdBase()":"b7e64273","i_destinationChainIdBnb()":"d386bfa0","i_destinationChainIdEth()":"7fb8c876","i_destinationChainIdPolygon()":"b9a2d09b","owner()":"8da5cb5b","pay(uint64,address,address,uint256)":"e4a92888","payAllEmployees(uint8[])":"2130854a","payAllHourlyEmployees(uint8[])":"d71ade14","payAllSallaryEmployees()":"5ac3505b","paySingleEmployee(address,uint8)":"e47f103a","paymentSplits(bytes32)":"8e479e4d","recieve()":"a9e10bf2","removeEmployee(address)":"d108177a","renounceOwnership()":"715018a6","salariedEmployeeIndex(address)":"64cb2ecb","salariedEmployees(uint256)":"5b1ae837","setAutomationAddress(address)":"e7dd96d2","setEmployeeSalary(address,bool,uint256)":"5afcc5da","setPaymentSplits(address,uint8[6])":"e99bbfea","transferOwnership(address)":"f2fde38b","viewPaymentSplit(address)":"96d92e05","withdraw(address)":"51cff8d9"},"id":1}